:100000007BC0000098C0000096C0000094C00000B3
:1000100092C0000090C000008EC000008CC00000A4
:100020008AC0000088C0000086C0000084C00000B4
:1000300082C0000080C000007EC000007CC00000C4
:100040007AC0000078C0000076C0000074C00000D4
:1000500072C0000070C000006EC000006CC00000E4
:100060006AC0000068C0000066C0000064C00000F4
:1000700062C0000060C000005EC000005CC0000004
:100080005AC0000058C0000056C0000054C0000014
:1000900052C0000050C000004EC000004CC0000024
:1000A0004AC0000048C0000046C0000044C0000034
:1000B00042C0000040C000003EC000003CC0000044
:1000C0003AC0000038C0000036C0000034C0000054
:1000D00032C0000030C000002EC000002CC0000064
:1000E0002AC00000AC00B300BA00C100C800CF00B5
:1000F000D600DD00E400EB0011241FBECFEFD1E2FB
:10010000DEBFCDBF00E00CBF12E0A0E0B2E0E4E84B
:10011000F3E000E00BBF02C007900D92A636B107D6
:10012000D9F722E0A6E6B2E001C01D92A437B207DB
:10013000E1F7BFD025C164CFCF93DF93EC01862FC9
:1001400090E0FC013197EA30F10508F04AC08827B9
:10015000EE58FF4F8F4FDCC081E290E09983888397
:1001600081E08B833EC084E290E09983888382E0C3
:100170008B8337C087E290E09983888383E08B8309
:1001800030C08AE290E09983888384E08B8329C021
:100190008DE290E09983888385E08B8322C080E3A1
:1001A00090E09983888386E08B831BC083E390E093
:1001B0009983888387E08B8314C081E091E09983E1
:1001C000888388E08B830DC084E091E099838883E5
:1001D00089E08B8306C087E091E0998388838AE079
:1001E0008B83E881F98140834A83DF91CF91089521
:1001F000DC0112962C9112972F3F21F4ED91FC9186
:100200006183089580E092E08BC00895611101C080
:100210006FEFDC0112962C9112972F3F31F4ED9184
:10022000FC91818168276183089586E392E078C01C
:100230000895DC0112962C9112972F3F31F4ED9125
:10024000FC918181682B6183089586E392E068C008
:100250000895DC0112962C9112972F3F39F4ED91FD
:10026000FC918181609568236183089586E392E023
:1002700057C00895611101C06FEFDC01ED91FC9151
:1002800082918623808308950F931F93CF93DF93EA
:10029000EC01162FEFDF082F612FCE01EBDF0817DF
:1002A000D9F3612FCE01E6DFDF91CF911F910F913E
:1002B00008954FEF61E086E692E03EDF40E06AE0BD
:1002C0008AE692E039DF6AEA86E692E091DF6FE043
:1002D00086E692E0BEDF60EF86E692E0AADF6CE39E
:1002E00086E692E093DF6CE386E692E08FDF6FEFC5
:1002F0008AE692E0C9DF6FEF86E692E0AADF6FEF51
:100300008AE692E0B7DF682F86E692E071DFF7CFEA
:10031000EE0FFF1F881F8BBF0790F691E02D1994F9
:100320000F931F93CF93DF93E0917002F0917102CE
:10033000238121FF1BC08C01D0E0C0E0F801819136
:100340008F016091700270917102DB011896ED913E
:10035000FC911997882331F01995892B79F3DFEFF8
:10036000CFEFECCF8AE01995892B19F08FEF9FEF33
:1003700002C08D2F9C2FDF91CF911F910F91089577
:04038000F894FFCF1F
:100384004641494C45443A205468697320706F7261
:100394007420697320666F722077726974696E675E
:1003A4002C20706C656173652075736520696E70AF
:1003B4007574282920004641494C45443A20546824
:1003C400697320706F727420697320666F72206E77
:1003D4006F726D616C6C7920666F72206F757470CA
:0603E400757421200000E9
:00000001FF
