:10000000DEC0000060C100005EC100005CC10000F5
:100010005AC1000058C1000056C1000054C1000080
:1000200052C100000C9440080C9473080C94A6086C
:100030004AC100000C94A30F0C94D60F44C10000D9
:1000400042C100000C9409100C943C100C946F10E9
:100050000C94A2100C943D0F0C94700F0C94610C36
:1000600032C1000030C100002EC100002CC10000D0
:100070002AC10000C6C5000026C1000024C100003E
:100080000C94D5100C9408110C943B110C946E1127
:100090001AC1000018C1000016C1000014C1000000
:1000A00012C1000010C100000C94A1110C94D411D5
:1000B0000C9407120C943A1206C100000C946D12B5
:1000C0000C94A0120C94D3120C940613FCC00000E4
:1000D000FAC00000F8C00000F6C00000F4C0000044
:1000E000F2C00000202020202020202020202020DE
:1000F0002020202020202020200053657474696E69
:10010000672054656D70657261747572652E2E007E
:1001100053657474696E67207365636F6E64732EC4
:100120002E2E0053657474696E67206D696E757448
:1001300065732E2E2E0053657474696E6720686F88
:100140007572732E2E2E00202020202020202020AB
:100150002000484947482054454D5021004245451C
:100160005020424F4F50210030303A30303A30303A
:100170002020202030303A30302020202020202025
:10018000204320287878782920202079792020257C
:10019000005568727A656974202020205765636B6A
:1001A0007A656974202054656D706572617475722A
:1001B00020204665756368746500FB05620D14BEFA
:1001C0000FB6F894A89580916000886180936000D4
:1001D000109260000FBE14BE0FB6F894A8958091DF
:1001E0006000886180936000109260000FBE14BEB2
:1001F0000FB6F894A89580916000886180936000A4
:10020000109260000FBE14BE0FB6F894A8958091AE
:100210006000886180936000109260000FBE14BE81
:100220000FB6F894A8958091600088618093600073
:10023000109260000FBE14BE0FB6F894A89580917E
:100240006000886180936000109260000FBE14BE51
:100250000FB6F894A8958091600088618093600043
:10026000109260000FBE11241FBECFEFD1E2DEBF9F
:10027000CDBF00E00CBF12E0A0E0B2E0E4E2FDE29E
:1002800000E00BBF02C007900D92A63EB107D9F760
:100290002DE1A6EEB2E001C01D92A430B207E1F755
:1002A00010E0CFEDD0E000E006C021970109802FDB
:1002B000FE010E947216CD3DD10780E00807A9F724
:1002C000BED10C9490169CCE0895E9EFF2E08281A5
:1002D0008F5F828392E090878C3388F081818F5F7B
:1002E0008183128291E090878C3348F080818F5F08
:1002F000808311821086883110F01092F90280916B
:10030000010281508093010280910002815080930C
:10031000000281E0809316030895CF92DF92EF925E
:10032000FF920F931F93CF93DF93EC01D62EF42E01
:10033000122F40E062E08CE293E00E940A0A40E063
:10034000BE018CE293E00E94740B2C2D0C2C000C4F
:10035000330B4E2D50E0602F70E086E393E00E9457
:100360002D0E80914203811119C08091430388238F
:10037000C1F3E6E3F3E01586C489D589CC2E4F2D71
:100380006D2D8CE293E00E940A0ABE01772720E3DC
:10039000412F8CE293E00E940D0CE3CFC6E3D3E043
:1003A000E881F9810480F581E02D64E3CE0119959F
:1003B0001B8640E062E08CE293E00E940A0A40E083
:1003C00064EE70E08CE293E00E94740B8C2DDF9160
:1003D000CF911F910F91FF90EF90DF90CF900895F4
:1003E000F999FECF90E0805090400C947A160895D1
:1003F000EF92FF920F931F93CF93DF93019709F032
:100400006DC06F3F7F4F09F069C020E04FEF60E0A3
:1004100084E593E011D620E040E069E08EE493E0CB
:100420000BD668E086E393E00E94FC0D2CE049E0E7
:1004300062E08CE293E00E94EE0A24E631E041E0C3
:1004400065E082E293E090D424E631E041E063E0AD
:1004500088E193E089D4E12CF12C00E010E020E069
:1004600030E045E651E061E084E093E00E9439131A
:10047000C9EFD2E00CE213E01A87098718821982CB
:100480001A8281E08E831F8280E0AADF8B8381E065
:10049000A7DF8C8382E0A4DF8D83C6EED2E01983D0
:1004A000088388E193E09F878E8782E293E0998BAF
:1004B000888B1C8683E094DF282F30E039872887DB
:1004C00049E0429FC001439F900D112465E070E018
:1004D0000E943C16605E7F4F7B876A87DF91CF91D9
:1004E0001F910F91FF90EF900895F999FECF262F5D
:1004F00030E0682FC901805090400C948216089516
:10050000CF93DF93EC018885813099F028F0823019
:10051000E9F0833041F141C040E061E089859A858E
:1005200079D7688170E020E342E089859A850E944E
:100530000D0C43E061E089859A856CD7698170E094
:1005400020E342E089859A850E940D0C46E061E037
:1005500089859A855FD76A8170E020E342E08985CA
:100560009A850E940D0C4CE061E089859A8552D7EE
:100570006B8170E020E342E089859A850E940D0C32
:100580004FE061E089859A8545D76C8170E020E372
:1005900042E089859A850E940D0C84E08887DF916E
:1005A000CF910895CF93DF93EC018D85882319F0C7
:1005B000813099F13FC046E161E0888199812AD775
:1005C0008C85811109C06A817B8120E342E08881AA
:1005D00099810E940D0C08C06C817D8120E342E06E
:1005E000888199810E940D0C4CE161E0888199819C
:1005F00011D78C85811109C06885798520E343E096
:10060000888199810E940D0C08C06A857B8520E352
:1006100043E0888199810E940D0C43E261E088816A
:100620009981F8D66E817F8120E242E088819981AC
:100630000E940D0C82E08D87DF91CF910895789410
:10064000EE24EA9400E010E020E030E040E050E0EA
:1006500068EE73E084E093E00E94161440E061E9E4
:1006600071E08CE293E00E94740B40E061E08CE268
:1006700093E0D0D640E068E671E08CE293E00E941F
:10068000740B10911603112309F434C12FB7F89499
:1006900081E0882371F0A4E5B3E01296ED91FC911E
:1006A0001397928114968C9180788927828380E0B9
:1006B000F0CF2FBF809100038823A9F00F2EF9EF10
:1006C000AF2EF2E0BF2EF02D40E063E0F501818512
:1006D0009285A0D640E06DE571E0F50181859285B7
:1006E0000E94740B1DC08091FF02882381F0E9EF06
:1006F000F2E093818081981313C0948181819813D3
:100700000FC081E0809300038093170309C0E9EFD5
:10071000F2E094818181891718F481E08093FF02CF
:1007200089EF92E0EDDE80910102811165C0E091D8
:10073000F602F091F70200911B02011102C09581AF
:1007400001C0912F992391F0CF0162D39C01ABEAB4
:10075000BAEA0E94631696958795969587954B976A
:10076000E6EEF2E09783868381E08587E091F402EC
:10077000F091F502011101C015811123D1F1CF01D2
:1007800047D39C01ADECBCEC0E946316AC015295C2
:1007900042954F7045275F7045279A01220F331FFE
:1007A000220F331F220F331F240F351F0E946316A1
:1007B00096958795969587958096E6EEF2E09583D7
:1007C0008483538342832FB7F89481E0882371F0A8
:1007D000A4E5B3E01296ED91FC91139792811496E3
:1007E0008C9181708927828380E0F0CF2FBF109297
:1007F000F30285E0809301028091F8028823D1F012
:10080000E6EEF2E02281338180859185821793079D
:10081000E8F481E0809317038F0143E163E0808176
:100820009181F8D540E062E571E0F8018081918125
:100830005BD70CC0E6EEF2E02281338180859185A2
:100840002817390718F481E08093F80286EE92E0C9
:10085000A9DE80910002811132C0809117038823A4
:1008600051F12FB7F89481E0882371F0A4E5B3E04B
:100870001296ED91FC911397928114968C91887346
:100880008927828380E0F0CF2FBF40E063E08CE2D5
:1008900093E0C0D540E067E471E08CE293E024D7B8
:1008A00043E163E08CE293E0B5D540E067E471E0BA
:1008B0008CE293E019D782E08093000205C0833078
:1008C00018F082E0809300022FB7F89481E088232B
:1008D00071F0A4E5B3E01296ED91FC91139792812B
:1008E00014968C9180788927828380E0F0CF2FBF87
:1008F000109216032FB7F89481E08823B9F0EEE444
:10090000F3E0C4819C2F909585818F3F31F4E09175
:100910005003F0915103C08106C0E0915003F09163
:100920005103C081C095C92380E0E7CF2FBF2FB707
:10093000F89481E0882389F0E4E5F3E0A281B381B3
:10094000848195819F3F19F09C2F909501C09C2F29
:10095000982312969C9380E0EDCF2FBF2FB7F89489
:1009600081E08823B9F0EEE4F3E0848180959581FD
:100970009F3F31F4E0915003F0915103908106C004
:10098000E0915003F091510390819095D82FD92395
:1009900080E0E7CF2FBFD83009F45BC048F4D230F5
:1009A00061F1D43009F43FC0D13009F06ACE0FC0F4
:1009B000D03209F488C020F4D03109F464C061CE8B
:1009C000D03409F4C0C0D03809F4E4C05ACE0F2E98
:1009D000F9EFAF2EF2E0BF2EF02DF501C0800F2E03
:1009E000F7E1EF2EF02D00E022E040E061E086E349
:1009F00091E093DCF501808344CE0F2EF9EFAF2E0A
:100A0000F2E0BF2EF02DF501C1800F2EFBE3EF2E9B
:100A1000F02D00E022E043E061E083E291E07DDC44
:100A2000F50181832ECE0F2EF9EFAF2EF2E0BF2E0F
:100A3000F02DF501C2800F2EFBE3EF2EF02D00E02C
:100A400022E046E061E080E191E067DCF50182832D
:100A500018CE0F2EF9EFAF2EF2E0BF2EF02DF501DC
:100A6000C3800F2EF7E1EF2EF02D00E022E04CE0E6
:100A700061E086E391E051DCF501838391E09683A8
:100A800060E033DDFECD0F2EF9EFAF2EF2E0BF2E8A
:100A9000F02DF501C4800F2EFBE3EF2EF02D00E0CA
:100AA00022E04FE061E083E291E037DCF5018483EE
:100AB00011E0168361E019DDF5011582168362E00D
:100AC00080E013DDDECD8091F202811103C0C09081
:100AD000EE0202C0C090F0020F2EFAE7EF2EF02DCA
:100AE00000E023E04CE161E08AEF90E016DC90E06A
:100AF0002091F202211105C09093EF028093EE0243
:100B00001AC0E6EEF2E0938782879C01220F331F22
:100B1000220F331F820F931F9C01205A3109AFE827
:100B2000B3EE0E9463169695879596958795969550
:100B3000879591878087E6EEF2E081E0828B63E023
:100B40008085D3DC9ECD8091F202811111C006EE2A
:100B500012E049E161E0F801808191815BD466E4B3
:100B6000F801808191816DD581E0F80184870FC003
:100B700006EE12E049E161E0F801808191814AD4FA
:100B800063E4F801808191815CD5F80114861092AC
:100B9000F30277CD8091FF028823A9F009EF12E0DC
:100BA000F801168283E0808710921703178240E0D5
:100BB00063E0818592852ED440E067E471E0F8011E
:100BC0008185928591D58091F802882309F459CDC9
:100BD00006EE12E0F801128A1092170343E163E077
:100BE0008081918117D440E067E471E0F801808151
:100BF00091817AD546CD6FEF7FEF81E090E0F8CB21
:100C000008951F920F920FB60F9211240BB60F92F8
:100C10002F933F934F935F936F937F938F939F9304
:100C2000AF93BF93EF93FF9380917B03882309F4E5
:100C300088C0EAE7F0E080818F7780836091780058
:100C40007091790040915A03242F30E0F901EE0FA2
:100C5000FF1FE55AFC4FA081B18113968D919C91A5
:100C60001497860F971F14969C938E931397A081C9
:100C7000B18117968C911797815017968C9301909C
:100C8000F081E02D8781811154C083819481668138
:100C900070E00E943C1672836183220F331FF901BA
:100CA000E55AFC4FA081B18114961C921E921397B5
:100CB000A081B18116968C91169717968C9301900E
:100CC000F081E02D81E085834F5F40935A0380914E
:100CD0007B03481710F010925A03ACE7B0E08C91F8
:100CE000887F8C939C91E0915A03F0E0EE0FFF1FF8
:100CF000E55AFC4F0190F081E02D80818770892BAF
:100D00008C93E0915A03F0E0EE0FFF1FE55AFC4F81
:100D10000190F081E02D8081883030F0EBE7F0E049
:100D200080818860808305C0EBE7F0E08081877F69
:100D30008083EAE7F0E0808180688083808180643E
:100D40008083FF91EF91BF91AF919F918F917F91A0
:100D50006F915F914F913F912F910F900BBE0F902C
:100D60000FBE0F901F901895FC01403408F04FE320
:100D700046833187208780917B03803108F047C00C
:100D8000811112C0A4E6B0E08C918E7F8C93AAE70B
:100D9000B0E08C9187608C93ACE7B0E08C9180647C
:100DA0008C938C918F7D8C93683078F0ADE7B0E0B8
:100DB0002C91362F377081E090E002C0880F991F88
:100DC0003A95E2F7822B8C930DC0AEE7B0E02C9100
:100DD00081E090E0062E02C0880F991F0A94E2F786
:100DE000822B8C93868187831282118214821382D4
:100DF00015826083A0917B0381E08A0F80937B033F
:100E0000B0E0AA0FBB1FA55ABC4FED93FC93089509
:100E1000CF93DF93EC01ECE7F0E08081887F808363
:100E2000908188818770892B80838881883030F019
:100E3000EBE7F0E080818860808305C0EBE7F0E0BD
:100E40008081877F8083EAE7F0E08081806880830B
:100E5000808186FDFDCF6E816623E9F020E030E0E1
:100E6000EAE7F0E0A8E7B0E08081806480838081D9
:100E700086FDFDCF4D915C91119789819A81840FF8
:100E8000951F9A8389832F5F3F4F6E81862F90E055
:100E9000281739074CF389819A8170E00E943C162B
:100EA0007A836983EAE7F0E080818F7780838981A4
:100EB0009A81E885F98519951A8219821D82DF9138
:100EC000CF910895DC012FB7F8941296ED91FC9123
:100ED000139714969C91149715968C918F3F09F057
:100EE0006095692362832FBF0895FC012FB7F894A2
:100EF00085818F3F59F4A281B38112968C9112970C
:100F000094816923682B12966C930BC0A281B381E4
:100F100012969C911297848189236095682312967A
:100F20006C932FBF0895FC012FB7F89485818F3FF4
:100F300061F4A281B38112969C91129784818923D6
:100F40006095682312966C930AC0A281B3811296B1
:100F50009C91129784816823692B12966C932FBF02
:100F60000895DC012FB7F8941296ED91FC91139738
:100F7000928114968C916823692762832FBF08950C
:100F8000FC012FB7F89484818095682385818F3F79
:100F900029F40280F381E02D808106C00280F38174
:100FA000E02D9081892F80952FBF86230895CF93C0
:100FB000DF93EC01E881F9810084F185E02D6FEF8A
:100FC00019959A852885382F30959323922B9887E9
:100FD0009A85298590959823922B99878A87EE8107
:100FE000FF81309709F01995DF91CF910895EF9225
:100FF000FF921F93CF93DF937C01D62F1FB7F894F6
:10100000D70114966C9114976095ED91FC91008432
:10101000F185E02DC7011995C82F80958D2309F41E
:1010200009D41FBF8C2F8D2349F38C2FDF91CF91D3
:101030001F91FF90EF9008950F931F93CF93DF932D
:101040008C01862FD42FC22F22E332E0D8012D93BA
:101050003C930E94F315F80193838283D483C58364
:10106000009749F0DC011196DC930280F381E02DBA
:10107000CD2BC095C283DF91CF911F910F91089521
:101080001F920F920FB60F9211240BB60F922F934F
:101090003F934F935F936F937F938F939F93AF9300
:1010A000BF93EF93FF9380917C0390917D03009712
:1010B00039F0DC01ED91FC910484F585E02D199562
:1010C000FF91EF91BF91AF919F918F917F916F9120
:1010D0005F914F913F912F910F900BBE0F900FBEDC
:1010E0000F901F9018951F920F920FB60F92112418
:1010F0000BB60F922F933F934F935F936F937F9312
:101100008F939F93AF93BF93EF93FF93809180034F
:1011100090918103009739F0DC01ED91FC910484FA
:10112000F585E02D1995FF91EF91BF91AF919F91BA
:101130008F917F916F915F914F913F912F910F9080
:101140000BBE0F900FBE0F901F9018951F920F921D
:101150000FB60F9211240BB60F922F933F934F931C
:101160005F936F937F938F939F93AF93BF93EF930F
:10117000FF9380917E0390917F03009739F0DC010B
:10118000ED91FC910484F585E02D1995FF91EF9187
:10119000BF91AF919F918F917F916F915F914F918F
:1011A0003F912F910F900BBE0F900FBE0F901F908D
:1011B0001895FF920F931F93CF93DF93EC01F62EB8
:1011C0003BDF80E292E0998388831F830E83188639
:1011D00019861A8681E0F8120EC0D0937D03C09361
:1011E0007C03E8E6F0E08081816080838C818095DB
:1011F00080936B0022C089E0F8120EC0D0937F0369
:10120000C0937E03E8E6F0E08081846080838C8177
:10121000809580936D0011C088E0F8120EC0D093C5
:101220008103C0938003E8E6F0E0808182608083E0
:101230008C818095880F80936C00DF91CF911F91F6
:101240000F91FF900895CF93DF93FC016FB7F8944F
:10125000A281B3811C92A281B381119780EF8C93FC
:10126000A281B3818C9180628C9381E090E0A28115
:10127000B3814C919C01018402C0220F331F0A9458
:10128000E2F724272C9325E02A95F1F70000A281AC
:10129000B381ED01229728812295207F3C91AC01FA
:1012A000018402C0440F551F0A94E2F743274C9370
:1012B0003AE03A95F1F700C0A281B3813C91AC01CC
:1012C000018402C0440F551F0A94E2F743274C9350
:1012D00035E03A95F1F70000A281B381ED01229744
:1012E00038813C91AC01018402C0440F551F0A941F
:1012F000E2F743274C9322230CF4B9CFA281B381A8
:101300008C918F7D8C930280F381E02D31978FEF4C
:1013100080836FBFDF91CF910895FC014FB7F894A0
:10132000A281B3815C9121E030E0C901018402C057
:10133000880F991F0A94E2F785278C9385E08A9598
:10134000F1F70000A281B3818C91018402C0220FC9
:10135000331F0A94E2F728272C934FBF0895EF928A
:10136000FF920F931F93CF93DF93EC01062F8C8195
:10137000893011F0CE0167DF1FB7F894E02EF12C11
:10138000F594E794F594E794F594E794F594E7944D
:10139000EA81FB81E082CE01C0DF0F70EA81FB8130
:1013A0000083CE01BADFEA81FB8110828C81893013
:1013B00031F587EC90E00197F1F700C000001FC005
:1013C0001985143011F084E001C087E08987FFB6E9
:1013D000F894EA81FB81E082CE019FDFEA81FB8104
:1013E0000083CE019ADFEA81FB811082198787ECA6
:1013F00090E00197F1F700C00000FFBE04C01FBFDE
:101400008C818930E9F2DF91CF911F910F91FF908C
:10141000EF900895CF93DF93FC01A581B6818C9165
:101420006817F0F411968C9111974817D8F44087FB
:101430006783ED01C60FD11D8A81480F84818930F1
:1014400039F48C918695681718F087E0818702C07F
:1014500084E08187CF01642F606881DF81E003C071
:1014600080E001C080E0DF91CF910895FC0190857C
:1014700081E0890F8087A581B68111962C91119703
:10148000821788F08181882349F0108687818F5FD9
:1014900087839C91891718F0178201C09087408537
:1014A0006781CF01B7CF08951F93CF93DF93EC01EE
:1014B000162F2FEF81EE94E0215080409040E1F70D
:1014C00000C00000EA81FB8183E08083CE0125DF3C
:1014D0008FE19EE40197F1F700C00000CE011DDF0F
:1014E0008FE19EE40197F1F700C00000CE0115DF07
:1014F0008FE19EE40197F1F700C00000EA81FB81D3
:1015000082E08083CE0109DF8FE19EE40197F1F74D
:1015100000C00000612FCE0122DFED81FE818081BD
:10152000813021F460E2CE011ADF03C068E2CE010F
:1015300016DF61E0CE0113DF8C81893031F48FE159
:101540009EE40197F1F700C0000066E0CE0107DFDE
:101550008C81893009F03EC087E08987EA81FB8170
:1015600083E08083CE01D9DE8FE19EE40197F1F71D
:1015700000C00000CE01D1DE8FE19EE40197F1F7BB
:1015800000C00000CE01C9DE8FE19EE40197F1F7B3
:1015900000C00000EA81FB8182E08083CE01BDDED5
:1015A0008FE19EE40197F1F700C00000612FCE01AA
:1015B000D6DE68E2CE01D3DE61E0CE01D0DE8FE17F
:1015C0009EE40197F1F700C0000066E0CE01C7DE9F
:1015D00084E08987DF91CF911F9108950F931F9326
:1015E000CF93DF93EC01862F042F122F0E94F31567
:1015F0009C012E5F3F4F3B832A8324E029870C8385
:10160000402F50E09A01220F331F420F531F440F07
:10161000551F425C5D4F5E834D8318861F82212FCC
:10162000221F2227221F29832FEFFC012183612FF4
:101630006F776883CE0138DFDF91CF911F910F91D3
:1016400008950F931F93CF93DF93EC01162F8C8196
:10165000893011F0CE01F7DD0FB7F894812F829514
:101660008F708064EA81FB818083CE0156DE1F701B
:101670001064EA81FB811083CE014FDEEA81FB8199
:1016800010828C81893031F487EC90E00197F1F77A
:1016900000C000000FBFCE01E9DEDF91CF911F91A6
:1016A0000F910895EF92FF920F931F93CF93DF93C3
:1016B0007C01442311F050E002C04FEF5FEFEB01DB
:1016C0008B01040F151F0C171D0739F06881662365
:1016D00021F02196C701B5DFF6CFDF91CF911F91A1
:1016E0000F91FF90EF900895EF92FF920F931F9349
:1016F000CF93DF937C01442319F0042F10E002C044
:101700000FEF1FEF060F171FFB01E017F10749F05E
:101710006491EF012196662321F0C70192DFFE015B
:10172000F4CFDF91CF911F910F91FF90EF9008952B
:101730008F929F92AF92BF92CF92DF92EF92FF92E1
:101740000F931F93CF93DF936C01FB01892B31F42F
:101750000F2EF2E8CF2EF3E0DF2EF02DFF233CF426
:101760008DE2D6018C93F195E195F10937C0D60150
:101770002C9334C0CF01B8010E9450167C018E1703
:101780009F0791F4353021F480E3F60185831CC076
:101790008881281302C029830DC08D3219F4288353
:1017A000898208C0998206C0CF01B8010E945016F4
:1017B000605D6983C801B5010E9450168B013F5FCF
:1017C0002196F7013630B1F6D60116961C9286E0C6
:1017D00090E0841B91098C0D9D1D12C0E60131E043
:1017E00000E117E20F2EF0E39F2EF02D0F2EFDE209
:1017F0008F2EF02D0F2EFAE0AF2EB12CF02DBACF98
:10180000DF91CF911F910F91FF90EF90DF90CF90DC
:10181000BF90AF909F908F900895CF93DF93EC018E
:1018200080E090E085DF40E0BC01CE013BDFDF914E
:10183000CF91089580918B03813061F4789483B7C0
:10184000817F83BF83B7816083BF889583B78E7F95
:1018500083BF08958CE893E00E94621590910A027C
:101860002BE233E0929FF001939FF00D1124E35699
:10187000FC4F4481558166817781480F511D611D60
:10188000711D4483558366837783089590918A03FD
:101890009923A9F020918903E22FF0E0EE5FFD4F3C
:1018A00080813FEF3083915090938A032F5F2830DF
:1018B00018F42093890308951092890308958FEFF7
:1018C0000895FF93EF93DF93CF93BF93AF939F93CD
:1018D0008F937F936F935F934F933F932F931F93B8
:1018E0000F93FF92EF92DF92CF92BF92AF929F92AF
:1018F0008F927F926F925F924F923F922F921F92A0
:101900000F92C0910A022C2F30E08FB74BE253E0C8
:10191000249FF001259FF00D349FF00D1124E35614
:10192000FC4F80878DB79EB7928781878481958190
:10193000A681B7818F519F4FAF4FBF4F848395834F
:10194000A683B783818181110DC08BE293E0289F2C
:10195000F001299FF00D389FF00D1124E356FC4F44
:1019600081E0818393DF8F3F19F080930A0241C0A9
:101970008C2F4BE253E08F5F883008F081E0282FF6
:1019800030E0249FF001259FF00D349FF00D1124CD
:10199000E356FC4F9181913041F5249FF001259F42
:1019A000F00D349FF00D1124E356FC4F93819923E1
:1019B00061F0249FF001259FF00D349FF00D11245C
:1019C000E356FC4F91509383D6CF4BE253E0249FD4
:1019D000F001259FF00D349FF00D1124E356FC4FCC
:1019E0009281938380930A0204C08C13C4CF109217
:1019F0000A0220910A028BE293E0289FF001299FBE
:101A0000F00D1124E356FC4F11829FB7F8944091DA
:101A10008E0350918F032091C4023091C50242176A
:101A2000530751F4ECE8F3E0A481B5818C91856013
:101A30008C93808986BD0AC0ECE8F3E0A481B5816F
:101A40008C9187608C9380898093B2009FBF209196
:101A50000A028BE293E0289FF001299FF00D1124E8
:101A6000E356FC4F20852FBF20910A02289FF001EA
:101A7000299FF00D1124E356FC4F818592859EBF6E
:101A80008DBF0F901F902F903F904F905F906F9061
:101A90007F908F909F90AF90BF90CF90DF90EF900E
:101AA000FF900F911F912F913F914F915F916F91F7
:101AB0007F918F919F91AF91BF91CF91DF91EF91E6
:101AC000FF91189560E08CE893E0D8C70895DC0199
:101AD0001296ED91FC911397828160956823628341
:101AE0000895DC011296ED91FC9113978281682B89
:101AF00062830895DC011296ED91FC911397828127
:101B00006827628308950F931F93CF93DF93FC019F
:101B10002385222309F46BC0EC0104891589028016
:101B2000F381E02D808183FD0FC081E08C878C895B
:101B30009D899B8B8A8BE881F9810280F381E02D5E
:101B400060E1CE01199553C0808183708E8B2C8902
:101B50003D89EF89F0E0EE0FFF1FEE0FFF1FE55FFD
:101B6000FD4FE80FF11D9081290F311D97FD3A952A
:101B70003D8B2C8B8F8B2C893D898E859F85821781
:101B800093075CF09D8B8C8BE881F9810280F38157
:101B9000E02D60E2CE0119951AC02C893D89888913
:101BA0009989281739075CF09D8B8C8BE881F98126
:101BB0000280F381E02D64E0CE01199508C0E88130
:101BC000F9810480F581E02D64E2CE0119958C89BC
:101BD0009D890817190759F0E881F9810480F5817A
:101BE000E02D60E1CE01199581E08D871C86DF91A3
:101BF000CF911F910F9108950F931F93CF93DF9370
:101C0000EC0100E010E020E044E3D3DA8EE792E05C
:101C100099838883EA81FB818BEC8283EA81FB8153
:101C20008281846382831F861E868FE097E2998B70
:101C3000888B87E893E19D8B8C8B9B8B8A8B1E8A8C
:101C4000EA81FB81808183708F8B1C861D861B86B9
:101C5000DF91CF911F910F9108950F931F93CF9311
:101C6000DF93EC0189016417750724F47F876E8781
:101C7000598B488B8E859F850817190744F0288952
:101C80003989201731071CF01D8B0C8B0EC0488939
:101C90005989481B590B9A0112F42F5F3F4F359514
:101CA0002795820F931F9D8B8C8B1B8B0A8BE88152
:101CB000F9810480F581E02D64E3CE0119958E85CC
:101CC0009F850817190749F4E881F9810280F3819B
:101CD000E02D60E2CE0119950DC088899989081719
:101CE000190741F4E881F9810280F381E02D64E075
:101CF000CE0119951C861D8681E08B87DF91CF91DF
:101D00001F910F910895CF93DF93EC01E885F9853A
:101D1000309709F019958A859B85892B39F4E881DC
:101D2000F9810190F081E02DCE011995DF91CF91DD
:101D30000895CF93DF93EC01EA85FB85309709F096
:101D400019958E859F85892B39F4E881F981019059
:101D5000F081E02DCE011995DF91CF91089508957E
:101D6000CF93DF93EC01EE85FF85309709F019954D
:101D7000E881F9810190F081E02DCE011995DF9184
:101D8000CF910895DC012FB7F89412964D915C9194
:101D900013978091C4029091C5024817590759F4CE
:101DA0001496ED91FC911597808185608083509603
:101DB0008C9186BD0BC01496ED91FC911597908186
:101DC0009760908350968C918093B2002FBF0895B6
:101DD000CF93DF93EC01E885F985309709F01995E9
:101DE0008A859B85892B39F4E881F9810190F081FE
:101DF000E02DCE011995DF91CF910895CF93DF9318
:101E0000EC01EA85FB85309709F019958C859D8555
:101E1000892B39F4E881F9810190F081E02DCE0120
:101E20001995DF91CF910895CF93DF93EC01EC8565
:101E3000FD85309709F019958E859F85892B39F49A
:101E4000E881F9810190F081E02DCE011995DF91B3
:101E5000CF910895CF93DF93EC01EE85FF85309706
:101E600009F01995E881F9810190F081E02DCE010A
:101E70001995DF91CF910895FFCF1F920F920FB662
:101E80000F9211240BB60F922F933F934F935F93B2
:101E90006F937F938F939F93AF93BF93EF93FF9332
:101EA0008091F51C9091F61C009739F0DC01ED91C2
:101EB000FC910280F381E02D1995FF91EF91BF9184
:101EC000AF919F918F917F916F915F914F913F91D2
:101ED0002F910F900BBE0F900FBE0F901F90189573
:101EE0001F920F920FB60F9211240BB60F922F93E1
:101EF0003F934F935F936F937F938F939F93AF9392
:101F0000BF93EF93FF938091F51C9091F61C00977F
:101F100039F0DC01ED91FC910480F581E02D1995FB
:101F2000FF91EF91BF91AF919F918F917F916F91B1
:101F30005F914F913F912F910F900BBE0F900FBE6D
:101F40000F901F9018951F920F920FB60F921124A9
:101F50000BB60F922F933F934F935F936F937F93A3
:101F60008F939F93AF93BF93EF93FF938091F91C4F
:101F70009091FA1C009739F0DC01ED91FC91028000
:101F8000F381E02D1995FF91EF91BF91AF919F9152
:101F90008F917F916F915F914F913F912F910F9012
:101FA0000BBE0F900FBE0F901F9018951F920F92AF
:101FB0000FB60F9211240BB60F922F933F934F93AE
:101FC0005F936F937F938F939F93AF93BF93EF93A1
:101FD000FF938091F91C9091FA1C009739F0DC0175
:101FE000ED91FC910480F581E02D1995FF91EF9121
:101FF000BF91AF919F918F917F916F915F914F9121
:102000003F912F910F900BBE0F900FBE0F901F901E
:1020100018951F920F920FB60F9211240BB60F92C4
:102020002F933F934F935F936F937F938F939F93E0
:10203000AF93BF93EF93FF938091F71C9091F81C9F
:10204000009739F0DC01ED91FC910280F381E02DE5
:102050001995FF91EF91BF91AF919F918F917F91D2
:102060006F915F914F913F912F910F900BBE0F9009
:102070000FBE0F901F9018951F920F920FB60F92E0
:1020800011240BB60F922F933F934F935F936F934F
:102090007F938F939F93AF93BF93EF93FF93809121
:1020A000F71C9091F81C009739F0DC01ED91FC9140
:1020B0000480F581E02D1995FF91EF91BF91AF91CB
:1020C0009F918F917F916F915F914F913F912F9150
:1020D0000F900BBE0F900FBE0F901F9018951F9280
:1020E0000F920FB60F9211240BB60F922F933F93BE
:1020F0004F935F936F937F938F939F93AF93BF9310
:10210000EF93FF938091F71C9091F81C009739F0A2
:10211000DC01ED91FC910680F781E02D1995FF918E
:10212000EF91BF91AF919F918F917F916F915F914F
:102130004F913F912F910F900BBE0F900FBE0F90BC
:102140001F9018951F920F920FB60F9211240BB685
:102150000F922F933F934F935F936F937F938F9340
:102160009F93AF93BF93EF93FF938091F71C909150
:10217000F81C009739F0DC01ED91FC910084F185A9
:10218000E02D1995FF91EF91BF91AF919F918F91A4
:102190007F916F915F914F913F912F910F900BBE67
:1021A0000F900FBE0F901F9018951F920F920FB6B1
:1021B0000F9211240BB60F922F933F934F935F937F
:1021C0006F937F938F939F93AF93BF93EF93FF93FF
:1021D0008091FB1C9091FC1C009739F0DC01ED9183
:1021E000FC910280F381E02D1995FF91EF91BF9151
:1021F000AF919F918F917F916F915F914F913F919F
:102200002F910F900BBE0F900FBE0F901F9018953F
:102210001F920F920FB60F9211240BB60F922F93AD
:102220003F934F935F936F937F938F939F93AF935E
:10223000BF93EF93FF938091FB1C9091FC1C009740
:1022400039F0DC01ED91FC910480F581E02D1995C8
:10225000FF91EF91BF91AF919F918F917F916F917E
:102260005F914F913F912F910F900BBE0F900FBE3A
:102270000F901F9018951F920F920FB60F92112476
:102280000BB60F922F933F934F935F936F937F9370
:102290008F939F93AF93BF93EF93FF938091FB1C1A
:1022A0009091FC1C009739F0DC01ED91FC910680C7
:1022B000F781E02D1995FF91EF91BF91AF919F911B
:1022C0008F917F916F915F914F913F912F910F90DF
:1022D0000BBE0F900FBE0F901F9018951F920F927C
:1022E0000FB60F9211240BB60F922F933F934F937B
:1022F0005F936F937F938F939F93AF93BF93EF936E
:10230000FF938091FB1C9091FC1C009739F0DC013D
:10231000ED91FC910084F185E02D1995FF91EF91ED
:10232000BF91AF919F918F917F916F915F914F91ED
:102330003F912F910F900BBE0F900FBE0F901F90EB
:1023400018951F920F920FB60F9211240BB60F9291
:102350002F933F934F935F936F937F938F939F93AD
:10236000AF93BF93EF93FF938091FD1C9091FE1C60
:10237000009739F0DC01ED91FC910280F381E02DB2
:102380001995FF91EF91BF91AF919F918F917F919F
:102390006F915F914F913F912F910F900BBE0F90D6
:1023A0000FBE0F901F9018951F920F920FB60F92AD
:1023B00011240BB60F922F933F934F935F936F931C
:1023C0007F938F939F93AF93BF93EF93FF938091EE
:1023D000FD1C9091FE1C009739F0DC01ED91FC9101
:1023E0000480F581E02D1995FF91EF91BF91AF9198
:1023F0009F918F917F916F915F914F913F912F911D
:102400000F900BBE0F900FBE0F901F9018951F924C
:102410000F920FB60F9211240BB60F922F933F938A
:102420004F935F936F937F938F939F93AF93BF93DC
:10243000EF93FF938091FD1C9091FE1C009739F063
:10244000DC01ED91FC910680F781E02D1995FF915B
:10245000EF91BF91AF919F918F917F916F915F911C
:102460004F913F912F910F900BBE0F900FBE0F9089
:102470001F9018951F920F920FB60F9211240BB652
:102480000F922F933F934F935F936F937F938F930D
:102490009F93AF93BF93EF93FF938091FD1C909117
:1024A000FE1C009739F0DC01ED91FC910084F18570
:1024B000E02D1995FF91EF91BF91AF919F918F9171
:1024C0007F916F915F914F913F912F910F900BBE34
:1024D0000F900FBE0F901F9018951F920F920FB67E
:1024E0000F9211240BB60F922F933F934F935F934C
:1024F0006F937F938F939F93AF93BF93EF93FF93CC
:102500008091FF1C9091001D009739F0DC01ED9146
:10251000FC910280F381E02D1995FF91EF91BF911D
:10252000AF919F918F917F916F915F914F913F916B
:102530002F910F900BBE0F900FBE0F901F9018950C
:102540001F920F920FB60F9211240BB60F922F937A
:102550003F934F935F936F937F938F939F93AF932B
:10256000BF93EF93FF938091FF1C9091001D009704
:1025700039F0DC01ED91FC910480F581E02D199595
:10258000FF91EF91BF91AF919F918F917F916F914B
:102590005F914F913F912F910F900BBE0F900FBE07
:1025A0000F901F9018951F920F920FB60F92112443
:1025B0000BB60F922F933F934F935F936F937F933D
:1025C0008F939F93AF93BF93EF93FF938091FF1CE3
:1025D0009091001D009739F0DC01ED91FC9106808F
:1025E000F781E02D1995FF91EF91BF91AF919F91E8
:1025F0008F917F916F915F914F913F912F910F90AC
:102600000BBE0F900FBE0F901F9018951F920F9248
:102610000FB60F9211240BB60F922F933F934F9347
:102620005F936F937F938F939F93AF93BF93EF933A
:10263000FF938091FF1C9091001D009739F0DC0101
:10264000ED91FC910084F185E02D1995FF91EF91BA
:10265000BF91AF919F918F917F916F915F914F91BA
:102660003F912F910F900BBE0F900FBE0F901F90B8
:1026700018959F92AF92BF92CF92DF92EF92FF9206
:102680000F931F93CF93DF93EC01962E5A016901AC
:1026900080E992E099838883862FC9D29B838A83BD
:1026A000E92DF0E0EE0FFF1FEC53FD4F808191818B
:1026B00001969D838C838AEB92E09983888381E0E5
:1026C000981226C0D093F81CC093F71CA114B10433
:1026D00029F0EFE6F0E0808182608083C114D104AC
:1026E00029F0EFE6F0E08081846080830115110518
:1026F00029F0EFE6F0E0808188608083E114F10446
:1027000009F47EC0EFE6F0E080818160808378C0CC
:1027100083E0981226C0D093FC1CC093FB1CA1142C
:10272000B10429F0E1E7F0E0808182608083C11488
:10273000D10429F0E1E7F0E0808184608083011515
:10274000110529F0E1E7F0E0808188608083E114E1
:10275000F10409F455C0E1E7F0E0808181608083F5
:102760004FC084E0981225C0D093FE1CC093FD1C7E
:10277000A114B10429F0E2E7F0E080818260808357
:10278000C114D10429F0E2E7F0E080818460808305
:102790000115110529F0E2E7F0E08081886080836F
:1027A000E114F10469F1E2E7F0E080818160808367
:1027B00027C085E098122EC0D093001DC093FF1C47
:1027C000A114B10429F0E3E7F0E080818260808306
:1027D000C114D10429F0E3E7F0E0808184608083B4
:1027E0000115110529F0E3E7F0E08081886080831E
:1027F000E114F10429F0E3E7F0E080818160808357
:10280000B986A886DB86CA861D870C87FF86EE867A
:102810001E821F82DF91CF911F910F91FF90EF9049
:10282000DF90CF90BF90AF909F900895EF92FF926E
:102830000F931F93CF93DF93FC01FFB6F894A4810D
:10284000B5818C91887F8C93A481B5818C918560B2
:102850008C93A62FB72FA23181E1B80710F0A1E128
:10286000B1E18FE08A9FE0018B9FD00D1124642F8E
:10287000752F623181E1780710F061E171E18FE03D
:10288000869FD001879FB00D1124422F532F4231D4
:1028900081E1580710F041E151E18FE0849FB001E0
:1028A000859F700D1124202F312F223181E13807AF
:1028B00010F021E131E18FE0829FA001839F500D54
:1028C0001124518B408B828193812091C6023091DB
:1028D000C7028217930789F4D0938900C0938800B8
:1028E000B0938B00A0938A0070938D0060938C004E
:1028F000509385004093840040C02091CA023091DB
:10290000CB028217930789F4D0939900C093980063
:10291000B0939B00A0939A0070939D0060939C00DD
:10292000509395004093940028C02091CC023091A0
:10293000CD028217930789F4D093A900C093A80011
:10294000B093AB00A093AA007093AD006093AC006D
:102950005093A5004093A40010C0D0932901C093C8
:102960002801B0932B01A0932A0170932D0160934D
:102970002C015093250140932401E68281E0878356
:10298000FFBEDF91CF911F910F91FF90EF900895BF
:10299000BF92CF92DF92EF92FF920F931F93CF934C
:1029A000DF93EC01B62E6A01790180E992E0998308
:1029B0008883862F3CD19B838A83EB2DF0E0EE0F3A
:1029C000FF1FEC53FD4F8081918101969D838C8385
:1029D0008EE992E099838883B1101DC0D093F61CD4
:1029E000C093F51CC114D10429F0EEE6F0E080811B
:1029F00082608083E114F10429F0EEE6F0E080814A
:102A0000846080830115110529F1EEE6F0E08081F4
:102A1000816080831FC082E0B81226C0D093FA1C68
:102A2000C093F91CC114D10429F0E0E7F0E08081E3
:102A300082608083E114F10429F0E0E7F0E0808116
:102A4000846080830115110529F0E0E7F0E08081C2
:102A500081608083D986C886FB86EA861D861C86AF
:102A60001F870E871E821F82DF91CF911F910F91CA
:102A7000FF90EF90DF90CF90BF900895EF92FF927C
:102A80000F931F93CF937C01C62F00E010E020E04E
:102A900030E040E050E07CDF8CEA92E0F701918387
:102AA0008083C11104C081E080936E0005C0C230F4
:102AB00019F481E080937000CF911F910F91FF90E6
:102AC000EF900895DC012FB7F89483B7817F83BF1F
:102AD00012964D915C9113978091C4029091C5021A
:102AE0004817590721F486B59FEF96BD05C0E2EB64
:102AF000F0E080819FEF90831496ED91FC91159703
:102B000091E090832FBF93B7916093BF889593B75F
:102B10009E7F93BF50969C91891B0895FC019FB79F
:102B2000F894A481B5818C91887F8C93168217824A
:102B30009FBF0895FC0186818230B8F18F3F11F06C
:102B400081508683828193812091C6023091C70291
:102B50008217930739F48089918990938500809337
:102B6000840008952091CA023091CB028217930706
:102B700039F4808991899093950080939400089509
:102B80002091CC023091CD028217930739F48089CD
:102B900091899093A5008093A400089580899189DC
:102BA00090932501809324010895CF01B7CF089514
:102BB000FC0186818230A0F08F3F11F08150868326
:102BC000228133818091C4029091C5022817390770
:102BD00019F4808986BD089580898093B200089594
:102BE000CF019CCF0895282F30E041E050E0BA019A
:102BF00002C0660F771F8A95E2F7CB014091021D54
:102C00005091031D64237523672B71F4842B952B3E
:102C10009093031D8093021D220F331FF901E0538F
:102C2000FD4F80819181089580E090E0089560914A
:102C3000011D282F30E0462F50E0082E02C0559588
:102C400047950A94E2F740FD14C041E050E0FA01D4
:102C500002C0EE0FFF1F8A95E2F7CF01862B80930B
:102C6000011D220F331FF901EC53FD4F808191812B
:102C7000089580E090E00895AA1BBB1B51E107C0B6
:102C8000AA1FBB1FA617B70710F0A61BB70B881FFC
:102C9000991F5A95A9F780959095BC01CD0108958B
:102CA00097FB072E16F4009406D077FD08D0E4DFDA
:102CB00007FC05D03EF4909581959F4F089570953F
:102CC00061957F4F0895A29FB001B39FC001A39F5C
:102CD000700D811D1124911DB29F700D811D112455
:102CE000911D0895EE0FFF1F881F8BBF0790F6916F
:102CF000E02D1994F999FECF92BD81BDF89A9927DC
:102D000080B50895262FF999FECF1FBA92BD81BDD7
:102D100020BD0FB6F894FA9AF99A0FBE019608955D
:042D2000F894FFCF55
:102D24000205FFFFFFFFFFFFFFFFFF0001FF00FFA2
:102D3400000001010000FF00FF010001000000008D
:102D4400620775079307B107C007F707D7070000A5
:102D54000000620775079307B107C007F70701145E
:102D6400000000000118000000000128000000001D
:102D7400021000400000021400400000021800404D
:102D84000000022800400000041000401050041409
:102D9400004010500428004000400000000062077A
:102DA400670D710D7A0DC007F707830D0000000051
:102DB4003C0F3C0F3C0F3C0F3C0F00000000D815AB
:102DC400830E990EAF0EB00E00000000C20E830EEB
:102DD400990EAF0EB00E000000009A15E80EFE0E1C
:102DE400140F2A0F44008000B0009000A0002001BE
:102DF40020002300260029002C002F0032000001AF
:062E0400030106010901B3
:00000001FF
