S00C000041352E312E7372656343
S113000073C0000001C10000FFC00000FDC000007B
S1130010FBC00000F9C00000F7C00000F5C00000FC
S1130020F3C000005EC500008FC50000C0C500001D
S1130030EBC000000C94E40B0C94170CE5C000001A
S1130040E3C000000C944A0C0C947D0C0C94B00C8E
S11300500C94E30C0C947E0B0C94B10B0C94BE0921
S1130060D3C00000D1C00000CFC00000CDC000004C
S1130070CBC00000C9C00000C7C00000C5C000005C
S11300800C94160D0C94490D0C947C0D0C94AF0D2E
S1130090BBC00000B9C00000B7C00000B5C000007C
S11300A0B3C00000B1C000000C94E20D0C94150E16
S11300B00C94480E0C947B0EA7C000000C94AE0E5A
S11300C00C94E10E0C94140F0C94470F9DC0000087
S11300D09BC0000099C0000097C0000095C00000BC
S11300E093C000003004BF0A14BE0FB6F894A8955C
S11300F080916000886180936000109260000FBE60
S113010014BE0FB6F894A89580916000886180931E
S11301106000109260000FBE14BE0FB6F894A8954C
S113012080916000886180936000109260000FBE2F
S113013014BE0FB6F894A8958091600088618093EE
S11301406000109260000FBE14BE0FB6F894A8951C
S113015080916000886180936000109260000FBEFF
S113016014BE0FB6F894A8958091600088618093BE
S11301706000109260000FBE14BE0FB6F894A895EC
S113018080916000886180936000109260000FBECF
S113019014BE0FB6F894A89580916000886180938E
S11301A06000109260000FBE11241FBECFEFD1E299
S11301B0DEBFCDBF00E00CBF12E0A0E0B2E0ECE790
S11301C0F5E200E00BBF02C007900D92AA3DB10713
S11301D0D9F72CE1AAEDB2E001C01D92AD3EB20701
S11301E0E1F710E0C4E7D0E000E006C02197010980
S11301F0802FFE010E94B412C237D10780E00807A5
S1130200A9F7E5D20C94BC12FBCE80916503813032
S1130210F9F4E5E6F3E0818181508183811118C00E
S11302202FB7F89481E0882371F0A6E5B3E0129625
S1130230ED91FC911397928114968C918F7089277C
S1130240828380E0F0CF2FBFE5E6F3E082818183F3
S1130250809162038130F9F4E2E6F3E08181815018
S11302608183811118C02FB7F89481E0882371F03D
S1130270A6E5B3E01296ED91FC9113979281149642
S11302808C91807F8927828380E0F0CF2FBFE2E6C4
S1130290F3E0828181830895809112038130E1F734
S11302A0C1E1D3E08A819B81E1D28C819D8111D30C
S11302B0A1E1B3E01896ED91FC9119971A968C91EF
S11302C0E80FF11D60816623A1F0809115039091E0
S11302D016031FD3811107C0E1E1F3E08285815049
S11302E08287A2D7E5CFE1E1F3E082858F5F828741
S11302F0DFCFE1E1F3E0128682819381D3D294D7F8
S1130300CBCF809107038130E1F7C6E0D3E08A8147
S11303109B81ACD28C819D81DCD2A6E0B3E018969F
S1130320ED91FC9119971A968C91E80FF11D60815B
S11303306623A1F080910A0390910B03EAD2811104
S113034007C0E6E0F3E08285815082876DD7E5CF70
S1130350E6E0F3E082858F5F8287DFCFE6E0F3E0BB
S11303601286828193819ED25FD7CBCF8091FC028B
S11303708130E1F7CBEFD2E08A819B8177D28C8107
S11303809D81A7D2ABEFB2E01896ED91FC9119973D
S11303901A968C91E80FF11D60816623A1F080917B
S11303A0FF0290910003B5D2811107C0EBEFF2E098
S11303B082858150828738D7E5CFEBEFF2E08285E2
S11303C08F5F8287DFCFEBEFF2E012868281938129
S11303D069D22AD7CBCF8091F1028130E1F7C0EF07
S11303E0D2E08A819B8142D28C819D8172D2A0EF1E
S11303F0B2E01896ED91FC9119971A968C91E80F3A
S1130400F11D60816623A1F08091F4029091F502C0
S113041080D2811107C0E0EFF2E0828581508287AB
S113042003D7E5CFE0EFF2E082858F5F8287DFCFED
S1130430E0EFF2E012868281938134D2F5D6CBCFFD
S11304408091E9029091EA024CD2182F8133D9F4B9
S11304508091E9029091EA02FC012181222389F032
S113046040D2182FC1E1D3E04F816E818CE493E038
S1130470B8D4612F8CE493E0CBD58F818F5F8F83C9
S1130480E7CF109218031233E1F48091E9029091BE
S1130490EA02FC012181222389F023D2182FC6E02D
S11304A0D3E04F816E818CE493E09BD4612F8CE484
S11304B093E0AED58F818F5F8F83E7CF10920D03CA
S11304C001C0B2D6B1D6BCCF8091DE029091DF02DA
S11304D008D2182F8333D9F48091DE029091DF0281
S11304E0FC012181222389F0FCD1182FCBEFD2E02B
S11304F04F816E818CE493E074D4612F8CE493E09B
S113050087D58F818F5F8F83E7CF109202031433D7
S1130510E1F48091DE029091DF02FC01218122232B
S113052089F0DFD1182FC0EFD2E04F816E818CE4C7
S113053093E057D4612F8CE493E06AD58F818F5F69
S11305408F83E7CF1092F70201C06ED66DD6BCCF71
S1130550BF92CF92DF92EF92FF920F931F93CF93AC
S1130560DF93019709F0B2C06F3F7F4F09F0AEC02F
S113057020E040E069E08CE593E08FD220E04FEF8B
S113058060E086E593E089D22FE849E062E08CE4FC
S113059093E00BD5E12CF12C00E010E020E030E0FA
S11305A045E051E061E08AE393E00E947A0F109203
S11305B03903109238030F2EFAE2CF2EF3E0DF2E28
S11305C0F02DF601138212821182BB24B394B082FF
S11305D0CCE1D3E01B821A821982B88264E08CE4F5
S11305E091E068D5E1E1F3E0808311820F2EF9E315
S11305F0EF2EF3E0FF2EF02DF382E282D582C48247
S113060084E292E09187808716821782128664E0E2
S113061081E891E04FD5E6E0F3E080831182F38234
S1130620E282D582C4828CE192E091878087B6828F
S11306301782128664E086EB91E03CD5EBEFF2E0A2
S11306408083118208E313E013830283D583C48378
S113065089E092E09187808782E086831782128600
S113066064E08BEE91E026D5E0EFF2E08083118226
S113067013830283D583C48381E192E091878087C9
S113068083E086831782128664E080E292E012D5CA
S1130690E5EEF2E08083B182F382E282D582C48205
S11306A01186108616821782128664E084E692E030
S11306B001D5EAEDF2E08083B18213830283D5830E
S11306C0C48311861086168217821286DF91CF9119
S11306D01F910F91FF90EF90DF90CF90BF900895FE
S11306E0CF93DF93EC01888174D5811105C0888193
S11306F04CD581E0898303C08881C2D51982DF91FA
S1130700CF9108952FB7F89481E08823B9F0ECE5F0
S1130710F3E08481809595819F3F31F4E0915E03FD
S1130720F0915F03908106C0E0915E03F0915F0356
S113073090819095C82FC92380E0E7CF2FBFC09345
S113074068038091680380958F3E11F138F48F3BE4
S113075071F18F3D21F18F37A9F631C08B3F81F0C4
S113076018F4873F89F0CECF8D3F31F08E3F51F69C
S113077081E193E0B5DFC6CF86E093E0B1DFC2CF7D
S11307808BEF92E0ADDFBECF80EF92E0A9DFBACF6E
S1130790E5E6F3E081E0808382838183B3CFE5E6FD
S11307A0F3E081E0808383E082838183ABCFE2E660
S11307B0F3E081E0808382E082838183A3CFE2E659
S11307C0F3E081E0808384E0828381839BCFEE2405
S11307D0EA9400E010E020E030E040E050E064EF14
S11307E071E08AE393E00E94571060E082E893E0AE
S11307F061D440E060E08CE493E0F3D28CE493E0D5
S113080038D42FB7F89481E001C080E08823B9F090
S113081080915B038F3F39F4E0915803F0915903C1
S113082082811282F2CFA6E5B3E01296ED91FC919B
S11308301397928114968C91892B8283E6CF2FBFD4
S1130840809111031DD5809106031AD58091FB0276
S113085017D58091F00214D560E070E081E0CED429
S11308606FEF7FEF81E090E073CE08951F93CF93F5
S1130870DF93EC0118812CD5181781F08881882327
S113088021F026D528D5D0D4F5CF1FB7F894888188
S1130890811102C01DD588831FBFECCFDF91CF919A
S11308A01F9108950F931F93CF93DF93EC011FB70C
S11308B0F89408810DD5081303C01882C1E001C063
S11308C0C0E01FBFB1D48C2FDF91CF911F910F9146
S11308D00895FC018FB7F8941382128211828FBF9E
S11308E00895FC013FB7F8949181911102C080E012
S11308F00EC0838121E0280F2383DF01A80FB11DDF
S113090014968C91915091832A3008F013823FBF42
S11309100895FC012FB7F89491819A30A0F080815A
S1130920813071F083818F5F8A3010F483830BC030
S113093013828FEF890F818306C0128281E001C088
S113094080E02FBF0895828191E0980F9283DF01A8
S1130950A80FB11D14966C9381818F5F81839A30A7
S113096060F781E0EECFDC012FB7F8941296ED9199
S1130970FC91139714969C91149715968C918F3F24
S113098009F06095692362832FBF0895FC012FB796
S1130990F89485818F3F59F4A281B38112968C918A
S11309A0129794816923682B12966C930BC0A281D1
S11309B0B38112969C911297848189236095682350
S11309C012966C932FBF0895FC012FB7F89485817C
S11309D08F3F61F4A281B38112969C911297848116
S11309E089236095682312966C930AC0A281B3810F
S11309F012969C91129784816823692B12966C93AA
S1130A002FBF0895DC012FB7F8941296ED91FC9155
S1130A101397928114968C916823692762832FBF60
S1130A200895FC012FB7F89484818095682385810B
S1130A308F3F29F40280F381E02D808106C002807B
S1130A40F381E02D9081892F80952FBF862308950F
S1130A50EF92FF921F93CF93DF937C01D62F1FB7A2
S1130A60F894D70114966C9114976095ED91FC91CC
S1130A700084F185E02DC7011995C82F80958D2339
S1130A8009F4D2D31FBF8C2F8D2349F38C2FDF9110
S1130A90CF911F91FF90EF9008950F931F93CF93E1
S1130AA0DF938C01862FD42FC22F27E332E0D801A5
S1130AB02D933C930E946B12F80193838283D48319
S1130AC0C583009749F0DC011196DC930280F38121
S1130AD0E02DCD2BC095C283DF91CF911F910F9153
S1130AE008951F920F920FB60F9211240BB60F9216
S1130AF02F933F934F935F936F937F938F939F9322
S1130B00AF93BF93EF93FF938091690390916A032E
S1130B10009739F0DC01ED91FC910484F585E02D1A
S1130B201995FF91EF91BF91AF919F918F917F9113
S1130B306F915F914F913F912F910F900BBE0F904A
S1130B400FBE0F901F9018951F920F920FB60F9221
S1130B5011240BB60F922F933F934F935F936F9390
S1130B607F938F939F93AF93BF93EF93FF93809162
S1130B706D0390916E03009739F0DC01ED91FC91C7
S1130B800484F585E02D1995FF91EF91BF91AF9104
S1130B909F918F917F916F915F914F913F912F9191
S1130BA00F900BBE0F900FBE0F901F9018951F92C1
S1130BB00F920FB60F9211240BB60F922F933F93FF
S1130BC04F935F936F937F938F939F93AF93BF9351
S1130BD0EF93FF9380916B0390916C03009739F02E
S1130BE0DC01ED91FC910484F585E02D1995FF91CC
S1130BF0EF91BF91AF919F918F917F916F915F9191
S1130C004F913F912F910F900BBE0F900FBE0F90FD
S1130C101F901895CF93DF93FC016FB7F894A281CE
S1130C20B3811C92A281B381119780EF8C93A2812E
S1130C30B3818C9180628C9381E090E0A281B38136
S1130C404C919C01018402C0220F331F0A94E2F7E5
S1130C5024272C9325E02A95F1F70000A281B38183
S1130C60ED01229728812295207F3C91AC010184DB
S1130C7002C0440F551F0A94E2F743274C933AE00D
S1130C803A95F1F700C0A281B3813C91AC01018493
S1130C9002C0440F551F0A94E2F743274C9335E0F2
S1130CA03A95F1F70000A281B381ED0122973881D2
S1130CB03C91AC01018402C0440F551F0A94E2F731
S1130CC043274C9322230CF4B9CFA281B3818C9196
S1130CD08F7D8C930280F381E02D31978FEF808399
S1130CE06FBFDF91CF910895FC014FB7F894A281B3
S1130CF0B3815C9121E030E0C901018402C0880F16
S1130D00991F0A94E2F785278C9385E08A95F1F779
S1130D100000A281B3818C91018402C0220F331F91
S1130D200A94E2F728272C934FBF0895EF92FF927D
S1130D300F931F93CF93DF93EC01062F8C8189309F
S1130D4011F0CE0167DF1FB7F894E02EF12CF59473
S1130D50E794F594E794F594E794F594E794EA819D
S1130D60FB81E082CE01C0DF0F70EA81FB8100834A
S1130D70CE01BADFEA81FB8110828C81893031F5A2
S1130D8087EC90E00197F1F700C000001FC01985BF
S1130D90143011F084E001C087E08987FFB6F8942D
S1130DA0EA81FB81E082CE019FDFEA81FB8100833F
S1130DB0CE019ADFEA81FB811082198787EC90E0EB
S1130DC00197F1F700C00000FFBE04C01FBF8C8173
S1130DD08930E9F2DF91CF911F910F91FF90EF904D
S1130DE00895CF93DF93FC01A581B6818C91681798
S1130DF0F0F411968C9111974817D8F440876783C3
S1130E00ED01C60FD11D8A81480F8481893039F4E0
S1130E108C918695681718F087E0818702C084E07A
S1130E208187CF01642F606881DF81E003C080E0A7
S1130E3001C080E0DF91CF910895FC01908581E0AD
S1130E40890F8087A581B68111962C9111978217FD
S1130E5088F08181882349F0108687818F5F87839A
S1130E609C91891718F0178201C09087408567818B
S1130E70CF01B7CF08951F93CF93DF93EC01162FC3
S1130E802FEF81EE94E0215080409040E1F700C0C4
S1130E900000EA81FB8183E08083CE0125DF8FE1BE
S1130EA09EE40197F1F700C00000CE011DDF8FE141
S1130EB09EE40197F1F700C00000CE0115DF8FE139
S1130EC09EE40197F1F700C00000EA81FB8182E013
S1130ED08083CE0109DF8FE19EE40197F1F700C022
S1130EE00000612FCE0122DFED81FE8180818130FF
S1130EF021F460E2CE011ADF03C068E2CE0116DFFE
S1130F0061E0CE0113DF8C81893031F48FE19EE4FE
S1130F100197F1F700C0000066E0CE0107DF8C8185
S1130F20893009F03EC087E08987EA81FB8183E04C
S1130F308083CE01D9DE8FE19EE40197F1F700C0F2
S1130F400000CE01D1DE8FE19EE40197F1F700C0ED
S1130F500000CE01C9DE8FE19EE40197F1F700C0E5
S1130F600000EA81FB8182E08083CE01BDDE8FE157
S1130F709EE40197F1F700C00000612FCE01D6DE98
S1130F8068E2CE01D3DE61E0CE01D0DE8FE19EE4E3
S1130F900197F1F700C0000066E0CE01C7DE84E0EF
S1130FA08987DF91CF911F9108950F931F93CF935A
S1130FB0DF93EC01862F042F122F0E946B129C01E9
S1130FC02E5F3F4F3B832A8324E029870C83402FE5
S1130FD050E09A01220F331F420F531F440F551F35
S1130FE04D5B5D4F5E834D8318861F82212F221F28
S1130FF02227221F29832FEFFC012183612F6F7782
S11310006883CE0138DFDF91CF911F910F9108954E
S11310100F931F93CF93DF93EC01162F8C818930AC
S113102011F0CE01F7DD0FB7F894812F82958F7000
S11310308064EA81FB818083CE0156DE1F701064D8
S1131040EA81FB811083CE014FDEEA81FB811082AD
S11310508C81893031F487EC90E00197F1F700C07E
S113106000000FBFCE01E9DEDF91CF911F910F91F8
S11310700895CF93DF93EC0161E058DE8C818930D1
S113108031F48FE19EE40197F1F700C00000188667
S11310901F8284E08987DF91CF910895789483B784
S11310A0817F83BF83B7816083BF889583B78E7F39
S11310B083BFF4CF782F809108028F3F39F5E1EB9D
S11310C0F6E02EED3CE18083E55DFC4F2E173F07F3
S11310D0D1F74FB7F894E6E8F3E0108284E0828316
S11310E08383148215821682178281E081832EE421
S11310F038E02093B0063093AF061092AE062DE888
S113110036E032872187109208024FBF5FB7F89408
S11311102091B1062F3F51F0ECEDF9E022E030E0F0
S1131120822FD90140814F3F31F503C0A1E0B0E0E7
S113113081E0EBE2F3E0AE9F9001AF9F300DBE9FE4
S1131140300D1124F901EA57FC4F808362836383D5
S1131150148215821682178241E04183DF01A65D65
S1131160BC4F7C9311979C9311971C922357394F32
S11311703287218708C02F5F3F4FE55DFC4F283041
S1131180310571F68FEF5FBF08959FEF980F973089
S1131190F8F44FB7F89490E02BE233E0829FF0012B
S11311A0839FF00D929FF00D1124EA57FC4F20818C
S11311B02F3F69F02BE233E0829FF001839FF00D13
S11311C0929FF00D1124EA57FC4F81E081834FBFB9
S11311D008959FEF980F973078F42BE233E0829FC5
S11311E0F001839FF00D1124EA57FC4F81E09181B7
S11311F0923019F480E0089580E008958093740398
S113120070937303609372036FE070E085E793E07B
S11312100E94CF111092080210928703789485E7F8
S113122093E00E94A311FFCF80917403813061F495
S1131230789483B7817F83BF83B7816083BF8895A8
S113124083B78E7F83BF089585E793E00E94A3113F
S1131250909108022BE233E0929FF001939FF00DEE
S11312601124EA57FC4F4481558166817781480FE8
S1131270511D611D711D44835583668377830895D1
S11312809FEF980F9730F0F46FB7F894282F30E061
S11312904BE253E0249FF001259FF00D349FF00DA5
S11312A01124EA57FC4F90819F3F59F0249FF0018D
S11312B0259FF00D349FF00D1124EA57FC4F92E066
S11312C091836FBF90910802891301C0ADCF089537
S11312D080910802089520917103283099F1222306
S11312E029F09091000289130BC0089580930002A5
S11312F010926F0381E080937003809371030895CB
S1131300E1E0F2E048E052E091918917D9F0E41766
S1131310F507D1F7E0917003E83048F080930002BC
S113132081E0809370032F5F20937103089591E00F
S11313309E0F90937003F0E0E050FE4F80832F5F88
S1131340209371030895909171039923A9F020913A
S11313506F03E22FF0E0E050FE4F80813FEF3083D7
S11313609150909371032F5F283018F420936F03EA
S1131370089510926F0308958FEF0895FF93EF93EC
S1131380DF93CF93BF93AF939F938F937F936F9389
S11313905F934F933F932F931F930F93FF92EF927B
S11313A0DF92CF92BF92AF929F928F927F926F9271
S11313B05F924F923F922F921F920F92C091080218
S11313C02C2F30E08FB74BE253E0249FF001259F90
S11313D0F00D349FF00D1124EA57FC4F80878DB730
S11313E09EB79287818784819581A681B7818F5129
S11313F09F4FAF4FBF4F84839583A683B78381816B
S113140081110DC08BE293E0289FF001299FF00D1C
S1131410389FF00D1124EA57FC4F81E0818393DF5C
S11314208F3F19F08093080241C08C2F4BE253E0A8
S11314308F5F883008F081E0282F30E0249FF0018E
S1131440259FF00D349FF00D1124EA57FC4F918134
S1131450913041F5249FF001259FF00D349FF00D4C
S11314601124EA57FC4F9381992361F0249FF001E2
S1131470259FF00D349FF00D1124EA57FC4F915035
S11314809383D6CF4BE253E0249FF001259FF00DC8
S1131490349FF00D1124EA57FC4F9281938380937B
S11314A0080204C08C13C4CF1092080220910802D1
S11314B08BE293E0289FF001299FF00D1124EA5755
S11314C0FC4F11829FB7F8944091770350917803B1
S11314D02091B7023091B8024217530751F4E5E75F
S11314E0F3E0A481B5818C9185608C93808986BD5D
S11314F00AC0E5E7F3E0A481B5818C9187608C9301
S113150080898093B2009FBF209108028BE293E010
S1131510289FF001299FF00D1124EA57FC4F2085E4
S11315202FBF20910802289FF001299FF00D11245C
S1131530EA57FC4F818592859EBF8DBF0F901F9007
S11315402F903F904F905F906F907F908F909F90DF
S1131550AF90BF90CF90DF90EF90FF900F911F91CD
S11315602F913F914F915F916F917F918F919F91B7
S1131570AF91BF91CF91DF91EF91FF91189560E00A
S113158085E793E0BCC60895CF93DF93EC01E8852B
S1131590F985309709F019958A859B85892B39F44B
S11315A0E881F9810190F081E02DCE011995DF9158
S11315B0CF910895CF93DF93EC01EA85FB853097B3
S11315C009F019958E859F85892B39F4E881F98175
S11315D00190F081E02DCE011995DF91CF9108950E
S11315E00895CF93DF93EC01EE85FF85309709F0E2
S11315F01995E881F9810190F081E02DCE011995CA
S1131600DF91CF910895DC012FB7F89412964D9194
S11316105C9113978091B7029091B80248175907CB
S113162059F41496ED91FC9115978081856080831F
S113163050968C9186BD0BC01496ED91FC91159734
S113164090819760908350968C918093B2002FBFC5
S11316500895CF93DF93EC01E885F985309709F07D
S113166019958A859B85892B39F4E881F981019044
S1131670F081E02DCE011995DF91CF910895CF939C
S1131680DF93EC01EA85FB85309709F019958C8589
S11316909D85892B39F4E881F9810190F081E02D51
S11316A0CE011995DF91CF910895CF93DF93EC018B
S11316B0EC85FD85309709F019958E859F85892BDA
S11316C039F4E881F9810190F081E02DCE0119957A
S11316D0DF91CF910895CF93DF93EC01EE85FF85E1
S11316E0309709F01995E881F9810190F081E02D96
S11316F0CE011995DF91CF910895FFCF1F920F92DC
S11317000FB60F9211240BB60F922F933F934F9362
S11317105F936F937F938F939F93AF93BF93EF9355
S1131720FF938091DE1C9091DF1C009739F0DC015F
S1131730ED91FC910280F381E02D1995FF91EF91D9
S1131740BF91AF919F918F917F916F915F914F91D5
S11317503F912F910F900BBE0F900FBE0F901F90D3
S113176018951F920F920FB60F9211240BB60F9279
S11317702F933F934F935F936F937F938F939F9395
S1131780AF93BF93EF93FF938091DE1C9091DF1C86
S1131790009739F0DC01ED91FC910480F581E02D96
S11317A01995FF91EF91BF91AF919F918F917F9187
S11317B06F915F914F913F912F910F900BBE0F90BE
S11317C00FBE0F901F9018951F920F920FB60F9295
S11317D011240BB60F922F933F934F935F936F9304
S11317E07F938F939F93AF93BF93EF93FF938091D6
S11317F0E21C9091E31C009739F0DC01ED91FC911F
S11318000280F381E02D1995FF91EF91BF91AF9183
S11318109F918F917F916F915F914F913F912F9104
S11318200F900BBE0F900FBE0F901F9018951F9234
S11318300F920FB60F9211240BB60F922F933F9372
S11318404F935F936F937F938F939F93AF93BF93C4
S1131850EF93FF938091E21C9091E31C009739F081
S1131860DC01ED91FC910480F581E02D1995FF9147
S1131870EF91BF91AF919F918F917F916F915F9104
S11318804F913F912F910F900BBE0F900FBE0F9071
S11318901F9018951F920F920FB60F9211240BB63A
S11318A00F922F933F934F935F936F937F938F93F5
S11318B09F93AF93BF93EF93FF938091E01C90911C
S11318C0E11C009739F0DC01ED91FC910280F38179
S11318D0E02D1995FF91EF91BF91AF919F918F9159
S11318E07F916F915F914F913F912F910F900BBE1C
S11318F00F900FBE0F901F9018951F920F920FB666
S11319000F9211240BB60F922F933F934F935F9333
S11319106F937F938F939F93AF93BF93EF93FF93B3
S11319208091E01C9091E11C009739F0DC01ED916D
S1131930FC910480F581E02D1995FF91EF91BF9101
S1131940AF919F918F917F916F915F914F913F9153
S11319502F910F900BBE0F900FBE0F901F901895F4
S11319601F920F920FB60F9211240BB60F922F9362
S11319703F934F935F936F937F938F939F93AF9313
S1131980BF93EF93FF938091E01C9091E11C00972B
S113199039F0DC01ED91FC910680F781E02D199579
S11319A0FF91EF91BF91AF919F918F917F916F9133
S11319B05F914F913F912F910F900BBE0F900FBEEF
S11319C00F901F9018951F920F920FB60F9211242B
S11319D00BB60F922F933F934F935F936F937F9325
S11319E08F939F93AF93BF93EF93FF938091E01CEA
S11319F09091E11C009739F0DC01ED91FC91008499
S1131A00F185E02D1995FF91EF91BF91AF919F91D1
S1131A108F917F916F915F914F913F912F910F9093
S1131A200BBE0F900FBE0F901F9018951F920F9230
S1131A300FB60F9211240BB60F922F933F934F932F
S1131A405F936F937F938F939F93AF93BF93EF9322
S1131A50FF938091E41C9091E51C009739F0DC0120
S1131A60ED91FC910280F381E02D1995FF91EF91A6
S1131A70BF91AF919F918F917F916F915F914F91A2
S1131A803F912F910F900BBE0F900FBE0F901F90A0
S1131A9018951F920F920FB60F9211240BB60F9246
S1131AA02F933F934F935F936F937F938F939F9362
S1131AB0AF93BF93EF93FF938091E41C9091E51C47
S1131AC0009739F0DC01ED91FC910480F581E02D63
S1131AD01995FF91EF91BF91AF919F918F917F9154
S1131AE06F915F914F913F912F910F900BBE0F908B
S1131AF00FBE0F901F9018951F920F920FB60F9262
S1131B0011240BB60F922F933F934F935F936F93D0
S1131B107F938F939F93AF93BF93EF93FF938091A2
S1131B20E41C9091E51C009739F0DC01ED91FC91E7
S1131B300680F781E02D1995FF91EF91BF91AF9148
S1131B409F918F917F916F915F914F913F912F91D1
S1131B500F900BBE0F900FBE0F901F9018951F9201
S1131B600F920FB60F9211240BB60F922F933F933F
S1131B704F935F936F937F938F939F93AF93BF9391
S1131B80EF93FF938091E41C9091E51C009739F04A
S1131B90DC01ED91FC910084F185E02D1995FF9114
S1131BA0EF91BF91AF919F918F917F916F915F91D1
S1131BB04F913F912F910F900BBE0F900FBE0F903E
S1131BC01F9018951F920F920FB60F9211240BB607
S1131BD00F922F933F934F935F936F937F938F93C2
S1131BE09F93AF93BF93EF93FF938091E61C9091E3
S1131BF0E71C009739F0DC01ED91FC910280F38140
S1131C00E02D1995FF91EF91BF91AF919F918F9125
S1131C107F916F915F914F913F912F910F900BBEE8
S1131C200F900FBE0F901F9018951F920F920FB632
S1131C300F9211240BB60F922F933F934F935F9300
S1131C406F937F938F939F93AF93BF93EF93FF9380
S1131C508091E61C9091E71C009739F0DC01ED912E
S1131C60FC910480F581E02D1995FF91EF91BF91CE
S1131C70AF919F918F917F916F915F914F913F9120
S1131C802F910F900BBE0F900FBE0F901F901895C1
S1131C901F920F920FB60F9211240BB60F922F932F
S1131CA03F934F935F936F937F938F939F93AF93E0
S1131CB0BF93EF93FF938091E61C9091E71C0097EC
S1131CC039F0DC01ED91FC910680F781E02D199546
S1131CD0FF91EF91BF91AF919F918F917F916F9100
S1131CE05F914F913F912F910F900BBE0F900FBEBC
S1131CF00F901F9018951F920F920FB60F921124F8
S1131D000BB60F922F933F934F935F936F937F93F1
S1131D108F939F93AF93BF93EF93FF938091E61CB0
S1131D209091E71C009739F0DC01ED91FC9100845F
S1131D30F185E02D1995FF91EF91BF91AF919F919E
S1131D408F917F916F915F914F913F912F910F9060
S1131D500BBE0F900FBE0F901F9018951F920F92FD
S1131D600FB60F9211240BB60F922F933F934F93FC
S1131D705F936F937F938F939F93AF93BF93EF93EF
S1131D80FF938091E81C9091E91C009739F0DC01E5
S1131D90ED91FC910280F381E02D1995FF91EF9173
S1131DA0BF91AF919F918F917F916F915F914F916F
S1131DB03F912F910F900BBE0F900FBE0F901F906D
S1131DC018951F920F920FB60F9211240BB60F9213
S1131DD02F933F934F935F936F937F938F939F932F
S1131DE0AF93BF93EF93FF938091E81C9091E91C0C
S1131DF0009739F0DC01ED91FC910480F581E02D30
S1131E001995FF91EF91BF91AF919F918F917F9120
S1131E106F915F914F913F912F910F900BBE0F9057
S1131E200FBE0F901F9018951F920F920FB60F922E
S1131E3011240BB60F922F933F934F935F936F939D
S1131E407F938F939F93AF93BF93EF93FF9380916F
S1131E50E81C9091E91C009739F0DC01ED91FC91AC
S1131E600680F781E02D1995FF91EF91BF91AF9115
S1131E709F918F917F916F915F914F913F912F919E
S1131E800F900BBE0F900FBE0F901F9018951F92CE
S1131E900F920FB60F9211240BB60F922F933F930C
S1131EA04F935F936F937F938F939F93AF93BF935E
S1131EB0EF93FF938091E81C9091E91C009739F00F
S1131EC0DC01ED91FC910084F185E02D1995FF91E1
S1131ED0EF91BF91AF919F918F917F916F915F919E
S1131EE04F913F912F910F900BBE0F900FBE0F900B
S1131EF01F9018959F92AF92BF92CF92DF92EF926C
S1131F00FF920F931F93CF93DF93EC01962E5A0108
S1131F10690183E892E099838883862F00D39B83A9
S1131F208A83E92DF0E0EE0FFF1FE954FD4F808115
S1131F30918101969D838C838DEA92E099838883B5
S1131F4081E0981226C0D093E11CC093E01CA11438
S1131F50B10429F0EFE6F0E0808182608083C1144F
S1131F60D10429F0EFE6F0E08081846080830115DC
S1131F70110529F0EFE6F0E0808188608083E114A8
S1131F80F10409F47EC0EFE6F0E080818160808393
S1131F9078C083E0981226C0D093E51CC093E41C5B
S1131FA0A114B10429F0E1E7F0E08081826080832C
S1131FB0C114D10429F0E1E7F0E0808184608083DA
S1131FC00115110529F0E1E7F0E080818860808344
S1131FD0E114F10409F455C0E1E7F0E08081816087
S1131FE080834FC084E0981225C0D093E71CC0932F
S1131FF0E61CA114B10429F0E2E7F0E080818260DC
S11320008083C114D10429F0E2E7F0E08081846088
S113201080830115110529F0E2E7F0E080818860F2
S11320208083E114F10469F1E2E7F0E080818160EA
S1132030808327C085E098122EC0D093E91CC093FA
S1132040E81CA114B10429F0E3E7F0E08081826088
S11320508083C114D10429F0E3E7F0E08081846037
S113206080830115110529F0E3E7F0E080818860A1
S11320708083E114F10429F0E3E7F0E080818160DA
S11320808083B986A886DB86CA861D870C87FF866F
S1132090EE861E821F82DF91CF911F910F91FF90D8
S11320A0EF90DF90CF90BF90AF909F900895EF9204
S11320B0FF920F931F93CF93DF93FC01FFB6F89425
S11320C0A481B5818C91887F8C93A481B5818C91F6
S11320D085608C93A62FB72FA23181E1B80710F049
S11320E0A1E1B1E18FE08A9FE0018B9FD00D112423
S11320F0642F752F623181E1780710F061E171E19D
S11321008FE0869FD001879FB00D1124422F532F5B
S1132110423181E1580710F041E151E18FE0849FA1
S1132120B001859F700D1124202F312F223181E1C0
S1132130380710F021E131E18FE0829FA001839FF5
S1132140500D1124518B408B828193812091B902CF
S11321503091BA028217930789F4D0938900C0930F
S11321608800B0938B00A0938A0070938D006093D5
S11321708C00509385004093840040C02091BD02A0
S11321803091BE028217930789F4D0939900C093CB
S11321909800B0939B00A0939A0070939D00609365
S11321A09C00509395004093940028C02091BF0256
S11321B03091C0028217930789F4D093A900C09389
S11321C0A800B093AB00A093AA007093AD006093F5
S11321D0AC005093A5004093A40010C0D0932901F3
S11321E0C0932801B0932B01A0932A0170932D0171
S11321F060932C015093250140932401E68281E0F1
S11322008783FFBEDF91CF911F910F91FF90EF90D5
S11322100895BF92CF92DF92EF92FF920F931F9394
S1132220CF93DF93EC01B62E6A01790183E892E043
S113223099838883862F73D19B838A83EB2DF0E067
S1132240EE0FFF1FE954FD4F8081918101969D831C
S11322508C8381E992E099838883B1101DC0D09367
S1132260DF1CC093DE1CC114D10429F0EEE6F0E0BB
S1132270808182608083E114F10429F0EEE6F0E0CD
S11322808081846080830115110529F1EEE6F0E078
S11322908081816080831FC082E0B81226C0D09301
S11322A0E31CC093E21CC114D10429F0E0E7F0E080
S11322B0808182608083E114F10429F0E0E7F0E09A
S11322C08081846080830115110529F0E0E7F0E046
S11322D0808181608083D986C886FB86EA861D86D4
S11322E01C861F870E871E821F82DF91CF911F914C
S11322F00F91FF90EF90DF90CF90BF900895EF92F1
S1132300FF920F931F93CF937C01C62F00E010E040
S113231020E030E040E050E07CDF8FE992E0F7011C
S113232091838083C11104C081E080936E0005C055
S1132330C23019F481E080937000CF911F910F9106
S1132340FF90EF900895DC012FB7F89483B7817F55
S113235083BF12964D915C9113978091B70290912F
S1132360B8024817590721F486B59FEF96BD05C0FA
S1132370E2EBF0E080819FEF90831496ED91FC9165
S1132380159791E090832FBF93B7916093BF889581
S113239093B79E7F93BF50969C91891B0895FC012F
S11323A04FB7F894A481B5818C91887F8C93862F44
S11323B0972F8231910510F081E190E0982F990FC9
S11323C0890F982F990F990F890F8095808B2281FF
S11323D033818091B7029091B8022817390741F4EC
S11323E0A481B5818C9185608C93808986BD08C059
S11323F0A481B5818C9187608C9380898093B2008D
S11324008FEF868381E087834FBF0895FC019FB7D8
S1132410F894A481B5818C91887F8C93168217825D
S11324209FBF0895FC0186818230B8F18F3F11F07F
S113243081508683828193812091B9023091BA02BE
S11324408217930739F4808991899093850080934A
S1132450840008952091BD023091BE028217930733
S113246039F480899189909395008093940008951C
S11324702091BF023091C0028217930739F48089FA
S113248091899093A5008093A400089580899189EF
S113249090932501809324010895CF01B7CF089527
S11324A0FC0186818230A0F08F3F11F08150868339
S11324B0228133818091B7029091B802281739079D
S11324C019F4808986BD089580898093B2000895A7
S11324D0CF019CCF0895282F30E041E050E0BA01AD
S11324E002C0660F771F8A95E2F7CB014091EB1C7F
S11324F05091EC1C64237523672B71F4842B952B6A
S11325009093EC1C8093EB1C220F331FF901ED53C5
S1132510FD4F80819181089580E090E0089560915D
S1132520EA1C282F30E0462F50E0082E02C05595B3
S113253047950A94E2F740FD14C041E050E0FA01E7
S113254002C0EE0FFF1F8A95E2F7CF01862B80931E
S1132550EA1C220F331FF901E954FD4F8081918158
S1132560089580E090E00895EE0FFF1F881F8BBF51
S10F25700790F691E02D1994F894FFCF29
S113257CFFFFFFFFFFFFFFFFFF334C414C414C417A
S113258C00344E6F69636521203A2900324142437D
S113259C44454600314C69746572616C6C797465A0
S11325AC78740000000000B304C604E404020511AE
S11325BC05280501140000000001180000000001AA
S11325CC280000000002100040000002140040002B
S11325DC0002180040000002280040000004100013
S11325EC40105004140040105004280040004000D7
S11325FC0000007D0B7D0B7D0B7D0B7D0B00000023
S113260C005012C40ADA0AF00AF10A0000000003AE
S113261C0BC40ADA0AF00AF10A00000000121229AB
S113262C0B3F0B550B6B0B44008000B0009000A0CB
S113263C00200120002300260029002C002F00324A
S10D264C000001030106010901006A
S9030000FC
