:1000000086C00000FCC00000FAC00000F8C000007C
:10001000F6C00000F4C00000F2C00000F0C0000014
:10002000EEC00000C5C30000F6C3000027C40000F6
:10003000E6C000000C94BE090C94F109E0C0000079
:10004000DEC000000C94240A0C94570A0C948A0A0F
:100050000C94BD0A0C9458090C948B0969C70000D4
:10006000CEC00000CCC00000CAC00000C8C0000064
:10007000C6C00000C4C00000C2C00000C0C0000074
:100080000C94F00A0C94230B0C94560B0C94890BD3
:10009000B6C00000B4C00000B2C00000B0C0000094
:1000A000AEC00000ACC000000C94BC0B0C94EF0B75
:1000B0000C94220C0C94550CA2C000000C94880CDB
:1000C0000C94BB0C0C94EE0C0C94210D98C0000009
:1000D00096C0000094C0000092C0000090C00000D4
:1000E0008EC00000454E44202020005354415254FD
:1000F00020004E4F524D414C0050686173653A20CC
:100100000053746174653A200000B003990814BE6E
:100110000FB6F894A8958091600088618093600084
:10012000109260000FBE14BE0FB6F894A89580918F
:100130006000886180936000109260000FBE14BE62
:100140000FB6F894A8958091600088618093600054
:10015000109260000FBE14BE0FB6F894A89580915F
:100160006000886180936000109260000FBE14BE32
:100170000FB6F894A8958091600088618093600024
:10018000109260000FBE14BE0FB6F894A89580912F
:100190006000886180936000109260000FBE11249F
:1001A0001FBECFEFD1E2DEBFCDBF00E00CBF12E03B
:1001B000A0E0B2E0E8EBF0E200E00BBF02C0079085
:1001C0000D92A43FB107D9F72CE1A4EFB2E001C032
:1001D0001D92AF3BB207E1F710E0C7E8D0E000E0C6
:1001E00006C021970109802FFE010E945210C538D8
:1001F000D10780E00807A9F7B4D10C945A1000CFBA
:10020000EF92FF920F931F93019709F04EC06F3F3B
:100210007F4F09F04AC020E040E060E084E393E0D3
:10022000A5D220E04FEF61E080E393E09FD220E091
:100230004FEF62E08CE293E099D220E04FEF64E070
:1002400088E293E093D22FE845E069E08EE193E005
:1002500013D5E12CF12C00E010E020E030E04AE57D
:1002600051E061E08CE093E00E94540DE4E0F3E0A3
:1002700081E08783138296E0948320E333E0368322
:100280002583ECEFF2E0878313829FE094832CE2D6
:1002900033E036832583E4EFF2E08783138283E142
:1002A000848388E293E0968385831F910F91FF906A
:1002B000EF90089580910703813009F06DC0E4E06C
:1002C000F3E080818150808382818823B9F080911E
:1002D0000503853099F482E1818385E08083058080
:1002E000F681E02DA081B181928183818F3F11F44D
:1002F00084EA01C08BE5892312968C93E4E0F3E055
:1003000017828081811148C0809105038B31D1F41F
:10031000138212820580F681E02D83818F3F31F4B4
:100320000190F081E02D8281128209C0A081B1810B
:1003300012969C9112978281892B12968C9310921F
:100340000B032AC090E0FC01EE0FFF1F8E0F9F1FD2
:10035000FC01E75FFD4FE281A4E0B3E01196EC936E
:100360001197F0E0CF01880F991FE80FF91FE75FA1
:10037000FD4F81818C9380811596ED91FC911697AC
:10038000A081B181928123812F3F09F0809589233B
:1003900012968C9310920B038091FF02813009F02A
:1003A0006DC0ECEFF2E080818150808382818823F0
:1003B000B9F08091FD02853099F482E1818385E076
:1003C00080830580F681E02DA081B18192818381B7
:1003D0008F3F11F484EA01C08BE5892312968C9338
:1003E000ECEFF2E017828081811148C08091FD021C
:1003F0008B31D1F4138212820580F681E02D838146
:100400008F3F31F40190F081E02D8281128209C08A
:10041000A081B18112969C9112978281892B1296AC
:100420008C93109203032AC090E0FC01EE0FFF1F93
:100430008E0F9F1FFC01E75FFD4FE281ACEFB2E042
:100440001196EC931197F0E0CF01880F991FE80FF8
:10045000F91FE75FFD4F81818C9380811596ED91A7
:10046000FC911697A081B181928123812F3F09F0E1
:100470008095892312968C93109203038091F70242
:10048000813009F06DC0E4EFF2E08081815080831B
:1004900082818823B9F08091F502853099F482E158
:1004A000818385E080830580F681E02DA081B18184
:1004B000928183818F3F11F484EA01C08BE5892307
:1004C00012968C93E4EFF2E017828081811148C08C
:1004D0008091F5028B31D1F4138212820580F6816E
:1004E000E02D83818F3F31F40190F081E02D8281F6
:1004F000128209C0A081B18112969C9112978281CB
:10050000892B12968C931092FB02089590E0FC01C7
:10051000EE0FFF1F8E0F9F1FFC01E75FFD4FE28173
:10052000A4EFB2E01196EC931197F0E0CF01880FA1
:10053000991FE80FF91FE75FFD4F81818C93808140
:100540001596ED91FC911697A081B181928123813E
:100550002F3F09F08095892312968C931092FB020D
:1005600008957894EE24EA9400E010E020E030E072
:1005700040E050E068EE73E08CE093E00E94310EC2
:100580008EE193E023D440E060E08EE193E090D2EE
:1005900047E061E071E08EE193E0F4D340E061E098
:1005A0008EE193E085D247E069EF70E08EE193E061
:1005B000E9D3809133038F3F39F4E0913003F09118
:1005C0003103828112820AC0A0E3B3E0ED91FC9175
:1005D0001197928112968C91892B828380912F039F
:1005E0008F3F39F4E0912C03F0912D038281128228
:1005F0000AC0ACE2B3E0ED91FC91119792811296A2
:100600008C91892B828380912B038F3F39F4E09169
:100610002803F0912903828112820AC0A8E2B3E084
:10062000ED91FC911197928112968C91892B828386
:100630002FB7F89481E08823B9F0E4E3F3E08281F6
:10064000809593819F3F31F4E0913403F09135031D
:10065000908106C0E0913403F0913503908190952C
:10066000C82FC92380E0E7CF2FBF8C2F8095873F0D
:1006700041F128F48F3D69F18F3E39F12DC08D3F56
:1006800071F08E3F19F08B3F39F512C0E4E0F3E0D2
:1006900081E0838398E09183808317821DC0ECEF13
:1006A000F2E081E0838398E091838083178214C015
:1006B000E4EFF2E081E0838398E091838083178206
:1006C0000BC081E08093060307C081E08093FE02A7
:1006D00003C081E08093F60280910B0381113CC03E
:1006E00004E013E0F801448160E08EE193E0E0D1A2
:1006F000F801618170E020E242E08EE193E0F0D306
:10070000F8018181883068F44091080361E08EE14E
:1007100093E0CED147E062EF70E08EE193E032D318
:100720001BC0823168F04091080361E08EE193E0E4
:10073000BFD147E064EE70E08EE193E023D30CC0BC
:100740004091080361E08EE193E0B2D146E06BEEA8
:1007500070E08EE193E016D381E080930B0368CFC5
:100760006FEF7FEF81E090E04BCD08950F931F93E3
:10077000CF93DF938C01862FC42FD22F0E94E20FDC
:10078000D80111969C938E93009769F01396DC9391
:1007900013971296CC931297FC01C183ED91FC91B3
:1007A000CD2BC095C283DF91CF911F910F910895FA
:1007B0001F920F920FB60F9211240BB60F922F9328
:1007C0003F934F935F936F937F938F939F93AF93D9
:1007D000BF93EF93FF938091380390913903009773
:1007E00039F0DC01ED91FC910190F081E02D19953B
:1007F000FF91EF91BF91AF919F918F917F916F91F9
:100800005F914F913F912F910F900BBE0F900FBEB4
:100810000F901F9018951F920F920FB60F921124F0
:100820000BB60F922F933F934F935F936F937F93EA
:100830008F939F93AF93BF93EF93FF9380913C036C
:1008400090913D03009739F0DC01ED91FC9101900E
:10085000F081E02D1995FF91EF91BF91AF919F919C
:100860008F917F916F915F914F913F912F910F9059
:100870000BBE0F900FBE0F901F9018951F920F92F6
:100880000FB60F9211240BB60F922F933F934F93F5
:100890005F936F937F938F939F93AF93BF93EF93E8
:1008A000FF9380913A0390913B03009739F0DC016C
:1008B000ED91FC910190F081E02D1995FF91EF9160
:1008C000BF91AF919F918F917F916F915F914F9168
:1008D0003F912F910F900BBE0F900FBE0F901F9066
:1008E0001895CF93DF93FC016FB7F894A281B38181
:1008F0001C92A281B381119780EF8C93A281B38166
:100900008C9180628C9381E090E0A281B3814C91C4
:100910009C01018402C0220F331F0A94E2F72427AE
:100920002C9325E02A95F1F70000A281B381ED0117
:10093000229728812295207F3C91AC01018402C03E
:10094000440F551F0A94E2F743274C933AE03A9537
:10095000F1F700C0A281B3813C91AC01018402C0D7
:10096000440F551F0A94E2F743274C9335E03A951C
:10097000F1F70000A281B381ED01229738813C910B
:10098000AC01018402C0440F551F0A94E2F74327CB
:100990004C9322230CF4B9CFA281B3818C918F7D2B
:1009A0008C930280F381E02D31978FEF80836FBFAE
:1009B000DF91CF910895FC014FB7F894A281B381E4
:1009C0005C9121E030E0C901018402C0880F991FC9
:1009D0000A94E2F785278C9385E08A95F1F7000069
:1009E000A281B3818C91018402C0220F331F0A942B
:1009F000E2F728272C934FBF0895EF92FF920F93B1
:100A00001F93CF93DF93EC01062F8C81893011F077
:100A1000CE0167DF1FB7F894E02EF12CF594E79430
:100A2000F594E794F594E794F594E794EA81FB81D3
:100A3000E082CE01C0DF0F70EA81FB810083CE012E
:100A4000BADFEA81FB8110828C81893031F587EC35
:100A500090E00197F1F700C000001FC01985143025
:100A600011F084E001C087E08987FFB6F894EA813D
:100A7000FB81E082CE019FDFEA81FB810083CE0112
:100A80009ADFEA81FB811082198787EC90E0019759
:100A9000F1F700C00000FFBE04C01FBF8C81893089
:100AA000E9F2DF91CF911F910F91FF90EF900895A0
:100AB000CF93DF93FC01A581B6818C916817F0F488
:100AC00011968C9111974817D8F440876783ED01F0
:100AD000C60FD11D8A81480F8481893039F48C91E9
:100AE0008695681718F087E0818702C084E08187C7
:100AF000CF01642F606881DF81E003C080E001C026
:100B000080E0DF91CF910895FC01908581E0890F0D
:100B10008087A581B68111962C911197821788F054
:100B20008181882349F0108687818F5F87839C911C
:100B3000891718F0178201C0908740856781CF011F
:100B4000B7CF08951F93CF93DF93EC01162F2FEFAC
:100B500081EE94E0215080409040E1F700C0000019
:100B6000EA81FB8183E08083CE0125DF8FE19EE473
:100B70000197F1F700C00000CE011DDF8FE19EE478
:100B80000197F1F700C00000CE0115DF8FE19EE470
:100B90000197F1F700C00000EA81FB8182E08083C9
:100BA000CE0109DF8FE19EE40197F1F700C000005C
:100BB000612FCE0122DFED81FE818081813021F421
:100BC00060E2CE011ADF03C068E2CE0116DF61E009
:100BD000CE0113DF8C81893031F48FE19EE40197DF
:100BE000F1F700C0000066E0CE0107DF8C8189309C
:100BF00009F03EC087E08987EA81FB8183E080833A
:100C0000CE01D9DE8FE19EE40197F1F700C000002C
:100C1000CE01D1DE8FE19EE40197F1F700C0000024
:100C2000CE01C9DE8FE19EE40197F1F700C000001C
:100C3000EA81FB8182E08083CE01BDDE8FE19EE40C
:100C40000197F1F700C00000612FCE01D6DE68E207
:100C5000CE01D3DE61E0CE01D0DE8FE19EE40197CC
:100C6000F1F700C0000066E0CE01C7DE84E08987AE
:100C7000DF91CF911F9108950F931F93CF93DF932F
:100C8000EC01862F042F122F0E94E20F9C012E5F91
:100C90003F4F3B832A8324E029870C83402F50E079
:100CA0009A01220F331F420F531F440F551F435AFF
:100CB0005D4F5E834D8318861F82212F221F2227BE
:100CC000221F29832FEFFC012183612F6F77688317
:100CD000CE0138DFDF91CF911F910F9108950F93CF
:100CE0001F93CF93DF93EC01162F8C81893011F085
:100CF000CE01F7DD0FB7F894812F82958F70806455
:100D0000EA81FB818083CE0156DE1F701064EA8188
:100D1000FB811083CE014FDEEA81FB8110828C8142
:100D2000893031F487EC90E00197F1F700C00000C2
:100D30000FBFCE01E9DEDF91CF911F910F91089592
:100D4000EF92FF920F931F93CF93DF937C01442385
:100D500011F050E002C04FEF5FEFEB018B01040F89
:100D6000151F0C171D0739F06881662321F02196A5
:100D7000C701B5DFF6CFDF91CF911F910F91FF90A3
:100D8000EF900895EF92FF920F931F93CF93DF930D
:100D90007C01442319F0042F10E002C00FEF1FEF75
:100DA000060F171FFB01E017F10749F06491EF01EF
:100DB0002196662321F0C70192DFFE01F4CFDF9177
:100DC000CF911F910F91FF90EF900895CF93DF93F4
:100DD000EC0161E012DE8C81893031F48FE19EE418
:100DE0000197F1F700C0000018861F8284E0898710
:100DF000DF91CF9108958F929F92AF92BF92CF9241
:100E0000DF92EF92FF920F931F93CF93DF936C01CA
:100E1000FB01892B31F40F2EFEE3CF2EF3E0DF2E02
:100E2000F02DFF233CF48DE2D6018C93F195E195F2
:100E3000F10937C0D6012C9334C0CF01B8010E940C
:100E40002B107C018E179F0791F4353021F480E33D
:100E5000F60185831CC08881281302C029830DC038
:100E60008D3219F42883898208C0998206C0CF0187
:100E7000B8010E942B10605D6983C801B5010E9412
:100E80002B108B013F5F2196F7013630B1F6D6016A
:100E900016961C9286E090E0841B91098C0D9D1D96
:100EA00012C0E60131E000E117E20F2EF0E39F2EC1
:100EB000F02D0F2EFDE28F2EF02D0F2EFAE0AF2E2B
:100EC000B12CF02DBACFDF91CF911F910F91FF90F0
:100ED000EF90DF90CF90BF90AF909F908F9008954C
:100EE000CF93DF93EC0180E090E085DF40E0BC0130
:100EF000CE0126DFDF91CF9108959091460399238B
:100F0000A9F020914503E22FF0E0E050FE4F8081F0
:100F10003FEF30839150909346032F5F283018F4B1
:100F20002093450308951092450308958FEF089587
:100F3000FF93EF93DF93CF93BF93AF939F938F93E1
:100F40007F936F935F934F933F932F931F930F93D1
:100F5000FF92EF92DF92CF92BF92AF929F928F92C9
:100F60007F926F925F924F923F922F921F920F92B9
:100F7000C09108022C2F30E08FB74BE253E0249F42
:100F8000F001259FF00D349FF00D1124E85AFC4F1D
:100F900080878DB79EB79287818784819581A6814E
:100FA000B7818F519F4FAF4FBF4F84839583A683E7
:100FB000B783818181110DC08BE293E0289FF001FE
:100FC000299FF00D389FF00D1124E85AFC4F81E065
:100FD000818393DF8F3F19F08093080241C08C2FEB
:100FE0004BE253E08F5F883008F081E0282F30E03B
:100FF000249FF001259FF00D349FF00D1124E85A35
:10100000FC4F9181913041F5249FF001259FF00D17
:10101000349FF00D1124E85AFC4F9381992361F01D
:10102000249FF001259FF00D349FF00D1124E85A04
:10103000FC4F91509383D6CF4BE253E0249FF001B5
:10104000259FF00D349FF00D1124E85AFC4F92813A
:1010500093838093080204C08C13C4CF10920802BB
:10106000209108028BE293E0289FF001299FF00D68
:101070001124E85AFC4F11829FB7F894409149031C
:1010800050914A032091D1023091D2024217530766
:1010900051F4E7E4F3E0A481B5818C9185608C93F1
:1010A000808986BD0AC0E7E4F3E0A481B5818C9114
:1010B00087608C9380898093B2009FBF2091080243
:1010C0008BE293E0289FF001299FF00D1124E85A4C
:1010D000FC4F20852FBF20910802289FF001299FF7
:1010E000F00D1124E85AFC4F818592859EBF8DBF7B
:1010F0000F901F902F903F904F905F906F907F9038
:101100008F909F90AF90BF90CF90DF90EF90FF9027
:101110000F911F912F913F914F915F916F917F910F
:101120008F919F91AF91BF91CF91DF91EF91FF91FF
:10113000189560E087E493E0BCC60895CF93DF93F1
:10114000EC01E885F985309709F019958A859B852A
:10115000892B39F4E881F9810190F081E02DCE01ED
:101160001995DF91CF910895CF93DF93EC01EA8534
:10117000FB85309709F019958E859F85892B39F469
:10118000E881F9810190F081E02DCE011995DF9180
:10119000CF9108950895CF93DF93EC01EE85FF85FD
:1011A000309709F01995E881F9810190F081E02DDF
:1011B000CE011995DF91CF910895DC012FB7F894F6
:1011C00012964D915C9113978091D1029091D20229
:1011D0004817590759F41496ED91FC9115978081A1
:1011E0008560808350968C9186BD0BC01496ED91DE
:1011F000FC91159790819760908350968C91809385
:10120000B2002FBF0895CF93DF93EC01E885F985F5
:10121000309709F019958A859B85892B39F4E881E7
:10122000F9810190F081E02DCE011995DF91CF91E8
:101230000895CF93DF93EC01EA85FB85309709F0A1
:1012400019958C859D85892B39F4E881F981019068
:10125000F081E02DCE011995DF91CF910895CF93C4
:10126000DF93EC01EC85FD85309709F019958E85AB
:101270009F85892B39F4E881F9810190F081E02D77
:10128000CE011995DF91CF910895CF93DF93EC01B3
:10129000EE85FF85309709F01995E881F981019075
:1012A000F081E02DCE011995DF91CF910895FFCF08
:1012B0001F920F920FB60F9211240BB60F922F931D
:1012C0003F934F935F936F937F938F939F93AF93CE
:1012D000BF93EF93FF938091B01C9091B11C009746
:1012E00039F0DC01ED91FC910280F381E02D19953C
:1012F000FF91EF91BF91AF919F918F917F916F91EE
:101300005F914F913F912F910F900BBE0F900FBEA9
:101310000F901F9018951F920F920FB60F921124E5
:101320000BB60F922F933F934F935F936F937F93DF
:101330008F939F93AF93BF93EF93FF938091B01CD4
:101340009091B11C009739F0DC01ED91FC91048083
:10135000F581E02D1995FF91EF91BF91AF919F918C
:101360008F917F916F915F914F913F912F910F904E
:101370000BBE0F900FBE0F901F9018951F920F92EB
:101380000FB60F9211240BB60F922F933F934F93EA
:101390005F936F937F938F939F93AF93BF93EF93DD
:1013A000FF938091B41C9091B51C009739F0DC013B
:1013B000ED91FC910280F381E02D1995FF91EF9161
:1013C000BF91AF919F918F917F916F915F914F915D
:1013D0003F912F910F900BBE0F900FBE0F901F905B
:1013E00018951F920F920FB60F9211240BB60F9201
:1013F0002F933F934F935F936F937F938F939F931D
:10140000AF93BF93EF93FF938091B41C9091B51C61
:10141000009739F0DC01ED91FC910480F581E02D1D
:101420001995FF91EF91BF91AF919F918F917F910E
:101430006F915F914F913F912F910F900BBE0F9045
:101440000FBE0F901F9018951F920F920FB60F921C
:1014500011240BB60F922F933F934F935F936F938B
:101460007F938F939F93AF93BF93EF93FF9380915D
:10147000B21C9091B31C009739F0DC01ED91FC9106
:101480000280F381E02D1995FF91EF91BF91AF910B
:101490009F918F917F916F915F914F913F912F918C
:1014A0000F900BBE0F900FBE0F901F9018951F92BC
:1014B0000F920FB60F9211240BB60F922F933F93FA
:1014C0004F935F936F937F938F939F93AF93BF934C
:1014D000EF93FF938091B21C9091B31C009739F069
:1014E000DC01ED91FC910480F581E02D1995FF91CF
:1014F000EF91BF91AF919F918F917F916F915F918C
:101500004F913F912F910F900BBE0F900FBE0F90F8
:101510001F9018951F920F920FB60F9211240BB6C1
:101520000F922F933F934F935F936F937F938F937C
:101530009F93AF93BF93EF93FF938091B21C9091D1
:10154000B31C009739F0DC01ED91FC910680F78126
:10155000E02D1995FF91EF91BF91AF919F918F91E0
:101560007F916F915F914F913F912F910F900BBEA3
:101570000F900FBE0F901F9018951F920F920FB6ED
:101580000F9211240BB60F922F933F934F935F93BB
:101590006F937F938F939F93AF93BF93EF93FF933B
:1015A0008091B21C9091B31C009739F0DC01ED9151
:1015B000FC910084F185E02D1995FF91EF91BF9189
:1015C000AF919F918F917F916F915F914F913F91DB
:1015D0002F910F900BBE0F900FBE0F901F9018957C
:1015E0001F920F920FB60F9211240BB60F922F93EA
:1015F0003F934F935F936F937F938F939F93AF939B
:10160000BF93EF93FF938091B61C9091B71C009706
:1016100039F0DC01ED91FC910280F381E02D199508
:10162000FF91EF91BF91AF919F918F917F916F91BA
:101630005F914F913F912F910F900BBE0F900FBE76
:101640000F901F9018951F920F920FB60F921124B2
:101650000BB60F922F933F934F935F936F937F93AC
:101660008F939F93AF93BF93EF93FF938091B61C9B
:101670009091B71C009739F0DC01ED91FC9104804A
:10168000F581E02D1995FF91EF91BF91AF919F9159
:101690008F917F916F915F914F913F912F910F901B
:1016A0000BBE0F900FBE0F901F9018951F920F92B8
:1016B0000FB60F9211240BB60F922F933F934F93B7
:1016C0005F936F937F938F939F93AF93BF93EF93AA
:1016D000FF938091B61C9091B71C009739F0DC0104
:1016E000ED91FC910680F781E02D1995FF91EF9126
:1016F000BF91AF919F918F917F916F915F914F912A
:101700003F912F910F900BBE0F900FBE0F901F9027
:1017100018951F920F920FB60F9211240BB60F92CD
:101720002F933F934F935F936F937F938F939F93E9
:10173000AF93BF93EF93FF938091B61C9091B71C2A
:10174000009739F0DC01ED91FC910084F185E02DEA
:101750001995FF91EF91BF91AF919F918F917F91DB
:101760006F915F914F913F912F910F900BBE0F9012
:101770000FBE0F901F9018951F920F920FB60F92E9
:1017800011240BB60F922F933F934F935F936F9358
:101790007F938F939F93AF93BF93EF93FF9380912A
:1017A000B81C9091B91C009739F0DC01ED91FC91C7
:1017B0000280F381E02D1995FF91EF91BF91AF91D8
:1017C0009F918F917F916F915F914F913F912F9159
:1017D0000F900BBE0F900FBE0F901F9018951F9289
:1017E0000F920FB60F9211240BB60F922F933F93C7
:1017F0004F935F936F937F938F939F93AF93BF9319
:10180000EF93FF938091B81C9091B91C009739F029
:10181000DC01ED91FC910480F581E02D1995FF919B
:10182000EF91BF91AF919F918F917F916F915F9158
:101830004F913F912F910F900BBE0F900FBE0F90C5
:101840001F9018951F920F920FB60F9211240BB68E
:101850000F922F933F934F935F936F937F938F9349
:101860009F93AF93BF93EF93FF938091B81C909198
:10187000B91C009739F0DC01ED91FC910680F781ED
:10188000E02D1995FF91EF91BF91AF919F918F91AD
:101890007F916F915F914F913F912F910F900BBE70
:1018A0000F900FBE0F901F9018951F920F920FB6BA
:1018B0000F9211240BB60F922F933F934F935F9388
:1018C0006F937F938F939F93AF93BF93EF93FF9308
:1018D0008091B81C9091B91C009739F0DC01ED9112
:1018E000FC910084F185E02D1995FF91EF91BF9156
:1018F000AF919F918F917F916F915F914F913F91A8
:101900002F910F900BBE0F900FBE0F901F90189548
:101910001F920F920FB60F9211240BB60F922F93B6
:101920003F934F935F936F937F938F939F93AF9367
:10193000BF93EF93FF938091BA1C9091BB1C0097CB
:1019400039F0DC01ED91FC910280F381E02D1995D5
:10195000FF91EF91BF91AF919F918F917F916F9187
:101960005F914F913F912F910F900BBE0F900FBE43
:101970000F901F9018951F920F920FB60F9211247F
:101980000BB60F922F933F934F935F936F937F9379
:101990008F939F93AF93BF93EF93FF938091BA1C64
:1019A0009091BB1C009739F0DC01ED91FC91048013
:1019B000F581E02D1995FF91EF91BF91AF919F9126
:1019C0008F917F916F915F914F913F912F910F90E8
:1019D0000BBE0F900FBE0F901F9018951F920F9285
:1019E0000FB60F9211240BB60F922F933F934F9384
:1019F0005F936F937F938F939F93AF93BF93EF9377
:101A0000FF938091BA1C9091BB1C009739F0DC01C8
:101A1000ED91FC910680F781E02D1995FF91EF91F2
:101A2000BF91AF919F918F917F916F915F914F91F6
:101A30003F912F910F900BBE0F900FBE0F901F90F4
:101A400018951F920F920FB60F9211240BB60F929A
:101A50002F933F934F935F936F937F938F939F93B6
:101A6000AF93BF93EF93FF938091BA1C9091BB1CEF
:101A7000009739F0DC01ED91FC910084F185E02DB7
:101A80001995FF91EF91BF91AF919F918F917F91A8
:101A90006F915F914F913F912F910F900BBE0F90DF
:101AA0000FBE0F901F9018959F92AF92BF92CF924A
:101AB000DF92EF92FF920F931F93CF93DF93EC018E
:101AC000962E5A0169018DE992E099838883862FC9
:101AD0009DD29B838A83E92DF0E0EE0FFF1FEF522A
:101AE000FD4F8081918101969D838C8387EC92E0EC
:101AF0009983888381E0981226C0D093B31CC09349
:101B0000B21CA114B10429F0EFE6F0E080818260FC
:101B10008083C114D10429F0EFE6F0E08081846075
:101B200080830115110529F0EFE6F0E080818860DF
:101B30008083E114F10409F47EC0EFE6F0E08081D7
:101B40008160808378C083E0981226C0D093B71C50
:101B5000C093B61CA114B10429F0E1E7F0E0808144
:101B600082608083C114D10429F0E1E7F0E0808134
:101B7000846080830115110529F0E1E7F0E08081A0
:101B800088608083E114F10409F455C0E1E7F0E0D6
:101B90008081816080834FC084E0981225C0D093FB
:101BA000B91CC093B81CA114B10429F0E2E7F0E01D
:101BB000808182608083C114D10429F0E2E7F0E0E3
:101BC0008081846080830115110529F0E2E7F0E04F
:101BD000808188608083E114F10469F1E2E7F0E03C
:101BE00080818160808327C085E098122EC0D093C9
:101BF000BB1CC093BA1CA114B10429F0E3E7F0E0C8
:101C0000808182608083C114D10429F0E3E7F0E091
:101C10008081846080830115110529F0E3E7F0E0FD
:101C2000808188608083E114F10429F0E3E7F0E02B
:101C3000808181608083B986A886DB86CA861D87FD
:101C40000C87FF86EE861E821F82DF91CF911F9147
:101C50000F91FF90EF90DF90CF90BF90AF909F904B
:101C60000895EF92FF920F931F93CF93DF93FC01A0
:101C7000FFB6F894A481B5818C91887F8C93A48160
:101C8000B5818C9185608C93A62FB72FA23181E10D
:101C9000B80710F0A1E1B1E18FE08A9FE0018B9FCE
:101CA000D00D1124642F752F623181E1780710F077
:101CB00061E171E18FE0869FD001879FB00D112413
:101CC000422F532F423181E1580710F041E151E199
:101CD0008FE0849FB001859F700D1124202F312F3C
:101CE000223181E1380710F021E131E18FE0829F5C
:101CF000A001839F500D1124518B408B82819381D1
:101D00002091D3023091D4028217930789F4D093A3
:101D10008900C0938800B0938B00A0938A007093D1
:101D20008D0060938C00509385004093840040C0E8
:101D30002091D7023091D8028217930789F4D0936B
:101D40009900C0939800B0939B00A0939A00709361
:101D50009D0060939C00509395004093940028C090
:101D60002091D9023091DA028217930789F4D09337
:101D7000A900C093A800B093AB00A093AA007093F1
:101D8000AD006093AC005093A5004093A40010C038
:101D9000D0932901C0932801B0932B01A0932A016D
:101DA00070932D0160932C015093250140932401E1
:101DB000E68281E08783FFBEDF91CF911F910F9173
:101DC000FF90EF900895BF92CF92DF92EF92FF9233
:101DD0000F931F93CF93DF93EC01B62E6A01790125
:101DE0008DE992E099838883862F10D19B838A8323
:101DF000EB2DF0E0EE0FFF1FEF52FD4F8081918140
:101E000001969D838C838BEA92E099838883B1103D
:101E10001DC0D093B11CC093B01CC114D10429F0D3
:101E2000EEE6F0E0808182608083E114F10429F025
:101E3000EEE6F0E08081846080830115110529F1D0
:101E4000EEE6F0E08081816080831FC082E0B812FE
:101E500026C0D093B51CC093B41CC114D10429F082
:101E6000E0E7F0E0808182608083E114F10429F0F2
:101E7000E0E7F0E08081846080830115110529F09E
:101E8000E0E7F0E0808181608083D986C886FB86A8
:101E9000EA861D861C861F870E871E821F82DF91A1
:101EA000CF911F910F91FF90EF90DF90CF90BF9057
:101EB0000895EF92FF920F931F93CF937C01C62F4B
:101EC00000E010E020E030E040E050E07CDF89EB13
:101ED00092E0F70191838083C11104C081E0809377
:101EE0006E0005C0C23019F481E080937000CF917C
:101EF0001F910F91FF90EF900895FC019FB7F89408
:101F0000A481B5818C91887F8C93168217829FBFA4
:101F10000895FC0186818230B8F18F3F11F0815025
:101F20008683828193812091D3023091D4028217DB
:101F3000930739F480899189909385008093840078
:101F400008952091D7023091D8028217930739F46F
:101F500080899189909395008093940008952091B1
:101F6000D9023091DA028217930739F48089918976
:101F70009093A5008093A4000895808991899093FF
:101F80002501809324010895CF01B7CF0895FC0166
:101F900086818230A0F08F3F11F0815086832281AC
:101FA00033818091D1029091D2022817390719F418
:101FB000808986BD089580898093B2000895CF01FD
:101FC0009CCF0895282F30E041E050E0BA0102C0D4
:101FD000660F771F8A95E2F7CB014091BD1C5091A7
:101FE000BE1C64237523672B71F4842B952B90936F
:101FF000BE1C8093BD1C220F331FF901E352FD4F1D
:1020000080819181089580E090E008956091BC1CEA
:10201000282F30E0462F50E0082E02C055954795F6
:102020000A94E2F740FD14C041E050E0FA0102C01A
:10203000EE0FFF1F8A95E2F7CF01862B8093BC1C21
:10204000220F331FF901EF52FD4F808191810895D6
:1020500080E090E0089597FB072E16F4009406D0D8
:1020600077FD08D00BD007FC05D03EF49095819504
:102070009F4F0895709561957F4F0895AA1BBB1BD4
:1020800051E107C0AA1FBB1FA617B70710F0A61B78
:10209000B70B881F991F5A95A9F780959095BC0199
:1020A000CD010895EE0FFF1F881F8BBF0790F6919B
:0820B000E02D1994F894FFCF14
:1020B800FFFFFFFFFFFFFFFFFF21050122010232A3
:1020C80001033401040C0505140106160107260155
:1020D8000052010940010A52010B40010C52010D46
:1020E80040010E52010F400110520111640503A472
:1020F80005139201148001159201168001179201AF
:102108001880011992011A80011B92011C01140008
:102118000000000118000000000128000000000273
:1021280010004000000214004000000218004000A7
:102138000002280040000004100040105004140061
:102148004010500428004000400000000057095784
:102158000957095709570900000000C70F9E08B41E
:1021680008CA08CB0800000000DD089E08B408CAA9
:1021780008CB0800000000890F030919092F094539
:102188000944008000B0009000A000200120002336
:1021980000260029002C002F003200000103010650
:0421A8000109010028
:00000001FF
