S0150000413620506C617967726F756E642E7372656353
S1130000A6C0000028C1000026C1000024C10000D1
S113001022C1000020C100001EC100001CC100005C
S11300201AC10000F8C4000029C500005AC5000028
S113003012C100000C94180C0C944B0C0CC1000061
S11300400AC100000C947E0C0C94B10C0C94E40CCA
S11300500C94170D0C94B20B0C94E50B0C942C0916
S1130060FAC00000F8C00000F6C00000F4C00000B0
S1130070F2C0000091C20000EEC00000ECC000001D
S11300800C944A0D0C947D0D0C94B00D0C94E30D5E
S1130090E2C00000E0C00000DEC00000DCC00000E0
S11300A0DAC00000D8C000000C94160E0C94490E5F
S11300B00C947C0E0C94AF0ECEC000000C94E20E97
S11300C00C94150F0C94480F0C947B0FC4C00000C3
S11300D0C2C00000C0C00000BEC00000BCC0000020
S11300E0BAC00000484947482054454D50210042B9
S11300F045455020424F4F50210030303A30303A7D
S113010030302020202030303A3030202020202071
S113011020202043202820202029202020202025A2
S1130120005568727A656974202020205765636BD6
S11301307A656974202054656D7065726174757296
S113014020204665756368746500C6022D0A14BED6
S11301500FB6F894A8958091600088618093600040
S1130160109260000FBE14BE0FB6F894A89580914B
S11301706000886180936000109260000FBE14BE1E
S11301800FB6F894A8958091600088618093600010
S1130190109260000FBE14BE0FB6F894A89580911B
S11301A06000886180936000109260000FBE14BEEE
S11301B00FB6F894A89580916000886180936000E0
S11301C0109260000FBE14BE0FB6F894A8958091EB
S11301D06000886180936000109260000FBE14BEBE
S11301E00FB6F894A89580916000886180936000B0
S11301F0109260000FBE11241FBECFEFD1E2DEBF0C
S1130200CDBF00E00CBF12E0A0E0B2E0E2EEF5E208
S113021000E00BBF02C007900D92A43EB107D9F7CE
S11302202CE1A4EEB2E001C01D92AE3EB207E1F7AC
S113023010E0C7EAD0E000E006C021970109802F52
S1130240FE010E94E712C53AD10780E00807A9F72A
S113025070D00C94EF12D4CE0895EEEEF2E08281C9
S11302608F5F828392E097838C3388F081818F5FE4
S11302708183128291E097838C3348F080818F5F71
S1130280808311821782883110F01092EE0281E08F
S1130290809343030895EF92FF920F931F93019766
S11302A009F042C06F3F7F4F09F03EC020E040E0BC
S11302B069E08CE393E08BD320E04FEF60E086E3CA
S11302C093E085D368E08EE193E00E94C70A2CE0B6
S11302D049E062E084E193E04CD62CE231E041E075
S11302E060E28AE093E00BD2E12CF12C00E010E014
S11302F020E030E04DE251E061E088EF92E00E94BE
S1130300AE0FEEEEF2E084E193E0918780871082F5
S1130310118212821682E4EEF2E0918380838AE0F5
S113032093E09087878315821F910F91FF90EF9040
S113033008957894EE24EA9400E010E020E030E0A0
S113034040E050E068EE73E088EF92E00E948B108A
S113035040E061E271E084E193E091D640E061E045
S113036084E193E022D540E06AEF70E084E193E019
S113037086D6D0914303DD2309F4CFC08091F502E2
S11303808130A1F018F0823009F130C00EEE12E095
S113039040E061E0F8018085918507D5F80160812E
S11303A070E020E342E08085918502D70EEE12E0F2
S11303B043E061E0F80180859185F7D4F80161811B
S11303C070E020E342E080859185F2D60EEE12E0E3
S11303D046E061E0F80180859185E7D4F801628107
S11303E070E020E342E080859185E2D6EEEEF2E013
S11303F083E0878386818823A9F093818081981381
S113040011C09481818198130DC08F0143E060E095
S113041080859185CAD440E06FEE70E0F801808554
S113042091852DD6E091EB02F091EC0290911902A6
S1130430911101C0D581DD2301F1CF01B4D19C011B
S1130440ADECBCEC0E94D812929582958F708927EE
S11304509F70892704EE12E0F801828387819085DA
S1130460A2D19C01ABEABAEA0E94D812969587956C
S1130470969587954B97F80183838091EA028823A8
S113048019F08130A9F027C004EE12E044E161E0E4
S1130490F8018081918189D4F801628170E020E2C1
S11304A043E08081918184D682E0F801868313C081
S11304B004EE12E042E261E0F8018081918175D49A
S11304C0F801638170E020E242E08081918170D67E
S11304D082E0F80186838091ED02882399F0E4EEAE
S11304E0F2E092818481891768F48F0143E163E02B
S11304F0808191815AD440E064EE70E0F8018081FB
S11305009181BDD5E4EEF2E092818481981718F4CC
S113051081E08093ED02109243032FB7F89481E0B9
S11305208823B9F0ECE3F3E08481809595819F3FC3
S113053031F4E0913E03F0913F03908106C0E091D5
S11305403E03F0913F0390819095C82FC92380E02A
S1130550E7CF2FBFC0934203209142033FB7F894E3
S113056081E0882389F0E6E3F3E0A281B38184810A
S113057095819F3F19F0922F909501C0922F982357
S113058012969C9380E0EDCF3FBFF3CE6FEF7FEFE9
S113059081E090E080CE08951F920F920FB60F92E3
S11305A011240BB60F922F933F934F935F936F9346
S11305B07F938F939F93AF93BF93EF93FF93809118
S11305C06503882309F488C0EAE7F0E080818F7727
S11305D08083609178007091790040914403242FC6
S11305E030E0F901EE0FFF1FEB5BFC4FA081B181FE
S11305F013968D919C911497860F971F14969C9334
S11306008E931397A081B18117968C91179781507F
S113061017968C930190F081E02D8781811154C04D
S113062083819481668170E00E94B1127283618338
S1130630220F331FF901EB5BFC4FA081B1811496AB
S11306401C921E921397A081B18116968C911697D5
S113065017968C930190F081E02D81E085834F5FA4
S11306604093440380916503481710F010924403AB
S1130670ACE7B0E08C91887F8C939C91E09144032B
S1130680F0E0EE0FFF1FEB5BFC4F0190F081E02DDB
S113069080818770892B8C93E0914403F0E0EE0F06
S11306A0FF1FEB5BFC4F0190F081E02D80818830CF
S11306B030F0EBE7F0E080818860808305C0EBE7F1
S11306C0F0E08081877F8083EAE7F0E080818068C2
S11306D08083808180648083FF91EF91BF91AF918B
S11306E09F918F917F916F915F914F913F912F9146
S11306F00F900BBE0F900FBE0F901F901895FC012A
S1130700403408F04FE346833187208780916503A6
S1130710803108F047C0811112C0A4E6B0E08C918A
S11307208E7F8C93AAE7B0E08C9187608C93ACE7C2
S1130730B0E08C9180648C938C918F7D8C93683025
S113074078F0ADE7B0E02C91362F377081E090E07F
S113075002C0880F991F3A95E2F7822B8C930DC043
S1130760AEE7B0E02C9181E090E0062E02C0880F45
S1130770991F0A94E2F7822B8C93868187831282D5
S113078011821482138215826083A091650381E033
S11307908A0F80936503B0E0AA0FBB1FAB5BBC4F0D
S11307A0ED93FC930895CF93DF93EC01ECE7F0E035
S11307B08081887F8083908188818770892B808362
S11307C08881883030F0EBE7F0E0808188608083B6
S11307D005C0EBE7F0E08081877F8083EAE7F0E003
S11307E0808180688083808186FDFDCF6E81662351
S11307F0E9F020E030E0EAE7F0E0A8E7B0E080814B
S113080080648083808186FDFDCF4D915C9111973A
S113081089819A81840F951F9A8389832F5F3F4F23
S11308206E81862F90E0281739074CF389819A81CD
S113083070E00E94B1127A836983EAE7F0E0808174
S11308408F77808389819A81E885F98519951A8241
S113085019821D82DF91CF910895DC012FB7F8949E
S11308601296ED91FC91139714969C9114971596FA
S11308708C918F3F09F06095692362832FBF08959F
S1130880FC012FB7F89485818F3F59F4A281B3817D
S113089012968C91129794816923682B12966C930B
S11308A00BC0A281B38112969C91129784818923F3
S11308B06095682312966C932FBF0895FC012FB79F
S11308C0F89485818F3F61F4A281B38112969C9143
S11308D01297848189236095682312966C930AC0C9
S11308E0A281B38112969C91129784816823692B0B
S11308F012966C932FBF0895DC012FB7F8941296CB
S1130900ED91FC911397928114968C916823692739
S113091062832FBF0895FC012FB7F89484818095DA
S1130920682385818F3F29F40280F381E02D808143
S113093006C00280F381E02D9081892F80952FBF1E
S113094086230895CF93DF93EC01E881F981008435
S1130950F185E02D6FEF19959A852885382F30950C
S11309609323922B98879A85298590959823922B87
S113097099878A87EE81FF81309709F01995DF9175
S1130980CF910895EF92FF921F93CF93DF937C0151
S1130990D62F1FB7F894D70114966C9114976095CD
S11309A0ED91FC910084F185E02DC7011995C82FC4
S11309B080958D2309F409D41FBF8C2F8D2349F30F
S11309C08C2FDF91CF911F91FF90EF9008950F939B
S11309D01F93CF93DF938C01862FD42FC22F20E354
S11309E032E0D8012D933C930E946812F80193835E
S11309F08283D483C583009749F0DC011196DC938C
S1130A000280F381E02DCD2BC095C283DF91CF917D
S1130A101F910F9108951F920F920FB60F921124F8
S1130A200BB60F922F933F934F935F936F937F93E4
S1130A308F939F93AF93BF93EF93FF93809166033C
S1130A4090916703009739F0DC01ED91FC910484E7
S1130A50F585E02D1995FF91EF91BF91AF919F918D
S1130A608F917F916F915F914F913F912F910F9053
S1130A700BBE0F900FBE0F901F9018951F920F92F0
S1130A800FB60F9211240BB60F922F933F934F93EF
S1130A905F936F937F938F939F93AF93BF93EF93E2
S1130AA0FF9380916A0390916B03009739F0DC0106
S1130AB0ED91FC910484F585E02D1995FF91EF915A
S1130AC0BF91AF919F918F917F916F915F914F9162
S1130AD03F912F910F900BBE0F900FBE0F901F9060
S1130AE018951F920F920FB60F9211240BB60F9206
S1130AF02F933F934F935F936F937F938F939F9322
S1130B00AF93BF93EF93FF93809168039091690330
S1130B10009739F0DC01ED91FC910484F585E02D1A
S1130B201995FF91EF91BF91AF919F918F917F9113
S1130B306F915F914F913F912F910F900BBE0F904A
S1130B400FBE0F901F901895FF920F931F93CF9392
S1130B50DF93EC01F62E3BDF8EE192E099838883EC
S1130B601F830E83188619861A8681E0F8120EC038
S1130B70D0936703C0936603E8E6F0E08081816068
S1130B8080838C81809580936B0022C089E0F81269
S1130B900EC0D0936903C0936803E8E6F0E0808157
S1130BA0846080838C81809580936D0011C088E07F
S1130BB0F8120EC0D0936B03C0936A03E8E6F0E02A
S1130BC08081826080838C818095880F80936C0003
S1130BD0DF91CF911F910F91FF900895CF93DF93F1
S1130BE0FC016FB7F894A281B3811C92A281B381F6
S1130BF0119780EF8C93A281B3818C9180628C9346
S1130C0081E090E0A281B3814C919C01018402C0F7
S1130C10220F331F0A94E2F724272C9325E02A9508
S1130C20F1F70000A281B381ED012297288122957A
S1130C30207F3C91AC01018402C0440F551F0A94EB
S1130C40E2F743274C933AE03A95F1F700C0A281CA
S1130C50B3813C91AC01018402C0440F551F0A9436
S1130C60E2F743274C9335E03A95F1F70000A2816F
S1130C70B381ED01229738813C91AC01018402C01B
S1130C80440F551F0A94E2F743274C9322230CF494
S1130C90B9CFA281B3818C918F7D8C930280F38133
S1130CA0E02D31978FEF80836FBFDF91CF9108954F
S1130CB0FC014FB7F894A281B3815C9121E030E04C
S1130CC0C901018402C0880F991F0A94E2F785279D
S1130CD08C9385E08A95F1F70000A281B3818C9111
S1130CE0018402C0220F331F0A94E2F728272C93B1
S1130CF04FBF0895EF92FF920F931F93CF93DF930B
S1130D00EC01062F8C81893011F0CE0167DF1FB70B
S1130D10F894E02EF12CF594E794F594E794F59487
S1130D20E794F594E794EA81FB81E082CE01C0DF89
S1130D300F70EA81FB810083CE01BADFEA81FB8177
S1130D4010828C81893031F587EC90E00197F1F7BE
S1130D5000C000001FC01985143011F084E001C0E8
S1130D6087E08987FFB6F894EA81FB81E082CE01AF
S1130D709FDFEA81FB810083CE019ADFEA81FB8158
S1130D801082198787EC90E00197F1F700C000000A
S1130D90FFBE04C01FBF8C818930E9F2DF91CF917F
S1130DA01F910F91FF90EF900895CF93DF93FC0173
S1130DB0A581B6818C916817F0F411968C911197E6
S1130DC04817D8F440876783ED01C60FD11D8A8187
S1130DD0480F8481893039F48C918695681718F00E
S1130DE087E0818702C084E08187CF01642F606837
S1130DF081DF81E003C080E001C080E0DF91CF911A
S1130E000895FC01908581E0890F8087A581B681D2
S1130E1011962C911197821788F08181882349F0CB
S1130E20108687818F5F87839C91891718F01782BA
S1130E3001C0908740856781CF01B7CF08951F9384
S1130E40CF93DF93EC01162F2FEF81EE94E0215026
S1130E5080409040E1F700C00000EA81FB8183E01C
S1130E608083CE0125DF8FE19EE40197F1F700C076
S1130E700000CE011DDF8FE19EE40197F1F700C071
S1130E800000CE0115DF8FE19EE40197F1F700C069
S1130E900000EA81FB8182E08083CE0109DF8FE1DB
S1130EA09EE40197F1F700C00000612FCE0122DF1C
S1130EB0ED81FE818081813021F460E2CE011ADF70
S1130EC003C068E2CE0116DF61E0CE0113DF8C813E
S1130ED0893031F48FE19EE40197F1F700C00000FE
S1130EE066E0CE0107DF8C81893009F03EC087E0DF
S1130EF08987EA81FB8183E08083CE01D9DE8FE19B
S1130F009EE40197F1F700C00000CE01D1DE8FE12D
S1130F109EE40197F1F700C00000CE01C9DE8FE125
S1130F209EE40197F1F700C00000EA81FB8182E0B2
S1130F308083CE01BDDE8FE19EE40197F1F700C00E
S1130F400000612FCE01D6DE68E2CE01D3DE61E07F
S1130F50CE01D0DE8FE19EE40197F1F700C00000DE
S1130F6066E0CE01C7DE84E08987DF91CF911F91CF
S1130F7008950F931F93CF93DF93EC01862F042FD3
S1130F80122F0E9468129C012E5F3F4F3B832A83DD
S1130F9024E029870C83402F50E09A01220F331F4D
S1130FA0420F531F440F551F445C5D4F5E834D83B6
S1130FB018861F82212F221F2227221F29832FEF09
S1130FC0FC012183612F6F776883CE0138DFDF91C5
S1130FD0CF911F910F9108950F931F93CF93DF9398
S1130FE0EC01162F8C81893011F0CE01F7DD0FB79B
S1130FF0F894812F82958F708064EA81FB818083CD
S1131000CE0156DE1F701064EA81FB811083CE018D
S11310104FDEEA81FB8110828C81893031F487ECC8
S113102090E00197F1F700C000000FBFCE01E9DEA8
S1131030DF91CF911F910F910895EF92FF920F933B
S11310401F93CF93DF937C01442311F050E002C03F
S11310504FEF5FEFEB018B01040F151F0C171D07FA
S113106039F06881662321F02196C701B5DFF6CFF8
S1131070DF91CF911F910F91FF90EF900895EF9220
S1131080FF920F931F93CF93DF937C01442319F0B6
S1131090042F10E002C00FEF1FEF060F171FFB0114
S11310A0E017F10749F06491EF012196662321F0DE
S11310B0C70192DFFE01F4CFDF91CF911F910F9111
S11310C0FF90EF9008958F929F92AF92BF92CF922C
S11310D0DF92EF92FF920F931F93CF93DF936C01F4
S11310E0FB01892B31F40F2EFCE6CF2EF3E0DF2E2B
S11310F0F02DFF233CF48DE2D6018C93F195E1951C
S1131100F10937C0D6012C9334C0CF01B8010E9435
S1131110C5127C018E179F0791F4353021F480E3CA
S1131120F60185831CC08881281302C029830DC061
S11311308D3219F42883898208C0998206C0CF01B0
S1131140B8010E94C512605D6983C801B5010E949F
S1131150C5128B013F5F2196F7013630B1F6D601F7
S113116016961C9286E090E0841B91098C0D9D1DBF
S113117012C0E60131E000E117E20F2EF0E39F2EEA
S1131180F02D0F2EFDE28F2EF02D0F2EFAE0AF2E54
S1131190B12CF02DBACFDF91CF911F910F91FF9019
S11311A0EF90DF90CF90BF90AF909F908F90089575
S11311B0CF93DF93EC0180E090E085DF40E0BC0159
S11311C0CE013BDFDF91CF9108958091750381308B
S11311D061F4789483B7817F83BF83B7816083BFD1
S11311E0889583B78E7F83BF089586E793E00E9436
S11311F0D711909108022BE233E0929FF001939F64
S1131200F00D1124E957FC4F4481558166817781A3
S1131210480F511D611D711D448355836683778377
S11312200895909174039923A9F020917303E22FF8
S1131230F0E0E050FE4F80813FEF30839150909377
S113124074032F5F283018F42093730308951092C9
S1131250730308958FEF0895FF93EF93DF93CF9374
S1131260BF93AF939F938F937F936F935F934F93AA
S11312703F932F931F930F93FF92EF92DF92CF929E
S1131280BF92AF929F928F927F926F925F924F9292
S11312903F922F921F920F92C09108022C2F30E0A0
S11312A08FB74BE253E0249FF001259FF00D349F4C
S11312B0F00D1124E957FC4F80878DB79EB79287B4
S11312C0818784819581A681B7818F519F4FAF4FCC
S11312D0BF4F84839583A683B783818181110DC019
S11312E08BE293E0289FF001299FF00D389FF00DC9
S11312F01124E957FC4F81E0818393DF8F3F19F07C
S11313008093080241C08C2F4BE253E08F5F8830FA
S113131008F081E0282F30E0249FF001259FF00D94
S1131320349FF00D1124E957FC4F9181913041F520
S1131330249FF001259FF00D349FF00D1124E957EF
S1131340FC4F9381992361F0249FF001259FF00DB8
S1131350349FF00D1124E957FC4F91509383D6CF5D
S11313604BE253E0249FF001259FF00D349FF00DD4
S11313701124E957FC4F928193838093080204C09F
S11313808C13C4CF10920802209108028BE293E0E0
S1131390289FF001299FF00D1124E957FC4F118279
S11313A09FB7F89440917803509179032091C20239
S11313B03091C3024217530751F4E6E7F3E0A481E6
S11313C0B5818C9185608C93808986BD0AC0E6E7DF
S11313D0F3E0A481B5818C9187608C93808980939C
S11313E0B2009FBF209108028BE293E0289FF00196
S11313F0299FF00D1124E957FC4F20852FBF209120
S11314000802289FF001299FF00D1124E957FC4F91
S1131410818592859EBF8DBF0F901F902F903F9026
S11314204F905F906F907F908F909F90AF90BF9000
S1131430CF90DF90EF90FF900F911F912F913F91EC
S11314404F915F916F917F918F919F91AF91BF91D8
S1131450CF91DF91EF91FF91189560E086E793E0DB
S113146082C70895DC011296ED91FC911397828155
S11314706095682362830895DC011296ED91FC91D6
S113148013978281682B62830895DC011296ED9193
S1131490FC91139782816827628308950F931F93A9
S11314A0CF93DF93FC012385222309F46BC0EC0165
S11314B0048915890280F381E02D808183FD0FC0AA
S11314C081E08C878C899D899B8B8A8BE881F9814B
S11314D00280F381E02D60E1CE01199553C0808133
S11314E083708E8B2C893D89EF89F0E0EE0FFF1F0E
S11314F0EE0FFF1FE75FFD4FE80FF11D9081290FED
S1131500311D97FD3A953D8B2C8B8F8B2C893D8912
S11315108E859F85821793075CF09D8B8C8BE88169
S1131520F9810280F381E02D60E2CE0119951AC0A1
S11315302C893D8988899989281739075CF09D8B06
S11315408C8BE881F9810280F381E02D64E0CE0187
S1131550199508C0E881F9810480F581E02D64E2E1
S1131560CE0119958C899D890817190759F0E881CE
S1131570F9810480F581E02D60E1CE01199581E0C7
S11315808D871C86DF91CF911F910F9108950F9342
S11315901F93CF93DF93EC0100E010E020E044E3DD
S11315A0D3DA8CE792E099838883EA81FB818BEC20
S11315B08283EA81FB818281846382831F861E8603
S11315C08FE097E2998B888B87E893E19D8B8C8BD6
S11315D09B8B8A8B1E8AEA81FB81808183708F8B2F
S11315E01C861D861B86DF91CF911F910F91089554
S11315F0CF93DF93EC01E885F985309709F01995CD
S11316008A859B85892B39F4E881F9810190F081E1
S1131610E02DCE011995DF91CF910895CF93DF93FB
S1131620EC01EA85FB85309709F019958E859F8535
S1131630892B39F4E881F9810190F081E02DCE0104
S11316401995DF91CF9108950895CF93DF93EC011D
S1131650EE85FF85309709F01995E881F9810190AD
S1131660F081E02DCE011995DF91CF910895DC0131
S11316702FB7F89412964D915C9113978091C20202
S11316809091C3024817590759F41496ED91FC91AF
S1131690159780818560808350968C9186BD0BC0A0
S11316A01496ED91FC9115979081976090835096D4
S11316B08C918093B2002FBF0895CF93DF93EC01F8
S11316C0E885F985309709F019958A859B85892BDA
S11316D039F4E881F9810190F081E02DCE0119956A
S11316E0DF91CF910895CF93DF93EC01EA85FB85D9
S11316F0309709F019958C859D85892B39F4E881FB
S1131700F9810190F081E02DCE011995DF91CF91FF
S11317100895CF93DF93EC01EC85FD85309709F0B4
S113172019958E859F85892B39F4E881F98101907B
S1131730F081E02DCE011995DF91CF910895CF93DB
S1131740DF93EC01EE85FF85309709F01995E88168
S1131750F9810190F081E02DCE011995DF91CF91AF
S11317600895FFCF1F920F920FB60F9211240BB65C
S11317700F922F933F934F935F936F937F938F9326
S11317809F93AF93BF93EF93FF938091DF1C90914E
S1131790E01C009739F0DC01ED91FC910280F381AB
S11317A0E02D1995FF91EF91BF91AF919F918F918A
S11317B07F916F915F914F913F912F910F900BBE4D
S11317C00F900FBE0F901F9018951F920F920FB697
S11317D00F9211240BB60F922F933F934F935F9365
S11317E06F937F938F939F93AF93BF93EF93FF93E5
S11317F08091DF1C9091E01C009739F0DC01ED91A1
S1131800FC910480F581E02D1995FF91EF91BF9132
S1131810AF919F918F917F916F915F914F913F9184
S11318202F910F900BBE0F900FBE0F901F90189525
S11318301F920F920FB60F9211240BB60F922F9393
S11318403F934F935F936F937F938F939F93AF9344
S1131850BF93EF93FF938091E31C9091E41C009756
S113186039F0DC01ED91FC910280F381E02D1995B2
S1131870FF91EF91BF91AF919F918F917F916F9164
S11318805F914F913F912F910F900BBE0F900FBE20
S11318900F901F9018951F920F920FB60F9211245C
S11318A00BB60F922F933F934F935F936F937F9356
S11318B08F939F93AF93BF93EF93FF938091E31C18
S11318C09091E41C009739F0DC01ED91FC910480C7
S11318D0F581E02D1995FF91EF91BF91AF919F9103
S11318E08F917F916F915F914F913F912F910F90C5
S11318F00BBE0F900FBE0F901F9018951F920F9262
S11319000FB60F9211240BB60F922F933F934F9360
S11319105F936F937F938F939F93AF93BF93EF9353
S1131920FF938091E11C9091E21C009739F0DC0157
S1131930ED91FC910280F381E02D1995FF91EF91D7
S1131940BF91AF919F918F917F916F915F914F91D3
S11319503F912F910F900BBE0F900FBE0F901F90D1
S113196018951F920F920FB60F9211240BB60F9277
S11319702F933F934F935F936F937F938F939F9393
S1131980AF93BF93EF93FF938091E11C9091E21C7E
S1131990009739F0DC01ED91FC910480F581E02D94
S11319A01995FF91EF91BF91AF919F918F917F9185
S11319B06F915F914F913F912F910F900BBE0F90BC
S11319C00FBE0F901F9018951F920F920FB60F9293
S11319D011240BB60F922F933F934F935F936F9302
S11319E07F938F939F93AF93BF93EF93FF938091D4
S11319F0E11C9091E21C009739F0DC01ED91FC911F
S1131A000680F781E02D1995FF91EF91BF91AF9179
S1131A109F918F917F916F915F914F913F912F9102
S1131A200F900BBE0F900FBE0F901F9018951F9232
S1131A300F920FB60F9211240BB60F922F933F9370
S1131A404F935F936F937F938F939F93AF93BF93C2
S1131A50EF93FF938091E11C9091E21C009739F081
S1131A60DC01ED91FC910084F185E02D1995FF9145
S1131A70EF91BF91AF919F918F917F916F915F9102
S1131A804F913F912F910F900BBE0F900FBE0F906F
S1131A901F9018951F920F920FB60F9211240BB638
S1131AA00F922F933F934F935F936F937F938F93F3
S1131AB09F93AF93BF93EF93FF938091E51C909115
S1131AC0E61C009739F0DC01ED91FC910280F38172
S1131AD0E02D1995FF91EF91BF91AF919F918F9157
S1131AE07F916F915F914F913F912F910F900BBE1A
S1131AF00F900FBE0F901F9018951F920F920FB664
S1131B000F9211240BB60F922F933F934F935F9331
S1131B106F937F938F939F93AF93BF93EF93FF93B1
S1131B208091E51C9091E61C009739F0DC01ED9161
S1131B30FC910480F581E02D1995FF91EF91BF91FF
S1131B40AF919F918F917F916F915F914F913F9151
S1131B502F910F900BBE0F900FBE0F901F901895F2
S1131B601F920F920FB60F9211240BB60F922F9360
S1131B703F934F935F936F937F938F939F93AF9311
S1131B80BF93EF93FF938091E51C9091E61C00971F
S1131B9039F0DC01ED91FC910680F781E02D199577
S1131BA0FF91EF91BF91AF919F918F917F916F9131
S1131BB05F914F913F912F910F900BBE0F900FBEED
S1131BC00F901F9018951F920F920FB60F92112429
S1131BD00BB60F922F933F934F935F936F937F9323
S1131BE08F939F93AF93BF93EF93FF938091E51CE3
S1131BF09091E61C009739F0DC01ED91FC91008492
S1131C00F185E02D1995FF91EF91BF91AF919F91CF
S1131C108F917F916F915F914F913F912F910F9091
S1131C200BBE0F900FBE0F901F9018951F920F922E
S1131C300FB60F9211240BB60F922F933F934F932D
S1131C405F936F937F938F939F93AF93BF93EF9320
S1131C50FF938091E71C9091E81C009739F0DC0118
S1131C60ED91FC910280F381E02D1995FF91EF91A4
S1131C70BF91AF919F918F917F916F915F914F91A0
S1131C803F912F910F900BBE0F900FBE0F901F909E
S1131C9018951F920F920FB60F9211240BB60F9244
S1131CA02F933F934F935F936F937F938F939F9360
S1131CB0AF93BF93EF93FF938091E71C9091E81C3F
S1131CC0009739F0DC01ED91FC910480F581E02D61
S1131CD01995FF91EF91BF91AF919F918F917F9152
S1131CE06F915F914F913F912F910F900BBE0F9089
S1131CF00FBE0F901F9018951F920F920FB60F9260
S1131D0011240BB60F922F933F934F935F936F93CE
S1131D107F938F939F93AF93BF93EF93FF938091A0
S1131D20E71C9091E81C009739F0DC01ED91FC91DF
S1131D300680F781E02D1995FF91EF91BF91AF9146
S1131D409F918F917F916F915F914F913F912F91CF
S1131D500F900BBE0F900FBE0F901F9018951F92FF
S1131D600F920FB60F9211240BB60F922F933F933D
S1131D704F935F936F937F938F939F93AF93BF938F
S1131D80EF93FF938091E71C9091E81C009739F042
S1131D90DC01ED91FC910084F185E02D1995FF9112
S1131DA0EF91BF91AF919F918F917F916F915F91CF
S1131DB04F913F912F910F900BBE0F900FBE0F903C
S1131DC01F9018951F920F920FB60F9211240BB605
S1131DD00F922F933F934F935F936F937F938F93C0
S1131DE09F93AF93BF93EF93FF938091E91C9091DE
S1131DF0EA1C009739F0DC01ED91FC910280F3813B
S1131E00E02D1995FF91EF91BF91AF919F918F9123
S1131E107F916F915F914F913F912F910F900BBEE6
S1131E200F900FBE0F901F9018951F920F920FB630
S1131E300F9211240BB60F922F933F934F935F93FE
S1131E406F937F938F939F93AF93BF93EF93FF937E
S1131E508091E91C9091EA1C009739F0DC01ED9126
S1131E60FC910480F581E02D1995FF91EF91BF91CC
S1131E70AF919F918F917F916F915F914F913F911E
S1131E802F910F900BBE0F900FBE0F901F901895BF
S1131E901F920F920FB60F9211240BB60F922F932D
S1131EA03F934F935F936F937F938F939F93AF93DE
S1131EB0BF93EF93FF938091E91C9091EA1C0097E4
S1131EC039F0DC01ED91FC910680F781E02D199544
S1131ED0FF91EF91BF91AF919F918F917F916F91FE
S1131EE05F914F913F912F910F900BBE0F900FBEBA
S1131EF00F901F9018951F920F920FB60F921124F6
S1131F000BB60F922F933F934F935F936F937F93EF
S1131F108F939F93AF93BF93EF93FF938091E91CAB
S1131F209091EA1C009739F0DC01ED91FC9100845A
S1131F30F185E02D1995FF91EF91BF91AF919F919C
S1131F408F917F916F915F914F913F912F910F905E
S1131F500BBE0F900FBE0F901F9018959F92AF92DB
S1131F60BF92CF92DF92EF92FF920F931F93CF9382
S1131F70DF93EC01962E5A0169018EE892E0998371
S1131F808883862FC9D29B838A83E92DF0E0EE0FE4
S1131F90FF1FEE53FD4F8081918101969D838C83B9
S1131FA088EB92E09983888381E0981226C0D093CD
S1131FB0E21CC093E11CA114B10429F0EFE6F0E0A7
S1131FC0808182608083C114D10429F0EFE6F0E0BF
S1131FD08081846080830115110529F0EFE6F0E02B
S1131FE0808188608083E114F10409F47EC0EFE607
S1131FF0F0E080818160808378C083E0981226C0FD
S1132000D093E61CC093E51CA114B10429F0E1E7C8
S1132010F0E0808182608083C114D10429F0E1E77B
S1132020F0E08081846080830115110529F0E1E7E7
S1132030F0E0808188608083E114F10409F455C0E4
S1132040E1E7F0E08081816080834FC084E09812F2
S113205025C0D093E81CC093E71CA114B10429F057
S1132060E2E7F0E0808182608083C114D10429F02A
S1132070E2E7F0E08081846080830115110529F096
S1132080E2E7F0E0808188608083E114F10469F183
S1132090E2E7F0E080818160808327C085E09812C8
S11320A02EC0D093EA1CC093E91CA114B10429F0FA
S11320B0E3E7F0E0808182608083C114D10429F0D9
S11320C0E3E7F0E08081846080830115110529F045
S11320D0E3E7F0E0808188608083E114F10429F073
S11320E0E3E7F0E0808181608083B986A886DB869F
S11320F0CA861D870C87FF86EE861E821F82DF91AB
S1132100CF911F910F91FF90EF90DF90CF90BF90F0
S1132110AF909F900895EF92FF920F931F93CF93E8
S1132120DF93FC01FFB6F894A481B5818C91887F7C
S11321308C93A481B5818C9185608C93A62FB72F45
S1132140A23181E1B80710F0A1E1B1E18FE08A9FEB
S1132150E0018B9FD00D1124642F752F623181E132
S1132160780710F061E171E18FE0869FD001879FCD
S1132170B00D1124422F532F423181E1580710F042
S113218041E151E18FE0849FB001859F700D1124DE
S1132190202F312F223181E1380710F021E131E184
S11321A08FE0829FA001839F500D1124518B408B9F
S11321B0828193812091C4023091C50282179307D2
S11321C089F4D0938900C0938800B0938B00A093C6
S11321D08A0070938D0060938C0050938500409327
S11321E0840040C02091C8023091C902821793072D
S11321F089F4D0939900C0939800B0939B00A09366
S11322009A0070939D0060939C00509395004093B6
S1132210940028C02091CA023091CB028217930700
S113222089F4D093A900C093A800B093AB00A09305
S1132230AA007093AD006093AC005093A500409346
S1132240A40010C0D0932901C0932801B0932B019E
S1132250A0932A0170932D0160932C0150932501C2
S113226040932401E68281E08783FFBEDF91CF9112
S11322701F910F91FF90EF900895BF92CF92DF923C
S1132280EF92FF920F931F93CF93DF93EC01B62E3F
S11322906A0179018EE892E099838883862F3CD184
S11322A09B838A83EB2DF0E0EE0FFF1FEE53FD4F6F
S11322B08081918101969D838C838CE992E099833E
S11322C08883B1101DC0D093E01CC093DF1CC114DF
S11322D0D10429F0EEE6F0E0808182608083E1148D
S11322E0F10429F0EEE6F0E080818460808301153A
S11322F0110529F1EEE6F0E08081816080831FC042
S113230082E0B81226C0D093E41CC093E31CC1142D
S1132310D10429F0E0E7F0E0808182608083E11459
S1132320F10429F0E0E7F0E0808184608083011506
S1132330110529F0E0E7F0E0808181608083D9868F
S1132340C886FB86EA861D861C861F870E871E822A
S11323501F82DF91CF911F910F91FF90EF90DF903B
S1132360CF90BF900895EF92FF920F931F93CF9356
S11323707C01C62F00E010E020E030E040E050E0B7
S11323807CDF8AEA92E0F70191838083C11104C063
S113239081E080936E0005C0C23019F481E080931F
S11323A07000CF911F910F91FF90EF900895DC0181
S11323B02FB7F89483B7817F83BF12964D915C91B8
S11323C013978091C2029091C3024817590721F4D0
S11323D086B59FEF96BD05C0E2EBF0E080819FEFEC
S11323E090831496ED91FC91159791E090832FBF03
S11323F093B7916093BF889593B79E7F93BF509690
S11324009C91891B0895FC019FB7F894A481B58120
S11324108C91887F8C93168217829FBF0895FC014C
S113242086818230B8F18F3F11F08150868382819A
S113243093812091C4023091C5028217930739F425
S113244080899189909385008093840008952091D8
S1132450C8023091C9028217930739F4808991899F
S1132460909395008093940008952091CA0230912E
S1132470CB028217930739F4808991899093A50040
S11324808093A40008958089918990932501809375
S113249024010895CF01B7CF0895FC0186818230CD
S11324A0A0F08F3F11F08150868322813381809187
S11324B0C2029091C3022817390719F4808986BD96
S11324C0089580898093B2000895CF019CCF089528
S11324D0282F30E041E050E0BA0102C0660F771FB8
S11324E08A95E2F7CB014091EC1C5091ED1C6423DA
S11324F07523672B71F4842B952B9093ED1C80939B
S1132500EC1C220F331FF901E253FD4F80819181AE
S1132510089580E090E008956091EB1C282F30E04E
S1132520462F50E0082E02C0559547950A94E2F7CD
S113253040FD14C041E050E0FA0102C0EE0FFF1F5D
S11325408A95E2F7CF01862B8093EB1C220F331F71
S1132550F901EE53FD4F80819181089580E090E070
S11325600895AA1BBB1B51E107C0AA1FBB1FA617D6
S1132570B70710F0A61BB70B881F991F5A95A9F728
S113258080959095BC01CD01089597FB072E16F414
S1132590009406D077FD08D0E4DF07FC05D03EF4B4
S11325A0909581959F4F0895709561957F4F0895FB
S11325B0A29FB001B39FC001A39F700D811D112480
S11325C0911DB29F700D811D1124911D0895EE0F70
S11325D0FF1F881F8BBF0790F691E02D1994F89484
S10525E0FFCF27
S11325E2FFFFFFFFFFFFFFFFFF0001FF00FF0000EF
S11325F201010000FF00FF010001000000002D04A2
S113260240045E047C048B04C204A20400000000A3
S11326122D0440045E047C048B04C20401140000F3
S11326220000011800000000012800000000021050
S113263200400000021400400000021800400000A4
S1132642022800400000041000401050041400400E
S11326521050042800400040000000002D04320AFB
S11326623C0A450A8B04C2044E0A00000000B10B66
S1132672B10BB10BB10BB10B000000004D12F80A03
S11326820E0B240B250B00000000370BF80A0E0B6F
S1132692240B250B000000000F125D0B730B890B3A
S11326A29F0B44008000B0009000A0002001200095
S11326B22300260029002C002F0032000001030110
S10726C206010901FF
S9030000FC
