:1000000079C0000007C1000005C1000003C1000065
:1000100001C10000FFC00000FDC00000FBC00000E7
:10002000F9C00000E7C2000018C3000049C3000087
:10003000F1C000000C9458090C948B09EBC000002F
:10004000E9C000000C94BE090C94F1090C94240A38
:100050000C94570A0C94F2080C94250903C700006D
:10006000D9C00000D7C00000D5C00000D3C0000038
:10007000D1C00000CFC00000CDC00000CBC0000048
:100080000C948A0A0C94BD0A0C94F00A0C94230B6D
:10009000C1C00000BFC00000BDC00000BBC0000068
:1000A000B9C00000B7C000000C94560B0C94890B2B
:1000B0000C94BC0B0C94EF0BADC000000C94220C04
:1000C0000C94550C0C94880C0C94BB0CA3C0000031
:1000D000A1C000009FC000009DC000009BC00000A8
:1000E00099C0000048656C6C6F576F726C640000BB
:1000F0005502330814BE0FB6F894A895809160009D
:10010000886180936000109260000FBE14BE0FB62D
:10011000F894A895809160008861809360001092A7
:1001200060000FBE14BE0FB6F894A89580916000D1
:10013000886180936000109260000FBE14BE0FB6FD
:10014000F894A89580916000886180936000109277
:1001500060000FBE14BE0FB6F894A89580916000A1
:10016000886180936000109260000FBE14BE0FB6CD
:10017000F894A89580916000886180936000109247
:1001800060000FBE14BE0FB6F894A8958091600071
:10019000886180936000109260000FBE14BE0FB69D
:1001A000F894A89580916000886180936000109217
:1001B00060000FBE11241FBECFEFD1E2DEBFCDBF66
:1001C00000E00CBF12E0A0E0B2E0E4E6F0E200E004
:1001D0000BBF02C007900D92A03AB107D9F72CE1EE
:1001E000A0EAB2E001C01D92A537B207E1F710E026
:1001F000CAE7D0E000E006C021970109802FFE0188
:100200000E942810C837D10780E00807A9F715D148
:100210000C943010F5CE8091A3028130C9F4809106
:10022000A402811110C0A9EEB2E0ED91FC911197EA
:10023000928112968C918F7089278283E3EAF2E093
:100240008281818305C0882319F081508093A402A4
:100250008091A0028130C9F48091A102811110C067
:10026000A9EEB2E0ED91FC911197928112968C91DA
:10027000807F89278283E0EAF2E08281818308958A
:10028000882319F081508093A10208958CEC92E0AC
:1002900012D18DEB92E042D1C0E0CB3068F4EC2F6C
:1002A000F0E0EC51FF4F60818DEB92E057D181116E
:1002B00001C02ED5CF5FF1CF8CEC92E018D128D5BC
:1002C000E5CF8CEC92E0F7D040E060E08FED92E07B
:1002D00011D3C0E0CB3080F48DEB92E027D18111B7
:1002E00002C016D507C08DEB92E020D1682F8FEDAC
:1002F00092E017D4CF5FEECF8CEC92E0F8D008D527
:10030000E0CFEF92FF920F931F93019799F56F3F04
:100310007F4F81F520E040E060E08DEE92E048D133
:1003200020E04FEF61E089EE92E042D12FE845E016
:1003300062E08FED92E0C2D3E12CF12C00E010E0FE
:1003400020E030E04BE051E061E08DEC92E00E9473
:10035000EE0C1092CC021092CB02EDEBF2E0138285
:100360001282118281E08083EFEAF2E0138212822E
:10037000118280831F910F91FF90EF900895CF938A
:10038000C82F9BD4811103C08C2F73D402C08C2F33
:10039000EBD4CF9108952FB7F89481E08823B9F07A
:1003A000EDEEF2E08281809593819F3F31F4E09100
:1003B000ED02F091EE02908106C0E091ED02F09125
:1003C000EE0290819095C82FC92380E0E7CF2FBF20
:1003D000C093AE028091AE0280958F3DA9F028F4C3
:1003E0008F3711F18F3BC1F026C08F3E31F08E3F29
:1003F00011F58091A602C3DF1EC0E3EAF2E081E0BE
:1004000080838283818317C0E3EAF2E081E0808306
:100410008AE0828381830FC0E0EAF2E081E080839A
:1004200082E08283818307C0E0EAF2E081E080839A
:100430008AE0828381836CD4AECF8091EC028F3FBF
:1004400039F4E091E902F091EA02828112820AC055
:10045000A9EEB2E0ED91FC911197928112968C91E8
:10046000892B8283EE24EA9400E010E020E030E063
:1004700040E050E064E670E08DEC92E00E94CB0D2D
:1004800062E086E491E08AD3C6EAD2E0888360E045
:100490008BEC91E083D38C8362E081E691E07ED3A4
:1004A0008D8360E070E080E01DD46FEF7FEF81E02E
:1004B00090E027CF08951F93CF93DF93EC0118812D
:1004C0007BD4181781F08881882321F075D477D4E4
:1004D0001FD4F5CF1FB7F8948881811102C06CD466
:1004E00088831FBFECCFDF91CF911F9108950F93A9
:1004F0001F93CF93DF93EC011FB7F89408815CD46E
:10050000081303C01882C1E001C0C0E01FBF00D4BF
:100510008C2FDF91CF911F910F910895FC018FB720
:10052000F8941382128211828FBF0895FC013FB7A5
:10053000F8949181911102C080E00EC0838121E086
:10054000280F2383DF01A80FB11D14968C919150C1
:1005500091832A3008F013823FBF0895FC012FB722
:10056000F89491819A30A0F08081813071F083817C
:100570008F5F8A3010F483830BC013828FEF890F53
:10058000818306C0128281E001C080E02FBF089500
:10059000828191E0980F9283DF01A80FB11D14961C
:1005A0006C9381818F5F81839A3060F781E0EECF19
:1005B0000F931F93CF93DF938C01862FC42FD22FDD
:1005C0000E94DF0FD80111969C938E93009769F0DB
:1005D0001396DC9313971296CC931297FC01C18368
:1005E000ED91FC91CD2BC095C283DF91CF911F91EE
:1005F0000F9108951F920F920FB60F9211240BB610
:100600000F922F933F934F935F936F937F938F93AB
:100610009F93AF93BF93EF93FF938091F1029091DB
:10062000F202009739F0DC01ED91FC910190F0812C
:10063000E02D1995FF91EF91BF91AF919F918F910F
:100640007F916F915F914F913F912F910F900BBED2
:100650000F900FBE0F901F9018951F920F920FB61C
:100660000F9211240BB60F922F933F934F935F93EA
:100670006F937F938F939F93AF93BF93EF93FF936A
:100680008091F5029091F602009739F0DC01ED912E
:10069000FC910190F081E02D1995FF91EF91BF91B0
:1006A000AF919F918F917F916F915F914F913F910A
:1006B0002F910F900BBE0F900FBE0F901F901895AB
:1006C0001F920F920FB60F9211240BB60F922F9319
:1006D0003F934F935F936F937F938F939F93AF93CA
:1006E000BF93EF93FF938091F3029091F4020097F0
:1006F00039F0DC01ED91FC910190F081E02D19952C
:10070000FF91EF91BF91AF919F918F917F916F91E9
:100710005F914F913F912F910F900BBE0F900FBEA5
:100720000F901F901895CF93DF93FC016FB7F8944B
:10073000A281B3811C92A281B381119780EF8C9327
:10074000A281B3818C9180628C9381E090E0A28140
:10075000B3814C919C01018402C0220F331F0A9483
:10076000E2F724272C9325E02A95F1F70000A281D7
:10077000B381ED01229728812295207F3C91AC0125
:10078000018402C0440F551F0A94E2F743274C939B
:100790003AE03A95F1F700C0A281B3813C91AC01F7
:1007A000018402C0440F551F0A94E2F743274C937B
:1007B00035E03A95F1F70000A281B381ED0122976F
:1007C00038813C91AC01018402C0440F551F0A944A
:1007D000E2F743274C9322230CF4B9CFA281B381D3
:1007E0008C918F7D8C930280F381E02D31978FEF78
:1007F00080836FBFDF91CF910895FC014FB7F894CC
:10080000A281B3815C9121E030E0C901018402C082
:10081000880F991F0A94E2F785278C9385E08A95C3
:10082000F1F70000A281B3818C91018402C0220FF4
:10083000331F0A94E2F728272C934FBF0895EF92B5
:10084000FF920F931F93CF93DF93EC01062F8C81C0
:10085000893011F0CE0167DF1FB7F894E02EF12C3C
:10086000F594E794F594E794F594E794F594E79478
:10087000EA81FB81E082CE01C0DF0F70EA81FB815B
:100880000083CE01BADFEA81FB8110828C8189303E
:1008900031F587EC90E00197F1F700C000001FC030
:1008A0001985143011F084E001C087E08987FFB614
:1008B000F894EA81FB81E082CE019FDFEA81FB812F
:1008C0000083CE019ADFEA81FB811082198787ECD1
:1008D00090E00197F1F700C00000FFBE04C01FBF09
:1008E0008C818930E9F2DF91CF911F910F91FF90B8
:1008F000EF900895CF93DF93FC01A581B6818C9191
:100900006817F0F411968C9111974817D8F4408726
:100910006783ED01C60FD11D8A81480F848189301C
:1009200039F48C918695681718F087E0818702C0AA
:1009300084E08187CF01642F606881DF81E003C09C
:1009400080E001C080E0DF91CF910895FC019085A7
:1009500081E0890F8087A581B68111962C9111972E
:10096000821788F08181882349F0108687818F5F04
:1009700087839C91891718F0178201C09087408562
:100980006781CF01B7CF08951F93CF93DF93EC0119
:10099000162F2FEF81EE94E0215080409040E1F738
:1009A00000C00000EA81FB8183E08083CE0125DF67
:1009B0008FE19EE40197F1F700C00000CE011DDF3A
:1009C0008FE19EE40197F1F700C00000CE0115DF32
:1009D0008FE19EE40197F1F700C00000EA81FB81FE
:1009E00082E08083CE0109DF8FE19EE40197F1F779
:1009F00000C00000612FCE0122DFED81FE818081E9
:100A0000813021F460E2CE011ADF03C068E2CE013A
:100A100016DF61E0CE0113DF8C81893031F48FE184
:100A20009EE40197F1F700C0000066E0CE0107DF09
:100A30008C81893009F03EC087E08987EA81FB819B
:100A400083E08083CE01D9DE8FE19EE40197F1F748
:100A500000C00000CE01D1DE8FE19EE40197F1F7E6
:100A600000C00000CE01C9DE8FE19EE40197F1F7DE
:100A700000C00000EA81FB8182E08083CE01BDDE00
:100A80008FE19EE40197F1F700C00000612FCE01D5
:100A9000D6DE68E2CE01D3DE61E0CE01D0DE8FE1AA
:100AA0009EE40197F1F700C0000066E0CE01C7DECA
:100AB00084E08987DF91CF911F9108950F931F9351
:100AC000CF93DF93EC01862F042F122F0E94DF0FAC
:100AD0009C012E5F3F4F3B832A8324E029870C83B0
:100AE000402F50E09A01220F331F420F531F440F33
:100AF000551F475F5D4F5E834D8318861F82212FF0
:100B0000221F2227221F29832FEFFC012183612F1F
:100B10006F776883CE0138DFDF91CF911F910F91FE
:100B200008950F931F93CF93DF93EC01162F8C81C1
:100B3000893011F0CE01F7DD0FB7F894812F82953F
:100B40008F708064EA81FB818083CE0156DE1F7046
:100B50001064EA81FB811083CE014FDEEA81FB81C4
:100B600010828C81893031F487EC90E00197F1F7A5
:100B700000C000000FBFCE01E9DEDF91CF911F91D1
:100B80000F910895789483B7817F83BF83B7816085
:100B900083BF889583B78E7F83BFF4CF782F8091F2
:100BA00008028F3F39F5E9E3F6E026E63CE1808371
:100BB000E55DFC4F2E173F07D1F74FB7F894EEE0F5
:100BC000F3E0108284E0828383831482158216828C
:100BD000178281E0818322EC35E020933806309340
:100BE00037061092360625E136E0328721871092CB
:100BF00008024FBF5FB7F894209139062F3F51F09C
:100C0000E4E6F9E022E030E0822FD90140814F3F55
:100C100031F503C0A1E0B0E081E0EBE2F3E0AE9F8C
:100C20009001AF9F300DBE9F300D1124F901E25F9E
:100C3000FC4F80836283638314821582168217823D
:100C400041E04183DF01A65DBC4F7C9311979C93EB
:100C500011971C922B5E394F3287218708C02F5F76
:100C60003F4FE55DFC4F2830310571F68FEF5FBFD8
:100C700008959FEF980F9730F8F44FB7F89490E0ED
:100C80002BE233E0829FF001839FF00D929FF00DE5
:100C90001124E25FFC4F20812F3F69F02BE233E00B
:100CA000829FF001839FF00D929FF00D1124E25F6F
:100CB000FC4F81E081834FBF08959FEF980F9730DD
:100CC00078F42BE233E0829FF001839FF00D112432
:100CD000E25FFC4F81E09181923019F480E0089549
:100CE00080E008958093FC027093FB026093FA0207
:100CF0006FE070E08DEF92E00E94430F10920802C7
:100D000010920F0378948DEF92E00E94170FFFCF9F
:100D10008091FC02813061F4789483B7817F83BF36
:100D200083B7816083BF889583B78E7F83BF089523
:100D30008DEF92E00E94170F909108022BE233E0B2
:100D4000929FF001939FF00D1124E25FFC4F4481CC
:100D5000558166817781480F511D611D711D448346
:100D600055836683778308959FEF980F9730F0F44B
:100D70006FB7F894282F30E04BE253E0249FF00146
:100D8000259FF00D349FF00D1124E25FFC4F908100
:100D90009F3F59F0249FF001259FF00D349FF00DE7
:100DA0001124E25FFC4F92E091836FBF90910802A3
:100DB000891301C0ADCF0895809108020895209154
:100DC000F902283099F1222329F090910002891329
:100DD0000BC00895809300021092F70281E0809387
:100DE000F8028093F9020895E1E0F2E048E052E071
:100DF00091918917D9F0E417F507D1F7E091F8023E
:100E0000E83048F08093000281E08093F8022F5F81
:100E10002093F902089591E09E0F9093F802F0E07C
:100E2000E050FE4F80832F5F2093F9020895909148
:100E3000F9029923A9F02091F702E22FF0E0E050A7
:100E4000FE4F80813FEF308391509093F9022F5FE6
:100E5000283018F42093F70208951092F7020895AD
:100E60008FEF0895FF93EF93DF93CF93BF93AF93EB
:100E70009F938F937F936F935F934F933F932F93A2
:100E80001F930F93FF92EF92DF92CF92BF92AF9298
:100E90009F928F927F926F925F924F923F922F928A
:100EA0001F920F92C09108022C2F30E08FB74BE2B7
:100EB00053E0249FF001259FF00D349FF00D112485
:100EC000E25FFC4F80878DB79EB7928781878481D0
:100ED0009581A681B7818F519F4FAF4FBF4F8483BC
:100EE0009583A683B783818181110DC08BE293E046
:100EF000289FF001299FF00D389FF00D1124E25F2B
:100F0000FC4F81E0818393DF8F3F19F080930802CB
:100F100041C08C2F4BE253E08F5F883008F081E0B6
:100F2000282F30E0249FF001259FF00D349FF00D15
:100F30001124E25FFC4F9181913041F5249FF00133
:100F4000259FF00D349FF00D1124E25FFC4F93813B
:100F5000992361F0249FF001259FF00D349FF00D3F
:100F60001124E25FFC4F91509383D6CF4BE253E0C4
:100F7000249FF001259FF00D349FF00D1124E25FB6
:100F8000FC4F928193838093080204C08C13C4CFDA
:100F900010920802209108028BE293E0289FF00152
:100FA000299FF00D1124E25FFC4F11829FB7F89446
:100FB0004091FF025091000320917D0230917E020A
:100FC0004217530751F4EDEFF2E0A481B5818C9103
:100FD00085608C93808986BD0AC0EDEFF2E0A48124
:100FE000B5818C9187608C9380898093B2009FBF7C
:100FF000209108028BE293E0289FF001299FF00DD9
:101000001124E25FFC4F20852FBF20910802289F0A
:10101000F001299FF00D1124E25FFC4F818592853C
:101020009EBF8DBF0F901F902F903F904F905F906D
:101030006F907F908F909F90AF90BF90CF90DF90F8
:10104000EF90FF900F911F912F913F914F915F91E2
:101050006F917F918F919F91AF91BF91CF91DF91D0
:10106000EF91FF91189560E08DEF92E0BCC6089576
:10107000CF93DF93EC01E885F985309709F0199556
:101080008A859B85892B39F4E881F9810190F0816B
:10109000E02DCE011995DF91CF910895CF93DF9385
:1010A000EC01EA85FB85309709F019958E859F85BF
:1010B000892B39F4E881F9810190F081E02DCE018E
:1010C0001995DF91CF9108950895CF93DF93EC01A7
:1010D000EE85FF85309709F01995E881F981019037
:1010E000F081E02DCE011995DF91CF910895DC01BB
:1010F0002FB7F89412964D915C91139780917D02D1
:1011000090917E024817590759F41496ED91FC917D
:10111000159780818560808350968C9186BD0BC029
:101120001496ED91FC91159790819760908350965D
:101130008C918093B2002FBF0895CF93DF93EC0181
:10114000E885F985309709F019958A859B85892B63
:1011500039F4E881F9810190F081E02DCE011995F3
:10116000DF91CF910895CF93DF93EC01EA85FB8562
:10117000309709F019958C859D85892B39F4E88184
:10118000F9810190F081E02DCE011995DF91CF9189
:101190000895CF93DF93EC01EC85FD85309709F03E
:1011A00019958E859F85892B39F4E881F981019005
:1011B000F081E02DCE011995DF91CF910895CF9365
:1011C000DF93EC01EE85FF85309709F01995E881F2
:1011D000F9810190F081E02DCE011995DF91CF9139
:1011E0000895FFCF1F920F920FB60F9211240BB6E6
:1011F0000F922F933F934F935F936F937F938F93B0
:101200009F93AF93BF93EF93FF938091661C909150
:10121000671C009739F0DC01ED91FC910280F381AD
:10122000E02D1995FF91EF91BF91AF919F918F9113
:101230007F916F915F914F913F912F910F900BBED6
:101240000F900FBE0F901F9018951F920F920FB620
:101250000F9211240BB60F922F933F934F935F93EE
:101260006F937F938F939F93AF93BF93EF93FF936E
:101270008091661C9091671C009739F0DC01ED911C
:10128000FC910480F581E02D1995FF91EF91BF91BC
:10129000AF919F918F917F916F915F914F913F910E
:1012A0002F910F900BBE0F900FBE0F901F901895AF
:1012B0001F920F920FB60F9211240BB60F922F931D
:1012C0003F934F935F936F937F938F939F93AF93CE
:1012D000BF93EF93FF9380916A1C90916B1C0097D2
:1012E00039F0DC01ED91FC910280F381E02D19953C
:1012F000FF91EF91BF91AF919F918F917F916F91EE
:101300005F914F913F912F910F900BBE0F900FBEA9
:101310000F901F9018951F920F920FB60F921124E5
:101320000BB60F922F933F934F935F936F937F93DF
:101330008F939F93AF93BF93EF93FF9380916A1C1A
:1013400090916B1C009739F0DC01ED91FC910480C9
:10135000F581E02D1995FF91EF91BF91AF919F918C
:101360008F917F916F915F914F913F912F910F904E
:101370000BBE0F900FBE0F901F9018951F920F92EB
:101380000FB60F9211240BB60F922F933F934F93EA
:101390005F936F937F938F939F93AF93BF93EF93DD
:1013A000FF938091681C9091691C009739F0DC01D3
:1013B000ED91FC910280F381E02D1995FF91EF9161
:1013C000BF91AF919F918F917F916F915F914F915D
:1013D0003F912F910F900BBE0F900FBE0F901F905B
:1013E00018951F920F920FB60F9211240BB60F9201
:1013F0002F933F934F935F936F937F938F939F931D
:10140000AF93BF93EF93FF938091681C9091691CF9
:10141000009739F0DC01ED91FC910480F581E02D1D
:101420001995FF91EF91BF91AF919F918F917F910E
:101430006F915F914F913F912F910F900BBE0F9045
:101440000FBE0F901F9018951F920F920FB60F921C
:1014500011240BB60F922F933F934F935F936F938B
:101460007F938F939F93AF93BF93EF93FF9380915D
:10147000681C9091691C009739F0DC01ED91FC919A
:101480000680F781E02D1995FF91EF91BF91AF9103
:101490009F918F917F916F915F914F913F912F918C
:1014A0000F900BBE0F900FBE0F901F9018951F92BC
:1014B0000F920FB60F9211240BB60F922F933F93FA
:1014C0004F935F936F937F938F939F93AF93BF934C
:1014D000EF93FF938091681C9091691C009739F0FD
:1014E000DC01ED91FC910084F185E02D1995FF91CF
:1014F000EF91BF91AF919F918F917F916F915F918C
:101500004F913F912F910F900BBE0F900FBE0F90F8
:101510001F9018951F920F920FB60F9211240BB6C1
:101520000F922F933F934F935F936F937F938F937C
:101530009F93AF93BF93EF93FF9380916C1C909117
:101540006D1C009739F0DC01ED91FC910280F38174
:10155000E02D1995FF91EF91BF91AF919F918F91E0
:101560007F916F915F914F913F912F910F900BBEA3
:101570000F900FBE0F901F9018951F920F920FB6ED
:101580000F9211240BB60F922F933F934F935F93BB
:101590006F937F938F939F93AF93BF93EF93FF933B
:1015A00080916C1C90916D1C009739F0DC01ED91DD
:1015B000FC910480F581E02D1995FF91EF91BF9189
:1015C000AF919F918F917F916F915F914F913F91DB
:1015D0002F910F900BBE0F900FBE0F901F9018957C
:1015E0001F920F920FB60F9211240BB60F922F93EA
:1015F0003F934F935F936F937F938F939F93AF939B
:10160000BF93EF93FF9380916C1C90916D1C00979A
:1016100039F0DC01ED91FC910680F781E02D199500
:10162000FF91EF91BF91AF919F918F917F916F91BA
:101630005F914F913F912F910F900BBE0F900FBE76
:101640000F901F9018951F920F920FB60F921124B2
:101650000BB60F922F933F934F935F936F937F93AC
:101660008F939F93AF93BF93EF93FF9380916C1CE5
:1016700090916D1C009739F0DC01ED91FC91008494
:10168000F185E02D1995FF91EF91BF91AF919F9159
:101690008F917F916F915F914F913F912F910F901B
:1016A0000BBE0F900FBE0F901F9018951F920F92B8
:1016B0000FB60F9211240BB60F922F933F934F93B7
:1016C0005F936F937F938F939F93AF93BF93EF93AA
:1016D000FF9380916E1C90916F1C009739F0DC0194
:1016E000ED91FC910280F381E02D1995FF91EF912E
:1016F000BF91AF919F918F917F916F915F914F912A
:101700003F912F910F900BBE0F900FBE0F901F9027
:1017100018951F920F920FB60F9211240BB60F92CD
:101720002F933F934F935F936F937F938F939F93E9
:10173000AF93BF93EF93FF9380916E1C90916F1CBA
:10174000009739F0DC01ED91FC910480F581E02DEA
:101750001995FF91EF91BF91AF919F918F917F91DB
:101760006F915F914F913F912F910F900BBE0F9012
:101770000FBE0F901F9018951F920F920FB60F92E9
:1017800011240BB60F922F933F934F935F936F9358
:101790007F938F939F93AF93BF93EF93FF9380912A
:1017A0006E1C90916F1C009739F0DC01ED91FC915B
:1017B0000680F781E02D1995FF91EF91BF91AF91D0
:1017C0009F918F917F916F915F914F913F912F9159
:1017D0000F900BBE0F900FBE0F901F9018951F9289
:1017E0000F920FB60F9211240BB60F922F933F93C7
:1017F0004F935F936F937F938F939F93AF93BF9319
:10180000EF93FF9380916E1C90916F1C009739F0BD
:10181000DC01ED91FC910084F185E02D1995FF919B
:10182000EF91BF91AF919F918F917F916F915F9158
:101830004F913F912F910F900BBE0F900FBE0F90C5
:101840001F9018951F920F920FB60F9211240BB68E
:101850000F922F933F934F935F936F937F938F9349
:101860009F93AF93BF93EF93FF938091701C9091E0
:10187000711C009739F0DC01ED91FC910280F3813D
:10188000E02D1995FF91EF91BF91AF919F918F91AD
:101890007F916F915F914F913F912F910F900BBE70
:1018A0000F900FBE0F901F9018951F920F920FB6BA
:1018B0000F9211240BB60F922F933F934F935F9388
:1018C0006F937F938F939F93AF93BF93EF93FF9308
:1018D0008091701C9091711C009739F0DC01ED91A2
:1018E000FC910480F581E02D1995FF91EF91BF9156
:1018F000AF919F918F917F916F915F914F913F91A8
:101900002F910F900BBE0F900FBE0F901F90189548
:101910001F920F920FB60F9211240BB60F922F93B6
:101920003F934F935F936F937F938F939F93AF9367
:10193000BF93EF93FF938091701C9091711C00975F
:1019400039F0DC01ED91FC910680F781E02D1995CD
:10195000FF91EF91BF91AF919F918F917F916F9187
:101960005F914F913F912F910F900BBE0F900FBE43
:101970000F901F9018951F920F920FB60F9211247F
:101980000BB60F922F933F934F935F936F937F9379
:101990008F939F93AF93BF93EF93FF938091701CAE
:1019A0009091711C009739F0DC01ED91FC9100845D
:1019B000F185E02D1995FF91EF91BF91AF919F9126
:1019C0008F917F916F915F914F913F912F910F90E8
:1019D0000BBE0F900FBE0F901F9018959F92AF9265
:1019E000BF92CF92DF92EF92FF920F931F93CF930C
:1019F000DF93EC01962E5A01690189E492E0998304
:101A00008883862F00D39B838A83E92DF0E0EE0F35
:101A1000FF1FE358FD4F8081918101969D838C8348
:101A200083E792E09983888381E0981226C0D0935F
:101A3000691CC093681CA114B10429F0EFE6F0E022
:101A4000808182608083C114D10429F0EFE6F0E048
:101A50008081846080830115110529F0EFE6F0E0B4
:101A6000808188608083E114F10409F47EC0EFE690
:101A7000F0E080818160808378C083E0981226C086
:101A8000D0936D1CC0936C1CA114B10429F0E1E744
:101A9000F0E0808182608083C114D10429F0E1E705
:101AA000F0E08081846080830115110529F0E1E771
:101AB000F0E0808188608083E114F10409F455C06E
:101AC000E1E7F0E08081816080834FC084E098127C
:101AD00025C0D0936F1CC0936E1CA114B10429F0D3
:101AE000E2E7F0E0808182608083C114D10429F0B4
:101AF000E2E7F0E08081846080830115110529F020
:101B0000E2E7F0E0808188608083E114F10469F10C
:101B1000E2E7F0E080818160808327C085E0981251
:101B20002EC0D093711CC093701CA114B10429F075
:101B3000E3E7F0E0808182608083C114D10429F062
:101B4000E3E7F0E08081846080830115110529F0CE
:101B5000E3E7F0E0808188608083E114F10429F0FC
:101B6000E3E7F0E0808181608083B986A886DB8628
:101B7000CA861D870C87FF86EE861E821F82DF9134
:101B8000CF911F910F91FF90EF90DF90CF90BF907A
:101B9000AF909F900895EF92FF920F931F93CF9372
:101BA000DF93FC01FFB6F894A481B5818C91887F06
:101BB0008C93A481B5818C9185608C93A62FB72FCF
:101BC000A23181E1B80710F0A1E1B1E18FE08A9F75
:101BD000E0018B9FD00D1124642F752F623181E1BC
:101BE000780710F061E171E18FE0869FD001879F57
:101BF000B00D1124422F532F423181E1580710F0CC
:101C000041E151E18FE0849FB001859F700D112467
:101C1000202F312F223181E1380710F021E131E10D
:101C20008FE0829FA001839F500D1124518B408B28
:101C30008281938120917F023091800282179307E5
:101C400089F4D0938900C0938800B0938B00A0934F
:101C50008A0070938D0060938C00509385004093B0
:101C6000840040C020918302309184028217930740
:101C700089F4D0939900C0939800B0939B00A093EF
:101C80009A0070939D0060939C0050939500409340
:101C9000940028C020918502309186028217930714
:101CA00089F4D093A900C093A800B093AB00A0938F
:101CB000AA007093AD006093AC005093A5004093D0
:101CC000A40010C0D0932901C0932801B0932B0128
:101CD000A0932A0170932D0160932C01509325014C
:101CE00040932401E68281E08783FFBEDF91CF919C
:101CF0001F910F91FF90EF900895BF92CF92DF92C6
:101D0000EF92FF920F931F93CF93DF93EC01B62EC8
:101D10006A01790189E492E099838883862F73D1DF
:101D20009B838A83EB2DF0E0EE0FFF1FE358FD4FFE
:101D30008081918101969D838C8387E592E09983D0
:101D40008883B1101DC0D093671CC093661CC1145A
:101D5000D10429F0EEE6F0E0808182608083E11416
:101D6000F10429F0EEE6F0E08081846080830115C3
:101D7000110529F1EEE6F0E08081816080831FC0CB
:101D800082E0B81226C0D0936B1CC0936A1CC114A9
:101D9000D10429F0E0E7F0E0808182608083E114E3
:101DA000F10429F0E0E7F0E0808184608083011590
:101DB000110529F0E0E7F0E0808181608083D98619
:101DC000C886FB86EA861D861C861F870E871E82B4
:101DD0001F82DF91CF911F910F91FF90EF90DF90C5
:101DE000CF90BF900895EF92FF920F931F93CF93E0
:101DF0007C01C62F00E010E020E030E040E050E041
:101E00007CDF85E692E0F70191838083C11104C0F5
:101E100081E080936E0005C0C23019F481E08093A8
:101E20007000CF911F910F91FF90EF900895DC010A
:101E30002FB7F89483B7817F83BF12964D915C9141
:101E4000139780917D0290917E024817590721F4E3
:101E500086B59FEF96BD05C0E2EBF0E080819FEF75
:101E600090831496ED91FC91159791E090832FBF8C
:101E700093B7916093BF889593B79E7F93BF509619
:101E80009C91891B0895FC014FB7F894A481B581FA
:101E90008C91887F8C93862F972F8231910510F03B
:101EA00081E190E0982F990F890F982F990F990F42
:101EB000890F8095808B2281338180917D02909162
:101EC0007E022817390741F4A481B5818C91856081
:101ED0008C93808986BD08C0A481B5818C91876070
:101EE0008C9380898093B2008FEF868381E0878313
:101EF0004FBF0895FC019FB7F894A481B5818C91E0
:101F0000887F8C93168217829FBF0895FC0186817B
:101F10008230B8F18F3F11F08150868382819381A6
:101F200020917F02309180028217930739F48089D3
:101F30009189909385008093840008952091830275
:101F4000309184028217930739F4808991899093A4
:101F50009500809394000895209185023091860227
:101F60008217930739F4808991899093A500809313
:101F7000A40008958089918990932501809324017C
:101F80000895CF01B7CF0895FC0186818230A0F07B
:101F90008F3F11F0815086832281338180917D02B1
:101FA00090917E022817390719F4808986BD08951B
:101FB00080898093B2000895CF019CCF0895282F87
:101FC00030E041E050E0BA0102C0660F771F8A9509
:101FD000E2F7CB014091731C5091741C642375236C
:101FE000672B71F4842B952B9093741C8093731C36
:101FF000220F331FF901E757FD4F8081918108952A
:1020000080E090E008956091721C282F30E0462F08
:1020100050E0082E02C0559547950A94E2F740FD1E
:1020200014C041E050E0FA0102C0EE0FFF1F8A9594
:10203000E2F7CF01862B8093721C220F331FF90128
:10204000E358FD4F80819181089580E090E00895EC
:10205000EE0FFF1F881F8BBF0790F691E02D19949C
:04206000F894FFCF22
:10206400FFFFFFFFFFFFFFFFFF011400000000015F
:1020740018000000000128000000000210004000C9
:102084000002140040000002180040000002280072
:10209400400000041000401050041400401050048C
:1020A400280040004000000000F108F108F108F1A8
:1020B40008F10800000000C40F38084E08640865E1
:1020C4000800000000770838084E08640865080016
:1020D400000000860F9D08B308C908DF084400808B
:1020E40000B0009000A00020012000230026002959
:1020F400002C002F00320000010301060109010039
:00000001FF
