S00C000041352E322E7372656342
S113000073C0000001C10000FFC00000FDC000007B
S1130010FBC00000F9C00000F7C00000F5C00000FC
S1130020F3C00000F7C5000028C6000059C6000050
S1130030EBC000000C94C70C0C94FA0CE5C0000053
S1130040E3C000000C942D0D0C94600D0C94930DE2
S11300500C94C60D0C94610C0C94940C0C94A10A91
S1130060D3C00000D1C00000CFC00000CDC000004C
S1130070CBC00000C9C00000C7C00000C5C000005C
S11300800C94F90D0C942C0E0C945F0E0C94920E9F
S1130090BBC00000B9C00000B7C00000B5C000007C
S11300A0B3C00000B1C000000C94C50E0C94F80E4F
S11300B00C942B0F0C945E0FA7C000000C94910FAE
S11300C00C94C40F0C94F70F0C942A109DC00000DC
S11300D09BC0000099C0000097C0000095C00000BC
S11300E093C00000B104A20B14BE0FB6F894A895F7
S11300F080916000886180936000109260000FBE60
S113010014BE0FB6F894A89580916000886180931E
S11301106000109260000FBE14BE0FB6F894A8954C
S113012080916000886180936000109260000FBE2F
S113013014BE0FB6F894A8958091600088618093EE
S11301406000109260000FBE14BE0FB6F894A8951C
S113015080916000886180936000109260000FBEFF
S113016014BE0FB6F894A8958091600088618093BE
S11301706000109260000FBE14BE0FB6F894A895EC
S113018080916000886180936000109260000FBECF
S113019014BE0FB6F894A89580916000886180938E
S11301A06000109260000FBE11241FBECFEFD1E299
S11301B0DEBFCDBF00E00CBF12E0A0E0B2E0E2E49D
S11301C0F7E200E00BBF02C007900D92A83EB10712
S11301D0D9F72DE1A8EEB2E001C01D92A530B20717
S11301E0E1F710E0C4E7D0E000E006C02197010980
S11301F0802FFE010E949713C237D10780E00807C1
S1130200A9F766D30C949F13FBCE80917E038823B9
S1130210F9F0EEE7F3E0818181508183811118C008
S11302202FB7F89481E0882371F0AAE6B3E0129620
S1130230ED91FC911397928114968C918F7089277C
S1130240828380E0F0CF2FBFEEE7F3E082818183E9
S113025080917B038823F9F0EBE7F3E081818150FF
S11302608183811118C02FB7F89481E0882371F03D
S1130270AAE6B3E01296ED91FC911397928114963D
S11302808C91807F8927828380E0F0CF2FBFEBE7BA
S1130290F3E0828181830895C0E0D3E08A819B8169
S11302A066D3EC81FD818181882341F08091020332
S11302B09091030378D30E94F7092AC0A0E0B3E029
S11302C01896ED91FC9119971B968C91E80FF11DEE
S11302D060816623B9F0809104039091050392D361
S11302E081110AC0E0E0F3E08385815083878B307D
S11302F028F310920B03E2CFE0E0F3E083858F5FF5
S11303008387DCCFE0E0F3E01386828193814BD3D3
S11303100E94F709C1CFBF92CF92DF92EF92FF9272
S11303200F931F93CF93DF93019709F0C8C06F3FDA
S11303307F4F09F0C4C000E010E020E040E069E035
S113034080E793E000D520E04FEF60E08AE693E099
S11303503DD42FE849E062E080E693E009D7E12C40
S1130360F12C20E030E045E051E061E08EE493E0E0
S11303700E945D1010924D0310924C030F2EFEE369
S1130380CF2EF3E0DF2EF02DD60113961C92139797
S113039012961C92129711961C921197BB24B39437
S11303A0BC92C0E3D3E01B821A821982B88264E053
S11303B089E692E062D7E4E2F3E0808311820F2EB3
S11303C0FDE4EF2EF3E0FF2EF02DF382E282D582DE
S11303D0C48284E292E09187808781E382871682D7
S11303E01782138664E086EA92E047D7E8E1F3E0F7
S11303F080831182F382E282D582C4828CE192E00E
S11304009187808782E38287B6821782138664E0AD
S113041083EE92E032D7ECE0F3E0808311820CE4C7
S113042013E013830283D583C48389E092E0918728
S1130430808783E3828782E086831782138664E061
S11304408CE491E01AD7E0E0F3E080831182138317
S11304500283D583C48381E192E09187808784E31A
S1130460828783E086831782138664E080E293E0C8
S113047004D7E4EFF2E08083B182F382E282D58292
S1130480C48211861086E12CF12CD7018C918287CD
S113049016821782138664E084E993E0EED6E8EED0
S11304A0F2E08083B18213830283D583C4831186EF
S11304B01086D7018C918287168217821386DF916A
S11304C0CF911F910F91FF90EF90DF90CF90BF904D
S11304D00895C4E2D3E08A819B8149D2EC81FD81F5
S11304E08181882339F080912603909127035BD280
S11304F07ED72AC0A4E2B3E01896ED91FC91199737
S11305001B968C91E80FF11D60816623B9F08091F0
S113051028039091290376D281110AC0E4E2F3E022
S11305208385815083878B3028F310922F03E2CF89
S1130530E4E2F3E083858F5F8387DCCFE4E2F3E0DA
S11305401386828193812FD252D7C3CFC8E1D3E0DF
S11305508A819B810CD2EC81FD818181882339F0D1
S113056080911A0390911B031ED241D72AC0A8E19F
S1130570B3E01896ED91FC9119971B968C91E80FB6
S1130580F11D60816623B9F080911C0390911D03D5
S113059039D281110AC0E8E1F3E083858150838771
S11305A08B3028F310922303E2CFE8E1F3E0838554
S11305B08F5F8387DCCFE8E1F3E013868281938148
S11305C0F2D115D7C3CFCCE0D3E08A819B81CFD1C0
S11305D0EC81FD818181882339F080910E03909113
S11305E00F03E1D104D72AC0ACE0B3E01896ED9133
S11305F0FC9119971B968C91E80FF11D608166237D
S1130600B9F08091100390911103FCD181110AC0BB
S1130610ECE0F3E08385815083878B3028F31092DC
S11306201703E2CFECE0F3E083858F5F8387DCCFB1
S1130630ECE0F3E0138682819381B5D1D8D6C3CFA1
S1130640809125038823A9F1C4EFD2E08A819B819C
S11306508ED18C819D81BED1882329F190912E0366
S113066089131BC08091F8029091F902FC01218149
S1130670222389F0AFD1182FC4E2D3E04F816E81D9
S113068080E693E091D4612F80E693E0A4D58F8136
S11306908F5F8F83E7CF10922B038091F6029091A6
S11306A0F70281D106C08091F6029091F7027BD1C6
S11306B09ED6809119038823A9F1C4EFD2E08A81E0
S11306C09B8155D18C819D8185D1882329F190917D
S11306D0220389131BC08091F8029091F902FC0156
S11306E02181222389F076D1182FC8E1D3E04F81EC
S11306F06E8180E693E058D4612F80E693E06BD559
S11307008F818F5F8F83E7CF10921F038091F60252
S11307109091F70248D106C08091F6029091F702B9
S113072042D165D664D68CCF80910D038823A9F17C
S1130730C8EED2E08A819B811AD18C819D814AD1F5
S1130740882329F19091160389131BC08091EC0230
S11307509091ED02FC012181222389F03BD1182FD5
S1130760CCE0D3E04F816E8180E693E01DD4612F0D
S113077080E693E030D58F818F5F8F83E7CF10922F
S113078013038091EA029091EB020DD106C080918F
S1130790EA029091EB0207D12AD6809101038823C3
S11307A0A9F1C8EED2E08A819B81E1D08C819D8140
S11307B011D1882329F190910A0389131BC08091D8
S11307C0EC029091ED02FC012181222389F002D1F7
S11307D0182FC0E0D3E04F816E8180E693E0E4D32C
S11307E0612F80E693E0F7D48F818F5F8F83E7CF0B
S11307F0109207038091EA029091EB02D4D006C0D4
S11308008091EA029091EB02CED0F1D5F0D58CCF55
S1130810CF93DF93EC018881BFD5811105C0888116
S113082097D581E0898308C088810DD640E060E0D7
S113083080E693E0B9D31982DF91CF910895E0E780
S1130840F3E081859185118680958F3E11F138F40E
S11308508F3B71F18F3D21F18F3789F731C08B3F89
S113086081F018F4873F89F0EACF8D3F31F08E3F55
S113087031F784E293E0CCDFE2CF88E193E0C8DF94
S1130880DECF8CE093E0C4DFDACF80E093E0C0DF1A
S1130890D6CFEEE7F3E081E0808382838183CFCFFC
S11308A0EEE7F3E081E0808383E082838183C7CF36
S11308B0EBE7F3E081E0808382E082838183BFCF32
S11308C0EBE7F3E081E0808384E082838183B7CF28
S11308D0EE24EA9400E010E020E030E040E050E054
S11308E064EF71E08EE493E00E943A1160E08FE1DE
S11308F094E0C3D440E060E080E693E055D380E622
S113090093E09AD42FB7F89481E001C080E0882363
S1130910B9F080916F038F3F39F4E0916C03F0914B
S11309206D0382811282F2CFAAE6B3E01296ED91B2
S1130930FC911397928114968C91892B8283E6CF34
S11309402FBF809124037FD5809118037CD580919B
S11309500C0379D58091000376D560E070E080E0E7
S113096030D56FEF7FEF81E090E0D5CC08951F93F1
S1130970CF93DF93EC0118818ED5181781F088810D
S1130980882321F088D58AD532D5F5CF1FB7F894BE
S11309908881811102C07FD588831FBFECCFDF918E
S11309A0CF911F9108950F931F93CF93DF93EC0181
S11309B01FB7F89408816FD5081303C01882C1E0EB
S11309C001C0C0E01FBF13D58C2FDF91CF911F91C1
S11309D00F910895FC013FB7F8949181911102C0E1
S11309E080E00EC0838121E0280F2383DF01A80F5C
S11309F0B11D14968C91915091832A3008F0138282
S1130A003FBF0895FC012FB7F89491819A30A0F06C
S1130A108081813071F083818F5F8A3010F4838309
S1130A200BC013828FEF890F818306C0128281E08D
S1130A3001C080E02FBF0895828191E0980F9283D6
S1130A40DF01A80FB11D14966C9381818F5F8183A0
S1130A509A3060F781E0EECFDC012FB7F89412965C
S1130A60ED91FC91139714969C91149715968C9183
S1130A708F3F09F06095692362832FBF0895FC01BD
S1130A802FB7F89485818F3F59F4A281B3811296D0
S1130A908C91129794816923682B12966C930BC0E6
S1130AA0A281B38112969C911297848189236095C7
S1130AB0682312966C932FBF0895FC012FB7F89406
S1130AC085818F3F61F4A281B38112969C91129724
S1130AD0848189236095682312966C930AC0A2814D
S1130AE0B38112969C91129784816823692B129684
S1130AF06C932FBF0895DC012FB7F8941296ED91F3
S1130B00FC911397928114968C91682369276283D0
S1130B102FBF0895FC012FB7F89484818095682332
S1130B2085818F3F29F40280F381E02D808106C006
S1130B300280F381E02D9081892F80952FBF862339
S1130B400895CF93DF93EC01E881F9810084F18566
S1130B50E02D6FEF19959A852885382F30959323CA
S1130B60922B98879A85298590959823922B99871B
S1130B708A87EE81FF81309709F01995DF91CF9133
S1130B800895EF92FF921F93CF93DF937C01D62FAA
S1130B901FB7F894D70114966C9114976095ED9152
S1130BA0FC910084F185E02DC7011995C82F80952B
S1130BB08D2309F41CD41FBF8C2F8D2349F38C2F54
S1130BC0DF91CF911F91FF90EF9008950F931F93A2
S1130BD0CF93DF938C01862FD42FC22F25E432E0EC
S1130BE0D8012D933C930E944E13F8019383828382
S1130BF0D483C583009749F0DC011196DC9302800D
S1130C00F381E02DCD2BC095C283DF91CF911F914D
S1130C100F9108951F920F920FB60F9211240BB6E5
S1130C200F922F933F934F935F936F937F938F9381
S1130C309F93AF93BF93EF93FF9380918103909120
S1130C408203009739F0DC01ED91FC910484F58571
S1130C50E02D1995FF91EF91BF91AF919F918F91E5
S1130C607F916F915F914F913F912F910F900BBEA8
S1130C700F900FBE0F901F9018951F920F920FB6F2
S1130C800F9211240BB60F922F933F934F935F93C0
S1130C906F937F938F939F93AF93BF93EF93FF9340
S1130CA08091850390918603009739F0DC01ED91E2
S1130CB0FC910484F585E02D1995FF91EF91BF9186
S1130CC0AF919F918F917F916F915F914F913F91E0
S1130CD02F910F900BBE0F900FBE0F901F90189581
S1130CE01F920F920FB60F9211240BB60F922F93EF
S1130CF03F934F935F936F937F938F939F93AF93A0
S1130D00BF93EF93FF9380918303909184030097A3
S1130D1039F0DC01ED91FC910484F585E02D199501
S1130D20FF91EF91BF91AF919F918F917F916F91BF
S1130D305F914F913F912F910F900BBE0F900FBE7B
S1130D400F901F901895FF920F931F93CF93DF93EB
S1130D50EC01F62E3BDF83E392E0998388831F83C3
S1130D600E83188619861A8681E0F8120EC0D09375
S1130D708203C0938103E8E6F0E080818160808390
S1130D808C81809580936B0022C089E0F8120EC09C
S1130D90D0938403C0938303E8E6F0E08081846009
S1130DA080838C81809580936D0011C088E0F81257
S1130DB00EC0D0938603C0938503E8E6F0E08081FB
S1130DC0826080838C818095880F80936C00DF9192
S1130DD0CF911F910F91FF900895CF93DF93FC0162
S1130DE06FB7F894A281B3811C92A281B381119749
S1130DF080EF8C93A281B3818C9180628C9381E08B
S1130E0090E0A281B3814C919C01018402C0220F25
S1130E10331F0A94E2F724272C9325E02A95F1F74F
S1130E200000A281B381ED01229728812295207FC1
S1130E303C91AC01018402C0440F551F0A94E2F7AF
S1130E4043274C933AE03A95F1F700C0A281B3816D
S1130E503C91AC01018402C0440F551F0A94E2F78F
S1130E6043274C9335E03A95F1F70000A281B38112
S1130E70ED01229738813C91AC01018402C0440FFA
S1130E80551F0A94E2F743274C9322230CF4B9CF5D
S1130E90A281B3818C918F7D8C930280F381E02DAC
S1130EA031978FEF80836FBFDF91CF910895FC015D
S1130EB04FB7F894A281B3815C9121E030E0C9017D
S1130EC0018402C0880F991F0A94E2F785278C9346
S1130ED085E08A95F1F70000A281B3818C910184A9
S1130EE002C0220F331F0A94E2F728272C934FBF26
S1130EF00895EF92FF920F931F93CF93DF93EC012A
S1130F00062F8C81893011F0CE0167DF1FB7F8946A
S1130F10E02EF12CF594E794F594E794F594E79496
S1130F20F594E794EA81FB81E082CE01C0DF0F7083
S1130F30EA81FB810083CE01BADFEA81FB81108262
S1130F408C81893031F587EC90E00197F1F700C08E
S1130F5000001FC01985143011F084E001C087E03F
S1130F608987FFB6F894EA81FB81E082CE019FDF96
S1130F70EA81FB810083CE019ADFEA81FB81108242
S1130F80198787EC90E00197F1F700C00000FFBEDD
S1130F9004C01FBF8C818930E9F2DF91CF911F918A
S1130FA00F91FF90EF900895CF93DF93FC01A581FB
S1130FB0B6818C916817F0F411968C9111974817AB
S1130FC0D8F440876783ED01C60FD11D8A81480F8D
S1130FD08481893039F48C918695681718F087E0FC
S1130FE0818702C084E08187CF01642F606881DF3C
S1130FF081E003C080E001C080E0DF91CF910895DB
S1131000FC01908581E0890F8087A581B6811196C6
S11310102C911197821788F08181882349F01086DA
S113102087818F5F87839C91891718F0178201C08D
S1131030908740856781CF01B7CF08951F93CF93E1
S1131040DF93EC01162F2FEF81EE94E021508040C6
S11310509040E1F700C00000EA81FB8183E08083D7
S1131060CE0125DF8FE19EE40197F1F700C0000077
S1131070CE011DDF8FE19EE40197F1F700C000006F
S1131080CE0115DF8FE19EE40197F1F700C0000067
S1131090EA81FB8182E08083CE0109DF8FE19EE457
S11310A00197F1F700C00000612FCE0122DFED812E
S11310B0FE818081813021F460E2CE011ADF03C019
S11310C068E2CE0116DF61E0CE0113DF8C81893046
S11310D031F48FE19EE40197F1F700C0000066E06F
S11310E0CE0107DF8C81893009F03EC087E0898713
S11310F0EA81FB8183E08083CE01D9DE8FE19EE427
S11311000197F1F700C00000CE01D1DE8FE19EE42B
S11311100197F1F700C00000CE01C9DE8FE19EE423
S11311200197F1F700C00000EA81FB8182E080832F
S1131130CE01BDDE8FE19EE40197F1F700C000000F
S1131140612FCE01D6DE68E2CE01D3DE61E0CE01AE
S1131150D0DE8FE19EE40197F1F700C0000066E065
S1131160CE01C7DE84E08987DF91CF911F91089576
S11311700F931F93CF93DF93EC01862F042F122F2D
S11311800E944E139C012E5F3F4F3B832A8324E031
S113119029870C83402F50E09A01220F331F420FFE
S11311A0531F440F551F4F5A5D4F5E834D8318865E
S11311B01F82212F221F2227221F29832FEFFC01A8
S11311C02183612F6F776883CE0138DFDF91CF9160
S11311D01F910F9108950F931F93CF93DF93EC0109
S11311E0162F8C81893011F0CE01F7DD0FB7F894FA
S11311F0812F82958F708064EA81FB818083CE0188
S113120056DE1F701064EA81FB811083CE014FDE2D
S1131210EA81FB8110828C81893031F487EC90E083
S11312200197F1F700C000000FBFCE01E9DEDF91A6
S1131230CF911F910F910895CF93DF93EC0161E05B
S113124058DE8C81893031F48FE19EE40197F1F707
S113125000C0000018861F8284E08987DF91CF9147
S11312600895789483B7817F83BF83B7816083BFF8
S1131270889583B78E7F83BFF4CF782F809108023F
S11312808F3F39F5E9ECF6E026EF3CE18083E55D3C
S1131290FC4F2E173F07D1F74FB7F894EEE9F3E070
S11312A0108284E0828383831482158216821782DB
S11312B081E0818321E339E02093C8063093C70697
S11312C01092C60625EA36E032872187109208027A
S11312D04FBF5FB7F8942091C9062F3F51F0E4EF58
S11312E0F9E022E030E0822FD90140814F3F31F50F
S11312F003C0A1E0B0E081E0EBE2F3E0AE9F900137
S1131300AF9F300DBE9F300D1124F901E256FC4F02
S1131310808362836383148215821682178241E07C
S11313204183DF01A65DBC4F7C9311979C93119779
S11313301C922B55394F3287218708C02F5F3F4FAE
S1131340E55DFC4F2830310571F68FEF5FBF0895DE
S11313509FEF980F9730F8F44FB7F89490E02BE292
S113136033E0829FF001839FF00D929FF00D1124D2
S1131370E256FC4F20812F3F69F02BE233E0829F3D
S1131380F001839FF00D929FF00D1124E256FC4F63
S113139081E081834FBF08959FEF980F973078F4D1
S11313A02BE233E0829FF001839FF00D1124E2567B
S11313B0FC4F81E09181923019F480E0089580E03F
S11313C0089580938C0370938B0360938A036FE07A
S11313D070E08DE893E00E94B2121092080210921D
S11313E09F0378948DE893E00E948612FFCF80914A
S11313F08C03813061F4789483B7817F83BF83B792
S1131400816083BF889583B78E7F83BF08958DE8FD
S113141093E00E948612909108022BE233E0929F9F
S1131420F001939FF00D1124E256FC4F4481558145
S113143066817781480F511D611D711D4483558359
S11314406683778308959FEF980F9730F0F46FB712
S1131450F894282F30E04BE253E0249FF001259FBD
S1131460F00D349FF00D1124E256FC4F90819F3F04
S113147059F0249FF001259FF00D349FF00D1124A5
S1131480E256FC4F92E091836FBF9091080289135A
S113149001C0ADCF08958091080208952091890379
S11314A0283099F1222329F09091000289130BC06E
S11314B00895809300021092870381E0809388034B
S11314C0809389030895E1E0F2E048E052E09191CD
S11314D08917D9F0E417F507D1F7E0918803E830CC
S11314E048F08093000281E0809388032F5F20936B
S11314F08903089591E09E0F90938803F0E0E050F3
S1131500FE4F80832F5F2093890308959091890370
S11315109923A9F020918703E22FF0E0E050FE4FD9
S113152080813FEF30839150909389032F5F28305F
S113153018F42093870308951092870308958FEF7A
S11315400895FF93EF93DF93CF93BF93AF939F934C
S11315508F937F936F935F934F933F932F931F9337
S11315600F93FF92EF92DF92CF92BF92AF929F922E
S11315708F927F926F925F924F923F922F921F921F
S11315800F92C09108022C2F30E08FB74BE253E04A
S1131590249FF001259FF00D349FF00D1124E25695
S11315A0FC4F80878DB79EB7928781878481958110
S11315B0A681B7818F519F4FAF4FBF4F84839583CF
S11315C0A683B783818181110DC08BE293E0289FAC
S11315D0F001299FF00D389FF00D1124E256FC4FC5
S11315E081E0818393DF8F3F19F08093080241C02B
S11315F08C2F4BE253E08F5F883008F081E0282F76
S113160030E0249FF001259FF00D349FF00D11244C
S1131610E256FC4F9181913041F5249FF001259FC2
S1131620F00D349FF00D1124E256FC4F9381992361
S113163061F0249FF001259FF00D349FF00D1124DB
S1131640E256FC4F91509383D6CF4BE253E0249F54
S1131650F001259FF00D349FF00D1124E256FC4F4C
S1131660928193838093080204C08C13C4CF109298
S11316700802209108028BE293E0289FF001299F41
S1131680F00D1124E256FC4F11829FB7F89440915B
S11316908F03509190032091C5023091C6024217E6
S11316A0530751F4EDE8F3E0A481B5818C91856092
S11316B08C93808986BD0AC0EDE8F3E0A481B581EE
S11316C08C9187608C9380898093B2009FBF209116
S11316D008028BE293E0289FF001299FF00D11246A
S11316E0E256FC4F20852FBF20910802289FF0016D
S11316F0299FF00D1124E256FC4F818592859EBFEF
S11317008DBF0F901F902F903F904F905F906F90E0
S11317107F908F909F90AF90BF90CF90DF90EF908D
S1131720FF900F911F912F913F914F915F916F9176
S11317307F918F919F91AF91BF91CF91DF91EF9165
S1131740FF91189560E08DE893E0BCC60895CF93AF
S1131750DF93EC01E885F985309709F019958A85BE
S11317609B85892B39F4E881F9810190F081E02D82
S1131770CE011995DF91CF910895CF93DF93EC01BA
S1131780EA85FB85309709F019958E859F85892B0D
S113179039F4E881F9810190F081E02DCE011995A9
S11317A0DF91CF9108950895CF93DF93EC01EE85F7
S11317B0FF85309709F01995E881F9810190F0814E
S11317C0E02DCE011995DF91CF910895DC012FB75B
S11317D0F89412964D915C9113978091C502909163
S11317E0C6024817590759F41496ED91FC911597C0
S11317F080818560808350968C9186BD0BC0149641
S1131800ED91FC91159790819760908350968C91FF
S11318108093B2002FBF0895CF93DF93EC01E88546
S1131820F985309709F019958A859B85892B39F4B8
S1131830E881F9810190F081E02DCE011995DF91C5
S1131840CF910895CF93DF93EC01EA85FB85309720
S113185009F019958C859D85892B39F4E881F981E6
S11318600190F081E02DCE011995DF91CF9108957B
S1131870CF93DF93EC01EC85FD85309709F0199542
S11318808E859F85892B39F4E881F9810190F08157
S1131890E02DCE011995DF91CF910895CF93DF9379
S11318A0EC01EE85FF85309709F01995E881F981FF
S11318B00190F081E02DCE011995DF91CF9108952B
S11318C0FFCF1F920F920FB60F9211240BB60F92F7
S11318D02F933F934F935F936F937F938F939F9334
S11318E0AF93BF93EF93FF938091F61C9091F71CF5
S11318F0009739F0DC01ED91FC910280F381E02D39
S11319001995FF91EF91BF91AF919F918F917F9125
S11319106F915F914F913F912F910F900BBE0F905C
S11319200FBE0F901F9018951F920F920FB60F9233
S113193011240BB60F922F933F934F935F936F93A2
S11319407F938F939F93AF93BF93EF93FF93809174
S1131950F61C9091F71C009739F0DC01ED91FC9195
S11319600480F581E02D1995FF91EF91BF91AF911E
S11319709F918F917F916F915F914F913F912F91A3
S11319800F900BBE0F900FBE0F901F9018951F92D3
S11319900F920FB60F9211240BB60F922F933F9311
S11319A04F935F936F937F938F939F93AF93BF9363
S11319B0EF93FF938091FA1C9091FB1C009739F0F0
S11319C0DC01ED91FC910280F381E02D1995FF91EA
S11319D0EF91BF91AF919F918F917F916F915F91A3
S11319E04F913F912F910F900BBE0F900FBE0F9010
S11319F01F9018951F920F920FB60F9211240BB6D9
S1131A000F922F933F934F935F936F937F938F9393
S1131A109F93AF93BF93EF93FF938091FA1C9091A0
S1131A20FB1C009739F0DC01ED91FC910480F581F9
S1131A30E02D1995FF91EF91BF91AF919F918F91F7
S1131A407F916F915F914F913F912F910F900BBEBA
S1131A500F900FBE0F901F9018951F920F920FB604
S1131A600F9211240BB60F922F933F934F935F93D2
S1131A706F937F938F939F93AF93BF93EF93FF9352
S1131A808091F81C9091F91C009739F0DC01ED91DC
S1131A90FC910280F381E02D1995FF91EF91BF91A4
S1131AA0AF919F918F917F916F915F914F913F91F2
S1131AB02F910F900BBE0F900FBE0F901F90189593
S1131AC01F920F920FB60F9211240BB60F922F9301
S1131AD03F934F935F936F937F938F939F93AF93B2
S1131AE0BF93EF93FF938091F81C9091F91C00979A
S1131AF039F0DC01ED91FC910480F581E02D19951C
S1131B00FF91EF91BF91AF919F918F917F916F91D1
S1131B105F914F913F912F910F900BBE0F900FBE8D
S1131B200F901F9018951F920F920FB60F921124C9
S1131B300BB60F922F933F934F935F936F937F93C3
S1131B408F939F93AF93BF93EF93FF938091F81C70
S1131B509091F91C009739F0DC01ED91FC9106801D
S1131B60F781E02D1995FF91EF91BF91AF919F916E
S1131B708F917F916F915F914F913F912F910F9032
S1131B800BBE0F900FBE0F901F9018951F920F92CF
S1131B900FB60F9211240BB60F922F933F934F93CE
S1131BA05F936F937F938F939F93AF93BF93EF93C1
S1131BB0FF938091F81C9091F91C009739F0DC0197
S1131BC0ED91FC910084F185E02D1995FF91EF9141
S1131BD0BF91AF919F918F917F916F915F914F9141
S1131BE03F912F910F900BBE0F900FBE0F901F903F
S1131BF018951F920F920FB60F9211240BB60F92E5
S1131C002F933F934F935F936F937F938F939F9300
S1131C10AF93BF93EF93FF938091FC1C9091FD1CB5
S1131C20009739F0DC01ED91FC910280F381E02D05
S1131C301995FF91EF91BF91AF919F918F917F91F2
S1131C406F915F914F913F912F910F900BBE0F9029
S1131C500FBE0F901F9018951F920F920FB60F9200
S1131C6011240BB60F922F933F934F935F936F936F
S1131C707F938F939F93AF93BF93EF93FF93809141
S1131C80FC1C9091FD1C009739F0DC01ED91FC9156
S1131C900480F581E02D1995FF91EF91BF91AF91EB
S1131CA09F918F917F916F915F914F913F912F9170
S1131CB00F900BBE0F900FBE0F901F9018951F92A0
S1131CC00F920FB60F9211240BB60F922F933F93DE
S1131CD04F935F936F937F938F939F93AF93BF9330
S1131CE0EF93FF938091FC1C9091FD1C009739F0B9
S1131CF0DC01ED91FC910680F781E02D1995FF91AF
S1131D00EF91BF91AF919F918F917F916F915F916F
S1131D104F913F912F910F900BBE0F900FBE0F90DC
S1131D201F9018951F920F920FB60F9211240BB6A5
S1131D300F922F933F934F935F936F937F938F9360
S1131D409F93AF93BF93EF93FF938091FC1C90916B
S1131D50FD1C009739F0DC01ED91FC910084F185C4
S1131D60E02D1995FF91EF91BF91AF919F918F91C4
S1131D707F916F915F914F913F912F910F900BBE87
S1131D800F900FBE0F901F9018951F920F920FB6D1
S1131D900F9211240BB60F922F933F934F935F939F
S1131DA06F937F938F939F93AF93BF93EF93FF931F
S1131DB08091FE1C9091FF1C009739F0DC01ED919D
S1131DC0FC910280F381E02D1995FF91EF91BF9171
S1131DD0AF919F918F917F916F915F914F913F91BF
S1131DE02F910F900BBE0F900FBE0F901F90189560
S1131DF01F920F920FB60F9211240BB60F922F93CE
S1131E003F934F935F936F937F938F939F93AF937E
S1131E10BF93EF93FF938091FE1C9091FF1C00975A
S1131E2039F0DC01ED91FC910480F581E02D1995E8
S1131E30FF91EF91BF91AF919F918F917F916F919E
S1131E405F914F913F912F910F900BBE0F900FBE5A
S1131E500F901F9018951F920F920FB60F92112496
S1131E600BB60F922F933F934F935F936F937F9390
S1131E708F939F93AF93BF93EF93FF938091FE1C37
S1131E809091FF1C009739F0DC01ED91FC910680E4
S1131E90F781E02D1995FF91EF91BF91AF919F913B
S1131EA08F917F916F915F914F913F912F910F90FF
S1131EB00BBE0F900FBE0F901F9018951F920F929C
S1131EC00FB60F9211240BB60F922F933F934F939B
S1131ED05F936F937F938F939F93AF93BF93EF938E
S1131EE0FF938091FE1C9091FF1C009739F0DC0158
S1131EF0ED91FC910084F185E02D1995FF91EF910E
S1131F00BF91AF919F918F917F916F915F914F910D
S1131F103F912F910F900BBE0F900FBE0F901F900B
S1131F2018951F920F920FB60F9211240BB60F92B1
S1131F302F933F934F935F936F937F938F939F93CD
S1131F40AF93BF93EF93FF938091001D9091011D78
S1131F50009739F0DC01ED91FC910280F381E02DD2
S1131F601995FF91EF91BF91AF919F918F917F91BF
S1131F706F915F914F913F912F910F900BBE0F90F6
S1131F800FBE0F901F9018951F920F920FB60F92CD
S1131F9011240BB60F922F933F934F935F936F933C
S1131FA07F938F939F93AF93BF93EF93FF9380910E
S1131FB0001D9091011D009739F0DC01ED91FC9119
S1131FC00480F581E02D1995FF91EF91BF91AF91B8
S1131FD09F918F917F916F915F914F913F912F913D
S1131FE00F900BBE0F900FBE0F901F9018951F926D
S1131FF00F920FB60F9211240BB60F922F933F93AB
S11320004F935F936F937F938F939F93AF93BF93FC
S1132010EF93FF938091001D9091011D009739F07B
S1132020DC01ED91FC910680F781E02D1995FF917B
S1132030EF91BF91AF919F918F917F916F915F913C
S11320404F913F912F910F900BBE0F900FBE0F90A9
S11320501F9018951F920F920FB60F9211240BB672
S11320600F922F933F934F935F936F937F938F932D
S11320709F93AF93BF93EF93FF938091001D909133
S1132080011D009739F0DC01ED91FC910084F1858C
S1132090E02D1995FF91EF91BF91AF919F918F9191
S11320A07F916F915F914F913F912F910F900BBE54
S11320B00F900FBE0F901F9018959F92AF92BF92F2
S11320C0CF92DF92EF92FF920F931F93CF93DF9300
S11320D0EC01962E5A01690181E992E09983888383
S11320E0862F00D39B838A83E92DF0E0EE0FFF1F38
S11320F0EB53FD4F8081918101969D838C838BEB03
S113210092E09983888381E0981226C0D093F91CC9
S1132110C093F81CA114B10429F0EFE6F0E080812B
S113212082608083C114D10429F0EFE6F0E080815D
S1132130846080830115110529F0EFE6F0E08081C9
S113214088608083E114F10409F47EC0EFE6F0E0D6
S113215080818160808378C083E0981226C0D09308
S1132160FD1CC093FC1CA114B10429F0E1E7F0E0CC
S1132170808182608083C114D10429F0E1E7F0E01A
S11321808081846080830115110529F0E1E7F0E086
S1132190808188608083E114F10409F455C0E1E78B
S11321A0F0E08081816080834FC084E0981225C074
S11321B0D093FF1CC093FE1CA114B10429F0E2E7E4
S11321C0F0E0808182608083C114D10429F0E2E7C9
S11321D0F0E08081846080830115110529F0E2E735
S11321E0F0E0808188608083E114F10469F1E2E722
S11321F0F0E080818160808327C085E098122EC042
S1132200D093011DC093001DA114B10429F0E3E78C
S1132210F0E0808182608083C114D10429F0E3E777
S1132220F0E08081846080830115110529F0E3E7E3
S1132230F0E0808188608083E114F10429F0E3E711
S1132240F0E0808181608083B986A886DB86CA86B7
S11322501D870C87FF86EE861E821F82DF91CF9139
S11322601F910F91FF90EF90DF90CF90BF90AF90B0
S11322709F900895EF92FF920F931F93CF93DF9354
S1132280FC01FFB6F894A481B5818C91887F8C936E
S1132290A481B5818C9185608C93A62FB72FA23130
S11322A081E1B80710F0A1E1B1E18FE08A9FE0017C
S11322B08B9FD00D1124642F752F623181E1780733
S11322C010F061E171E18FE0869FD001879FB00D2E
S11322D01124422F532F423181E1580710F041E17C
S11322E051E18FE0849FB001859F700D1124202F50
S11322F0312F223181E1380710F021E131E18FE003
S1132300829FA001839F500D1124518B408B8281A9
S113231093812091C7023091C8028217930789F4F0
S1132320D0938900C0938800B0938B00A0938A0057
S113233070938D0060938C005093850040938400CB
S113234040C02091CB023091CC028217930789F4CC
S1132350D0939900C0939800B0939B00A0939A00E7
S113236070939D0060939C0050939500409394005B
S113237028C02091CD023091CE028217930789F4B0
S1132380D093A900C093A800B093AB00A093AA0077
S11323907093AD006093AC005093A5004093A400EB
S11323A010C0D0932901C0932801B0932B01A093AE
S11323B02A0170932D0160932C01509325014093C1
S11323C02401E68281E08783FFBEDF91CF911F91D4
S11323D00F91FF90EF900895BF92CF92DF92EF920A
S11323E0FF920F931F93CF93DF93EC01B62E6A01F4
S11323F0790181E992E099838883862F73D19B8345
S11324008A83EB2DF0E0EE0FFF1FEB53FD4F80812D
S1132410918101969D838C838FE992E099838883CF
S1132420B1101DC0D093F71CC093F61CC114D10485
S113243029F0EEE6F0E0808182608083E114F1040B
S113244029F0EEE6F0E080818460808301151105B7
S113245029F1EEE6F0E08081816080831FC082E094
S1132460B81226C0D093FB1CC093FA1CC114D1042B
S113247029F0E0E7F0E0808182608083E114F104D8
S113248029F0E0E7F0E08081846080830115110584
S113249029F0E0E7F0E0808181608083D986C886F6
S11324A0FB86EA861D861C861F870E871E821F8276
S11324B0DF91CF911F910F91FF90EF90DF90CF901C
S11324C0BF900895EF92FF920F931F93CF937C01D7
S11324D0C62F00E010E020E030E040E050E07CDF78
S11324E08DEA92E0F70191838083C11104C081E0F9
S11324F080936E0005C0C23019F481E080937000AF
S1132500CF911F910F91FF90EF900895DC012FB7A9
S1132510F89483B7817F83BF12964D915C91139792
S11325208091C5029091C6024817590721F486B5D7
S11325309FEF96BD05C0E2EBF0E080819FEF9083B2
S11325401496ED91FC91159791E090832FBF93B76A
S1132550916093BF889593B79E7F93BF50969C914B
S1132560891B0895FC014FB7F894A481B5818C911F
S1132570887F8C93862F972F8231910510F081E10B
S113258090E0982F990F890F982F990F990F890F21
S11325908095808B228133818091C5029091C602FF
S11325A02817390741F4A481B5818C9185608C93F7
S11325B0808986BD08C0A481B5818C9187608C9385
S11325C080898093B2008FEF868381E087834FBF39
S11325D00895FC019FB7F894A481B5818C91887FFC
S11325E08C93168217829FBF0895FC0186818230E6
S11325F0B8F18F3F11F081508683828193812091BD
S1132600C7023091C8028217930739F480899189EF
S1132610909385008093840008952091CB0230919B
S1132620CC028217930739F480899189909395009D
S11326308093940008952091CD023091CE028217A8
S1132640930739F4808991899093A5008093A4001D
S11326500895808991899093250180932401089598
S1132660CF01B7CF0895FC0186818230A0F08F3F5F
S113267011F081508683228133818091C50290912B
S1132680C6022817390719F4808986BD0895808900
S11326908093B2000895CF019CCF0895282F30E095
S11326A041E050E0BA0102C0660F771F8A95E2F755
S11326B0CB014091031D5091041D64237523672BA6
S11326C071F4842B952B9093041D8093031D220F8A
S11326D0331FF901EF52FD4F80819181089580E00D
S11326E090E008956091021D282F30E0462F50E0BD
S11326F0082E02C0559547950A94E2F740FD14C090
S113270041E050E0FA0102C0EE0FFF1F8A95E2F7A4
S1132710CF01862B8093021D220F331FF901EB5347
S1132720FD4F80819181089580E090E00895EE0F3F
S1132730FF1F881F8BBF0790F691E02D1994F89422
S1052740FFCFC5
S1132742FFFFFFFFFFFFFFFFFF334C414C414C41B2
S113275200344E6F69636521203A290032414243B5
S113276244454600314C69746572616C6C790000B1
S11327720000002C053F055D057B058A05C105A106
S113278205000000002C053F055D057B058A05C197
S113279205011400000000011800000000012800D7
S11327A20000000210004000000214004000000279
S11327B218004000000228004000000410004010ED
S11327C2500414004010500428004000400000004F
S11327D200600C600C600C600C600C0000000033A4
S11327E213A70BBD0BD30BD40B00000000E60BA701
S11327F20BBD0BD30BD40B00000000F5120C0C2202
S11328020C380C4E0C44008000B0009000A0002054
S11328120120002300260029002C002F0032000092
S10B2822010301060109010094
S9030000FC
