S00A000041362E73726563A3
S11300009BC000001DC100001BC1000019C10000FD
S113001017C1000015C1000013C1000011C1000088
S11300200FC1000009C200003AC200006BC2000008
S113003007C100000C94C8080C94FB0801C100001F
S1130040FFC000000C942E090C9461090C949409CF
S11300500C94C7090C9462080C949508E3C500003D
S1130060EFC00000EDC00000EBC00000E9C00000DC
S1130070E7C00000E5C00000E3C00000E1C00000EC
S11300800C94FA090C942D0A0C94600A0C94930AAB
S1130090D7C00000D5C00000D3C00000D1C000000C
S11300A0CFC00000CDC000000C94C60A0C94F90A1D
S11300B00C942C0B0C945F0BC3C000000C94920B9B
S11300C00C94C50B0C94F80B0C942B0CB9C00000C9
S11300D0B7C00000B5C00000B3C00000B1C000004C
S11300E0AFC0000068683A6D6D3A73732020202019
S11300F068683A6D6D20202020787878B0432028F5
S11301007A7A7A29202020797925005568727A65CF
S11301106974202020205765636B7A6569742020F8
S113012054656D70657261747572202046657563DF
S113013068746500CC01130714BE0FB6F894A89533
S113014080916000886180936000109260000FBE0F
S113015014BE0FB6F894A8958091600088618093CE
S11301606000109260000FBE14BE0FB6F894A895FC
S113017080916000886180936000109260000FBEDF
S113018014BE0FB6F894A89580916000886180939E
S11301906000109260000FBE14BE0FB6F894A895CC
S11301A080916000886180936000109260000FBEAF
S11301B014BE0FB6F894A89580916000886180936E
S11301C06000109260000FBE14BE0FB6F894A8959C
S11301D080916000886180936000109260000FBE7F
S11301E011241FBECFEFD1E2DEBFCDBF00E00CBFB4
S11301F012E0A0E0B2E0ECECFEE100E00BBF02C0D4
S113020007900D92AC3BB107D9F72CE1ACEBB2E00F
S113021001C01D92A538B207E1F710E0CCE9D0E0A7
S113022000E006C021970109802FFE010E945C0FA7
S1130230CA39D10780E00807A9F752D00C94640F9B
S1130240DFCEECEBF2E082818F5F828392E09683D3
S11302508C3388F081818F5F8183128291E0968351
S11302608C3348F080818F5F8083118216828831BD
S113027010F01092BC0281E08093FD020895EF9289
S1130280FF920F931F93019731F56F3F7F4F19F53D
S113029020E040E069E089EF92E0ACD068E081EED4
S11302A092E025D62CE049E062E087ED92E073D33A
S11302B0E12CF12C00E010E020E030E041E251E0DC
S11302C061E085EC92E00E945E0C87ED92E09093F1
S11302D0C4028093C3021F910F91FF90EF90089581
S11302E07894EE24EA9400E010E020E030E040E06E
S11302F050E068EE73E085EC92E00E943B0D40E034
S11303006BE071E087ED92E0CCD340E061E087EDF3
S113031092E05DD240E064EE70E087ED92E0C1D3FC
S11303208091FD028823E1F38091C202813091F033
S113033018F08230E9F02AC0CCEBD2E040E061E072
S11303408F81988544D2688170E020E243E08F81F8
S1130350988540D4CCEBD2E043E061E08F8198856E
S113036036D2698170E020E243E08F81988532D4EF
S1130370CCEBD2E046E061E08F81988528D26A8197
S113038070E020E243E08F81988524D483E0809359
S1130390C2021092FD02C4CF6FEF7FEF81E090E0C4
S11303A06ECF0895FC012FB7F8948481982F90950F
S11303B085818F3F21F4A281B3818C9104C0A281F5
S11303C0B3818C91809589232FBF92852085382F06
S11303D030959323922B908792852185909598232D
S11303E0922B918782870680F781E02D309709F060
S11303F0199508950F931F93CF93DF938C01862F44
S1130400C42FD22F0E94EC0ED80111969C938E9388
S1130410009769F01396DC9313971296CC93129776
S1130420FC01C183ED91FC91CD2BC095C283DF917A
S1130430CF911F910F9108951F920F920FB60F92B3
S113044011240BB60F922F933F934F935F936F93A7
S11304507F938F939F93AF93BF93EF93FF93809179
S1130460FE029091FF02009739F0DC01ED91FC91BE
S11304700190F081E02D1995FF91EF91BF91AF911B
S11304809F918F917F916F915F914F913F912F91A8
S11304900F900BBE0F900FBE0F901F9018951F92D8
S11304A00F920FB60F9211240BB60F922F933F9316
S11304B04F935F936F937F938F939F93AF93BF9368
S11304C0EF93FF938091020390910303009739F017
S11304D0DC01ED91FC910190F081E02D1995FF91E3
S11304E0EF91BF91AF919F918F917F916F915F91A8
S11304F04F913F912F910F900BBE0F900FBE0F9015
S11305001F9018951F920F920FB60F9211240BB6DD
S11305100F922F933F934F935F936F937F938F9398
S11305209F93AF93BF93EF93FF93809100039091B8
S11305300103009739F0DC01ED91FC910190F08109
S1130540E02D1995FF91EF91BF91AF919F918F91FC
S11305507F916F915F914F913F912F910F900BBEBF
S11305600F900FBE0F901F901895FF920F931F933B
S1130570CF93DF93EC01F62E02963CDF8DE192E0FF
S1130580998388831F830E83188619861A8681E0CF
S1130590F8120EC0D093FF02C093FE02E8E6F0E02A
S11305A08081816080838C81809580936B0022C0E0
S11305B089E0F8120EC0D0930103C0930003E8E66B
S11305C0F0E08081846080838C81809580936D00CD
S11305D011C088E0F8120EC0D0930303C093020345
S11305E0E8E6F0E08081826080838C818095880FCA
S11305F080936C00DF91CF911F910F91FF9008952C
S1130600CF93DF93FC016FB7F894A281B3811C925E
S1130610A281B381119780EF8C93A281B3818C91D5
S113062080628C9381E090E0A281B3814C919C0123
S1130630018402C0220F331F0A94E2F724272C936B
S113064025E02A95F1F70000A281B381ED012297FC
S113065028812295207F3C91AC01018402C0440F83
S1130660551F0A94E2F743274C933AE03A95F1F781
S113067000C0A281B3813C91AC01018402C0440F4B
S1130680551F0A94E2F743274C9335E03A95F1F766
S11306900000A281B381ED01229738813C91AC0125
S11306A0018402C0440F551F0A94E2F743274C9378
S11306B022230CF4B9CFA281B3818C918F7D8C93CA
S11306C00280F381E02D31978FEF80836FBFDF913C
S11306D0CF910895FC014FB7F894A281B3815C9146
S11306E021E030E0C901018402C0880F991F0A94F7
S11306F0E2F785278C9385E08A95F1F70000A281C3
S1130700B3818C91018402C0220F331F0A94E2F753
S113071028272C934FBF0895EF92FF920F931F93B6
S1130720CF93DF93EC01062F8C81893011F0CE0139
S113073067DF1FB7F894E02EF12CF594E794F59455
S1130740E794F594E794F594E794EA81FB81E082D9
S1130750CE01C0DF0F70EA81FB810083CE01BADFD6
S1130760EA81FB8110828C81893031F587EC90E03D
S11307700197F1F700C000001FC01985143011F073
S113078084E001C087E08987FFB6F894EA81FB81A1
S1130790E082CE019FDFEA81FB810083CE019ADFF4
S11307A0EA81FB811082198787EC90E00197F1F7C9
S11307B000C00000FFBE04C01FBF8C818930E9F275
S11307C0DF91CF911F910F91FF90EF900895CF93F8
S11307D0DF93FC01A581B6818C916817F0F4119622
S11307E08C9111974817D8F440876783ED01C60FA1
S11307F0D11D8A81480F8481893039F48C91869582
S1130800681718F087E0818702C084E08187CF01F0
S1130810642F606881DF81E003C080E001C080E074
S1130820DF91CF910895FC01908581E0890F808745
S1130830A581B68111962C911197821788F0818138
S1130840882349F0108687818F5F87839C9189175D
S113085018F0178201C0908740856781CF01B7CF18
S113086008951F93CF93DF93EC01162F2FEF81EEA2
S113087094E0215080409040E1F700C00000EA81FC
S1130880FB8183E08083CE0125DF8FE19EE4019725
S1130890F1F700C00000CE011DDF8FE19EE4019757
S11308A0F1F700C00000CE0115DF8FE19EE401974F
S11308B0F1F700C00000EA81FB8182E08083CE0171
S11308C009DF8FE19EE40197F1F700C00000612F7A
S11308D0CE0122DFED81FE818081813021F460E24E
S11308E0CE011ADF03C068E2CE0116DF61E0CE015B
S11308F013DF8C81893031F48FE19EE40197F1F7A5
S113090000C0000066E0CE0107DF8C81893009F069
S11309103EC087E08987EA81FB8183E08083CE0142
S1130920D9DE8FE19EE40197F1F700C00000CE010B
S1130930D1DE8FE19EE40197F1F700C00000CE0103
S1130940C9DE8FE19EE40197F1F700C00000EA815F
S1130950FB8182E08083CE01BDDE8FE19EE40197BE
S1130960F1F700C00000612FCE01D6DE68E2CE01AF
S1130970D3DE61E0CE01D0DE8FE19EE40197F1F792
S113098000C0000066E0CE01C7DE84E08987DF9105
S1130990CF911F9108950F931F93CF93DF93EC0191
S11309A0862F042F122F0E94EC0E9C012E5F3F4FC6
S11309B03B832A8324E029870C83402F50E09A014B
S11309C0220F331F420F531F440F551F415E5D4FCB
S11309D05E834D8318861F82212F221F2227221F08
S11309E029832FEFFC012183612F6F776883CE0168
S11309F038DFDF91CF911F910F9108950F931F93CB
S1130A00CF93DF93EC01162F8C81893011F0CE0146
S1130A10F7DD0FB7F894812F82958F708064EA8197
S1130A20FB818083CE0156DE1F701064EA81FB8156
S1130A301083CE014FDEEA81FB8110828C818930E4
S1130A4031F487EC90E00197F1F700C000000FBF8C
S1130A50CE01E9DEDF91CF911F910F910895EF92BE
S1130A60FF920F931F93CF93DF937C01442311F0E4
S1130A7050E002C04FEF5FEFEB018B01040F151F35
S1130A800C171D0739F06881662321F02196C701F0
S1130A90B5DFF6CFDF91CF911F910F91FF90EF90CB
S1130AA00895EF92FF920F931F93CF93DF937C01EE
S1130AB0442319F0042F10E002C00FEF1FEF060FBC
S1130AC0171FFB01E017F10749F06491EF0121962C
S1130AD0662321F0C70192DFFE01F4CFDF91CF91AD
S1130AE01F910F91FF90EF9008958F929F92AF9274
S1130AF0BF92CF92DF92EF92FF920F931F93CF9307
S1130B00DF936C01FB01892B31F40F2EF4E0CF2E1F
S1130B10F3E0DF2EF02DFF233CF48DE2D6018C931D
S1130B20F195E195F10937C0D6012C9334C0CF017A
S1130B30B8010E94350F7C018E179F0791F4353060
S1130B4021F480E3F60185831CC08881281302C048
S1130B5029830DC08D3219F42883898208C09982B3
S1130B6006C0CF01B8010E94350F605D6983C801DA
S1130B70B5010E94350F8B013F5F2196F701363096
S1130B80B1F6D60116961C9286E090E0841B91097A
S1130B908C0D9D1D12C0E60131E000E117E20F2E1D
S1130BA0F0E39F2EF02D0F2EFDE28F2EF02D0F2E51
S1130BB0FAE0AF2EB12CF02DBACFDF91CF911F9177
S1130BC00F91FF90EF90DF90CF90BF90AF909F90E8
S1130BD08F900895CF93DF93EC0180E090E085DF60
S1130BE040E0BC01CE013BDFDF91CF9108959091AD
S1130BF00C039923A9F020910B03E22FF0E0E050BD
S1130C00FE4F80813FEF3083915090930C032F5F10
S1130C10283018F420930B03089510920B030895C1
S1130C208FEF0895FF93EF93DF93CF93BF93AF9329
S1130C309F938F937F936F935F934F933F932F93E0
S1130C401F930F93FF92EF92DF92CF92BF92AF92D6
S1130C509F928F927F926F925F924F923F922F92C8
S1130C601F920F92C09108022C2F30E08FB74BE2F5
S1130C7053E0249FF001259FF00D349FF00D1124C3
S1130C80E25EFC4F80878DB79EB79287818784810F
S1130C909581A681B7818F519F4FAF4FBF4F8483FA
S1130CA09583A683B783818181110DC08BE293E084
S1130CB0289FF001299FF00D389FF00D1124E25E6A
S1130CC0FC4F81E0818393DF8F3F19F0809308020A
S1130CD041C08C2F4BE253E08F5F883008F081E0F5
S1130CE0282F30E0249FF001259FF00D349FF00D54
S1130CF01124E25EFC4F9181913041F5249FF00173
S1130D00259FF00D349FF00D1124E25EFC4F93817A
S1130D10992361F0249FF001259FF00D349FF00D7D
S1130D201124E25EFC4F91509383D6CF4BE253E003
S1130D30249FF001259FF00D349FF00D1124E25EF5
S1130D40FC4F928193838093080204C08C13C4CF18
S1130D5010920802209108028BE293E0289FF00190
S1130D60299FF00D1124E25EFC4F11829FB7F89485
S1130D7040910F03509110032091990230919A02EF
S1130D804217530751F4EDE0F3E0A481B5818C914F
S1130D9085608C93808986BD0AC0EDE0F3E0A48170
S1130DA0B5818C9187608C9380898093B2009FBFBA
S1130DB0209108028BE293E0289FF001299FF00D17
S1130DC01124E25EFC4F20852FBF20910802289F4A
S1130DD0F001299FF00D1124E25EFC4F818592857C
S1130DE09EBF8DBF0F901F902F903F904F905F90AC
S1130DF06F907F908F909F90AF90BF90CF90DF9037
S1130E00EF90FF900F911F912F913F914F915F9120
S1130E106F917F918F919F91AF91BF91CF91DF910E
S1130E20EF91FF91189560E08DE093E04CC7089531
S1130E30CF93DF93FC018385882309F455C044894B
S1130E405589C281D381888183FD0AC081E084876A
S1130E5084899589938B828B8A818F7E8A8344C00F
S1130E6088818370868B24893589A789B0E0AA0F8D
S1130E70BB1FAA0FBB1FA75FBD4FA80FB11D9C913D
S1130E80290F311D97FD3A95358B248B878B248947
S1130E903589868597858217930734F0958B848BE3
S1130EA08A818F7D8A8310C02489358980899189BC
S1130EB02817390734F0958B848B8A818B7F8A833A
S1130EC003C08A8184628A83848995894817590773
S1130ED059F0A281B38112968C9112978061129677
S1130EE08C9381E085871486DF91CF9108950F93C9
S1130EF01F93CF93DF93EC0100E010E020E044E384
S1130F0034DB8FE592E099838883EA81FB818BEC63
S1130F108283EA81FB818281846382831F861E86A9
S1130F208FE097E2998B888B87E893E19D8B8C8B7C
S1130F309B8B8A8B1E8AEA81FB81808183708F8BD5
S1130F401C861D861B86DF91CF911F910F910895FA
S1130F50CF93DF93EC01E885F985309709F0199573
S1130F608A859B85892B39F4E881F9810190F08188
S1130F70E02DCE011995DF91CF910895CF93DF93A2
S1130F80EC01EA85FB85309709F019958E859F85DC
S1130F90892B39F4E881F9810190F081E02DCE01AB
S1130FA01995DF91CF9108950895CF93DF93EC01C4
S1130FB0EE85FF85309709F01995E881F981019054
S1130FC0F081E02DCE011995DF91CF910895DC01D8
S1130FD02FB7F89412964D915C91139780919902D2
S1130FE090919A024817590759F41496ED91FC917F
S1130FF0159780818560808350968C9186BD0BC047
S11310001496ED91FC91159790819760908350967A
S11310108C918093B2002FBF0895CF93DF93EC019E
S1131020E885F985309709F019958A859B85892B80
S113103039F4E881F9810190F081E02DCE01199510
S1131040DF91CF910895CF93DF93EC01EA85FB857F
S1131050309709F019958C859D85892B39F4E881A1
S1131060F9810190F081E02DCE011995DF91CF91A6
S11310700895CF93DF93EC01EC85FD85309709F05B
S113108019958E859F85892B39F4E881F981019022
S1131090F081E02DCE011995DF91CF910895CF9382
S11310A0DF93EC01EE85FF85309709F01995E8810F
S11310B0F9810190F081E02DCE011995DF91CF9156
S11310C00895FFCF1F920F920FB60F9211240BB603
S11310D00F922F933F934F935F936F937F938F93CD
S11310E09F93AF93BF93EF93FF938091761C90915E
S11310F0771C009739F0DC01ED91FC910280F381BB
S1131100E02D1995FF91EF91BF91AF919F918F9130
S11311107F916F915F914F913F912F910F900BBEF3
S11311200F900FBE0F901F9018951F920F920FB63D
S11311300F9211240BB60F922F933F934F935F930B
S11311406F937F938F939F93AF93BF93EF93FF938B
S11311508091761C9091771C009739F0DC01ED9119
S1131160FC910480F581E02D1995FF91EF91BF91D9
S1131170AF919F918F917F916F915F914F913F912B
S11311802F910F900BBE0F900FBE0F901F901895CC
S11311901F920F920FB60F9211240BB60F922F933A
S11311A03F934F935F936F937F938F939F93AF93EB
S11311B0BF93EF93FF9380917A1C90917B1C0097CF
S11311C039F0DC01ED91FC910280F381E02D199559
S11311D0FF91EF91BF91AF919F918F917F916F910B
S11311E05F914F913F912F910F900BBE0F900FBEC7
S11311F00F901F9018951F920F920FB60F92112403
S11312000BB60F922F933F934F935F936F937F93FC
S11312108F939F93AF93BF93EF93FF9380917A1C27
S113122090917B1C009739F0DC01ED91FC910480D6
S1131230F581E02D1995FF91EF91BF91AF919F91A9
S11312408F917F916F915F914F913F912F910F906B
S11312500BBE0F900FBE0F901F9018951F920F9208
S11312600FB60F9211240BB60F922F933F934F9307
S11312705F936F937F938F939F93AF93BF93EF93FA
S1131280FF938091781C9091791C009739F0DC01D0
S1131290ED91FC910280F381E02D1995FF91EF917E
S11312A0BF91AF919F918F917F916F915F914F917A
S11312B03F912F910F900BBE0F900FBE0F901F9078
S11312C018951F920F920FB60F9211240BB60F921E
S11312D02F933F934F935F936F937F938F939F933A
S11312E0AF93BF93EF93FF938091781C9091791CF7
S11312F0009739F0DC01ED91FC910480F581E02D3B
S11313001995FF91EF91BF91AF919F918F917F912B
S11313106F915F914F913F912F910F900BBE0F9062
S11313200FBE0F901F9018951F920F920FB60F9239
S113133011240BB60F922F933F934F935F936F93A8
S11313407F938F939F93AF93BF93EF93FF9380917A
S1131350781C9091791C009739F0DC01ED91FC9197
S11313600680F781E02D1995FF91EF91BF91AF9120
S11313709F918F917F916F915F914F913F912F91A9
S11313800F900BBE0F900FBE0F901F9018951F92D9
S11313900F920FB60F9211240BB60F922F933F9317
S11313A04F935F936F937F938F939F93AF93BF9369
S11313B0EF93FF938091781C9091791C009739F0FA
S11313C0DC01ED91FC910084F185E02D1995FF91EC
S11313D0EF91BF91AF919F918F917F916F915F91A9
S11313E04F913F912F910F900BBE0F900FBE0F9016
S11313F01F9018951F920F920FB60F9211240BB6DF
S11314000F922F933F934F935F936F937F938F9399
S11314109F93AF93BF93EF93FF9380917C1C909124
S11314207D1C009739F0DC01ED91FC910280F38181
S1131430E02D1995FF91EF91BF91AF919F918F91FD
S11314407F916F915F914F913F912F910F900BBEC0
S11314500F900FBE0F901F9018951F920F920FB60A
S11314600F9211240BB60F922F933F934F935F93D8
S11314706F937F938F939F93AF93BF93EF93FF9358
S113148080917C1C90917D1C009739F0DC01ED91DA
S1131490FC910480F581E02D1995FF91EF91BF91A6
S11314A0AF919F918F917F916F915F914F913F91F8
S11314B02F910F900BBE0F900FBE0F901F90189599
S11314C01F920F920FB60F9211240BB60F922F9307
S11314D03F934F935F936F937F938F939F93AF93B8
S11314E0BF93EF93FF9380917C1C90917D1C009798
S11314F039F0DC01ED91FC910680F781E02D19951E
S1131500FF91EF91BF91AF919F918F917F916F91D7
S11315105F914F913F912F910F900BBE0F900FBE93
S11315200F901F9018951F920F920FB60F921124CF
S11315300BB60F922F933F934F935F936F937F93C9
S11315408F939F93AF93BF93EF93FF9380917C1CF2
S113155090917D1C009739F0DC01ED91FC910084A1
S1131560F185E02D1995FF91EF91BF91AF919F9176
S11315708F917F916F915F914F913F912F910F9038
S11315800BBE0F900FBE0F901F9018951F920F92D5
S11315900FB60F9211240BB60F922F933F934F93D4
S11315A05F936F937F938F939F93AF93BF93EF93C7
S11315B0FF9380917E1C90917F1C009739F0DC0191
S11315C0ED91FC910280F381E02D1995FF91EF914B
S11315D0BF91AF919F918F917F916F915F914F9147
S11315E03F912F910F900BBE0F900FBE0F901F9045
S11315F018951F920F920FB60F9211240BB60F92EB
S11316002F933F934F935F936F937F938F939F9306
S1131610AF93BF93EF93FF9380917E1C90917F1CB7
S1131620009739F0DC01ED91FC910480F581E02D07
S11316301995FF91EF91BF91AF919F918F917F91F8
S11316406F915F914F913F912F910F900BBE0F902F
S11316500FBE0F901F9018951F920F920FB60F9206
S113166011240BB60F922F933F934F935F936F9375
S11316707F938F939F93AF93BF93EF93FF93809147
S11316807E1C90917F1C009739F0DC01ED91FC9158
S11316900680F781E02D1995FF91EF91BF91AF91ED
S11316A09F918F917F916F915F914F913F912F9176
S11316B00F900BBE0F900FBE0F901F9018951F92A6
S11316C00F920FB60F9211240BB60F922F933F93E4
S11316D04F935F936F937F938F939F93AF93BF9336
S11316E0EF93FF9380917E1C90917F1C009739F0BB
S11316F0DC01ED91FC910084F185E02D1995FF91B9
S1131700EF91BF91AF919F918F917F916F915F9175
S11317104F913F912F910F900BBE0F900FBE0F90E2
S11317201F9018951F920F920FB60F9211240BB6AB
S11317300F922F933F934F935F936F937F938F9366
S11317409F93AF93BF93EF93FF938091801C9091ED
S1131750811C009739F0DC01ED91FC910280F3814A
S1131760E02D1995FF91EF91BF91AF919F918F91CA
S11317707F916F915F914F913F912F910F900BBE8D
S11317800F900FBE0F901F9018951F920F920FB6D7
S11317900F9211240BB60F922F933F934F935F93A5
S11317A06F937F938F939F93AF93BF93EF93FF9325
S11317B08091801C9091811C009739F0DC01ED919F
S11317C0FC910480F581E02D1995FF91EF91BF9173
S11317D0AF919F918F917F916F915F914F913F91C5
S11317E02F910F900BBE0F900FBE0F901F90189566
S11317F01F920F920FB60F9211240BB60F922F93D4
S11318003F934F935F936F937F938F939F93AF9384
S1131810BF93EF93FF938091801C9091811C00975C
S113182039F0DC01ED91FC910680F781E02D1995EA
S1131830FF91EF91BF91AF919F918F917F916F91A4
S11318405F914F913F912F910F900BBE0F900FBE60
S11318500F901F9018951F920F920FB60F9211249C
S11318600BB60F922F933F934F935F936F937F9396
S11318708F939F93AF93BF93EF93FF938091801CBB
S11318809091811C009739F0DC01ED91FC9100846A
S1131890F185E02D1995FF91EF91BF91AF919F9143
S11318A08F917F916F915F914F913F912F910F9005
S11318B00BBE0F900FBE0F901F9018959F92AF9282
S11318C0BF92CF92DF92EF92FF920F931F93CF9329
S11318D0DF93EC01962E5A01690185E692E0998323
S11318E08883862F9DD29B838A83E92DF0E0EE0FB7
S11318F0FF1FE756FD4F8081918101969D838C8364
S11319008FE892E09983888381E0981226C0D0936F
S1131910791CC093781CA114B10429F0EFE6F0E01F
S1131920808182608083C114D10429F0EFE6F0E065
S11319308081846080830115110529F0EFE6F0E0D1
S1131940808188608083E114F10409F47EC0EFE6AD
S1131950F0E080818160808378C083E0981226C0A3
S1131960D0937D1CC0937C1CA114B10429F0E1E741
S1131970F0E0808182608083C114D10429F0E1E722
S1131980F0E08081846080830115110529F0E1E78E
S1131990F0E0808188608083E114F10409F455C08B
S11319A0E1E7F0E08081816080834FC084E0981299
S11319B025C0D0937F1CC0937E1CA114B10429F0D0
S11319C0E2E7F0E0808182608083C114D10429F0D1
S11319D0E2E7F0E08081846080830115110529F03D
S11319E0E2E7F0E0808188608083E114F10469F12A
S11319F0E2E7F0E080818160808327C085E098126F
S1131A002EC0D093811CC093801CA114B10429F072
S1131A10E3E7F0E0808182608083C114D10429F07F
S1131A20E3E7F0E08081846080830115110529F0EB
S1131A30E3E7F0E0808188608083E114F10429F019
S1131A40E3E7F0E0808181608083B986A886DB8645
S1131A50CA861D870C87FF86EE861E821F82DF9151
S1131A60CF911F910F91FF90EF90DF90CF90BF9097
S1131A70AF909F900895EF92FF920F931F93CF938F
S1131A80DF93FC01FFB6F894A481B5818C91887F23
S1131A908C93A481B5818C9185608C93A62FB72FEC
S1131AA0A23181E1B80710F0A1E1B1E18FE08A9F92
S1131AB0E0018B9FD00D1124642F752F623181E1D9
S1131AC0780710F061E171E18FE0869FD001879F74
S1131AD0B00D1124422F532F423181E1580710F0E9
S1131AE041E151E18FE0849FB001859F700D112485
S1131AF0202F312F223181E1380710F021E131E12B
S1131B008FE0829FA001839F500D1124518B408B45
S1131B108281938120919B0230919C0282179307CA
S1131B2089F4D0938900C0938800B0938B00A0936C
S1131B308A0070938D0060938C00509385004093CD
S1131B40840040C020919F023091A0028217930725
S1131B5089F4D0939900C0939800B0939B00A0930C
S1131B609A0070939D0060939C005093950040935D
S1131B70940028C02091A1023091A20282179307F9
S1131B8089F4D093A900C093A800B093AB00A093AC
S1131B90AA007093AD006093AC005093A5004093ED
S1131BA0A40010C0D0932901C0932801B0932B0145
S1131BB0A0932A0170932D0160932C015093250169
S1131BC040932401E68281E08783FFBEDF91CF91B9
S1131BD01F910F91FF90EF900895BF92CF92DF92E3
S1131BE0EF92FF920F931F93CF93DF93EC01B62EE6
S1131BF06A01790185E692E099838883862F10D162
S1131C009B838A83EB2DF0E0EE0FFF1FE756FD4F19
S1131C108081918101969D838C8383E792E09983EF
S1131C208883B1101DC0D093771CC093761CC11457
S1131C30D10429F0EEE6F0E0808182608083E11433
S1131C40F10429F0EEE6F0E08081846080830115E0
S1131C50110529F1EEE6F0E08081816080831FC0E8
S1131C6082E0B81226C0D0937B1CC0937A1CC114A6
S1131C70D10429F0E0E7F0E0808182608083E11400
S1131C80F10429F0E0E7F0E08081846080830115AD
S1131C90110529F0E0E7F0E0808181608083D98636
S1131CA0C886FB86EA861D861C861F870E871E82D1
S1131CB01F82DF91CF911F910F91FF90EF90DF90E2
S1131CC0CF90BF900895EF92FF920F931F93CF93FD
S1131CD07C01C62F00E010E020E030E040E050E05E
S1131CE07CDF81E892E0F70191838083C11104C015
S1131CF081E080936E0005C0C23019F481E08093C6
S1131D007000CF911F910F91FF90EF900895FC0107
S1131D109FB7F894A481B5818C91887F8C931682A7
S1131D2017829FBF0895FC0186818230B8F18F3FEE
S1131D3011F0815086838281938120919B0230919E
S1131D409C028217930739F48089918990938500C6
S1131D5080938400089520919F023091A0028217FD
S1131D60930739F480899189909395008093940026
S1131D7008952091A1023091A2028217930739F4A9
S1131D80808991899093A5008093A4000895808907
S1131D90918990932501809324010895CF01B7CFB1
S1131DA00895FC0186818230A0F08F3F11F08150AC
S1131DB08683228133818091990290919A02281717
S1131DC0390719F4808986BD089580898093B2000B
S1131DD00895CF019CCF0895282F30E041E050E0D2
S1131DE0BA0102C0660F771F8A95E2F7CB014091D2
S1131DF0831C5091841C64237523672B71F4842BFA
S1131E00952B9093841C8093831C220F331FF9011C
S1131E10EB55FD4F80819181089580E090E0089515
S1131E206091821C282F30E0462F50E0082E02C01B
S1131E30559547950A94E2F740FD14C041E050E0FF
S1131E40FA0102C0EE0FFF1F8A95E2F7CF01862B3D
S1131E508093821C220F331FF901E756FD4F8081C6
S1131E609181089580E090E0089597FB072E16F481
S1131E70009406D077FD08D00BD007FC05D03EF4C3
S1131E80909581959F4F0895709561957F4F089522
S1131E90AA1BBB1B51E107C0AA1FBB1FA617B7078C
S1131EA010F0A61BB70B881F991F5A95A9F78095A8
S1131EB09095BC01CD010895EE0FFF1F881F8BBFC5
S10F1EC00790F691E02D1994F894FFCFE0
S1131ECCFFFFFFFFFFFFFFFFFF0001FF00FF00000C
S1131EDC01010000FF00FF010000000000D201011D
S1131EEC140000000001180000000001280000008C
S1131EFC0002100040000002140040000002180010
S1131F0C400000022800400000041000401050045F
S1131F1C1400401050042800400040000000001839
S1131F2C070000000061086108610861086108008D
S1131F3C000000D10EA807BE07D407D50700000087
S1131F4C00E707A807BE07D407D5070000000093D5
S1131F5C0E0D08230839084F0844008000B0009087
S1131F6C00A000200120002300260029002C002FB3
S10F1F7C0032000001030106010901000D
S9030000FC
